{"contracts/MSMEToken.sol":{"MSMEToken":{"abi":[{"inputs":[{"internalType":"string","name":"_tokenName","type":"string"},{"internalType":"string","name":"_tokenSymbol","type":"string"},{"internalType":"string","name":"_msmeName","type":"string"},{"internalType":"string","name":"_category","type":"string"},{"internalType":"string","name":"_city","type":"string"},{"internalType":"string","name":"_gstNumber","type":"string"},{"internalType":"uint256","name":"_targetAmount","type":"uint256"},{"internalType":"uint256","name":"_equityOffered","type":"uint256"},{"internalType":"uint256","name":"_foundingYear","type":"uint256"},{"internalType":"string","name":"_ipfsHash","type":"string"},{"internalType":"uint256","name":"_tokenPrice","type":"uint256"},{"internalType":"address","name":"_platformWallet","type":"address"},{"internalType":"address","name":"_founderWallet","type":"address"}],"stateMutability":"nonpayable","type":"constructor"},{"inputs":[{"internalType":"address","name":"spender","type":"address"},{"internalType":"uint256","name":"allowance","type":"uint256"},{"internalType":"uint256","name":"needed","type":"uint256"}],"name":"ERC20InsufficientAllowance","type":"error"},{"inputs":[{"internalType":"address","name":"sender","type":"address"},{"internalType":"uint256","name":"balance","type":"uint256"},{"internalType":"uint256","name":"needed","type":"uint256"}],"name":"ERC20InsufficientBalance","type":"error"},{"inputs":[{"internalType":"address","name":"approver","type":"address"}],"name":"ERC20InvalidApprover","type":"error"},{"inputs":[{"internalType":"address","name":"receiver","type":"address"}],"name":"ERC20InvalidReceiver","type":"error"},{"inputs":[{"internalType":"address","name":"sender","type":"address"}],"name":"ERC20InvalidSender","type":"error"},{"inputs":[{"internalType":"address","name":"spender","type":"address"}],"name":"ERC20InvalidSpender","type":"error"},{"inputs":[{"internalType":"address","name":"owner","type":"address"}],"name":"OwnableInvalidOwner","type":"error"},{"inputs":[{"internalType":"address","name":"account","type":"address"}],"name":"OwnableUnauthorizedAccount","type":"error"},{"inputs":[],"name":"ReentrancyGuardReentrantCall","type":"error"},{"anonymous":false,"inputs":[{"indexed":false,"internalType":"uint256","name":"totalRefunded","type":"uint256"},{"indexed":false,"internalType":"uint256","name":"timestamp","type":"uint256"}],"name":"AllRefundsCompleted","type":"event"},{"anonymous":false,"inputs":[{"indexed":true,"internalType":"address","name":"owner","type":"address"},{"indexed":true,"internalType":"address","name":"spender","type":"address"},{"indexed":false,"internalType":"uint256","name":"value","type":"uint256"}],"name":"Approval","type":"event"},{"anonymous":false,"inputs":[{"indexed":false,"internalType":"uint256","name":"timestamp","type":"uint256"}],"name":"ContractPaused","type":"event"},{"anonymous":false,"inputs":[{"indexed":false,"internalType":"uint256","name":"timestamp","type":"uint256"}],"name":"ContractUnpaused","type":"event"},{"anonymous":false,"inputs":[{"indexed":false,"internalType":"uint256","name":"totalAmount","type":"uint256"},{"indexed":false,"internalType":"uint256","name":"recipientCount","type":"uint256"},{"indexed":false,"internalType":"uint256","name":"timestamp","type":"uint256"}],"name":"DividendDistributed","type":"event"},{"anonymous":false,"inputs":[{"indexed":true,"internalType":"address","name":"recipient","type":"address"},{"indexed":false,"internalType":"uint256","name":"amount","type":"uint256"},{"indexed":false,"internalType":"uint256","name":"timestamp","type":"uint256"}],"name":"DividendReceived","type":"event"},{"anonymous":false,"inputs":[{"indexed":false,"internalType":"uint256","name":"amountRaised","type":"uint256"},{"indexed":false,"internalType":"uint256","name":"timestamp","type":"uint256"}],"name":"FundraisingCompleted","type":"event"},{"anonymous":false,"inputs":[{"indexed":false,"internalType":"uint256","name":"targetAmount","type":"uint256"},{"indexed":false,"internalType":"uint256","name":"timestamp","type":"uint256"}],"name":"FundraisingStarted","type":"event"},{"anonymous":false,"inputs":[{"indexed":false,"internalType":"string","name":"oldHash","type":"string"},{"indexed":false,"internalType":"string","name":"newHash","type":"string"},{"indexed":false,"internalType":"uint256","name":"timestamp","type":"uint256"}],"name":"IPFSHashUpdated","type":"event"},{"anonymous":false,"inputs":[{"indexed":true,"internalType":"address","name":"investor","type":"address"},{"indexed":false,"internalType":"uint256","name":"timestamp","type":"uint256"}],"name":"InvestorRemovedFromWhitelist","type":"event"},{"anonymous":false,"inputs":[{"indexed":true,"internalType":"address","name":"investor","type":"address"},{"indexed":false,"internalType":"uint256","name":"timestamp","type":"uint256"}],"name":"InvestorWhitelisted","type":"event"},{"anonymous":false,"inputs":[{"indexed":true,"internalType":"address","name":"previousOwner","type":"address"},{"indexed":true,"internalType":"address","name":"newOwner","type":"address"}],"name":"OwnershipTransferred","type":"event"},{"anonymous":false,"inputs":[{"indexed":true,"internalType":"uint256","name":"proposalId","type":"uint256"},{"indexed":false,"internalType":"string","name":"title","type":"string"},{"indexed":false,"internalType":"address","name":"proposer","type":"address"},{"indexed":false,"internalType":"uint256","name":"timestamp","type":"uint256"}],"name":"ProposalCreated","type":"event"},{"anonymous":false,"inputs":[{"indexed":true,"internalType":"uint256","name":"proposalId","type":"uint256"},{"indexed":false,"internalType":"bool","name":"passed","type":"bool"},{"indexed":false,"internalType":"uint256","name":"timestamp","type":"uint256"}],"name":"ProposalExecuted","type":"event"},{"anonymous":false,"inputs":[{"indexed":true,"internalType":"address","name":"investor","type":"address"},{"indexed":false,"internalType":"uint256","name":"amount","type":"uint256"},{"indexed":false,"internalType":"uint256","name":"timestamp","type":"uint256"}],"name":"RefundIssued","type":"event"},{"anonymous":false,"inputs":[{"indexed":true,"internalType":"address","name":"buyer","type":"address"},{"indexed":false,"internalType":"uint256","name":"amount","type":"uint256"},{"indexed":false,"internalType":"uint256","name":"cost","type":"uint256"},{"indexed":false,"internalType":"uint256","name":"timestamp","type":"uint256"}],"name":"TokensPurchased","type":"event"},{"anonymous":false,"inputs":[{"indexed":true,"internalType":"address","name":"from","type":"address"},{"indexed":true,"internalType":"address","name":"to","type":"address"},{"indexed":false,"internalType":"uint256","name":"value","type":"uint256"}],"name":"Transfer","type":"event"},{"anonymous":false,"inputs":[{"indexed":true,"internalType":"address","name":"beneficiary","type":"address"},{"indexed":false,"internalType":"uint256","name":"amount","type":"uint256"},{"indexed":false,"internalType":"uint256","name":"duration","type":"uint256"},{"indexed":false,"internalType":"uint256","name":"timestamp","type":"uint256"}],"name":"VestingCreated","type":"event"},{"anonymous":false,"inputs":[{"indexed":true,"internalType":"address","name":"beneficiary","type":"address"},{"indexed":false,"internalType":"uint256","name":"amount","type":"uint256"},{"indexed":false,"internalType":"uint256","name":"timestamp","type":"uint256"}],"name":"VestingReleased","type":"event"},{"anonymous":false,"inputs":[{"indexed":true,"internalType":"uint256","name":"proposalId","type":"uint256"},{"indexed":true,"internalType":"address","name":"voter","type":"address"},{"indexed":false,"internalType":"bool","name":"support","type":"bool"},{"indexed":false,"internalType":"uint256","name":"weight","type":"uint256"},{"indexed":false,"internalType":"uint256","name":"timestamp","type":"uint256"}],"name":"VoteCast","type":"event"},{"inputs":[],"name":"PLATFORM_FEE_PERCENT","outputs":[{"internalType":"uint256","name":"","type":"uint256"}],"stateMutability":"view","type":"function"},{"inputs":[],"name":"VOTING_PERIOD","outputs":[{"internalType":"uint256","name":"","type":"uint256"}],"stateMutability":"view","type":"function"},{"inputs":[{"internalType":"address[]","name":"_investors","type":"address[]"}],"name":"addMultipleToWhitelist","outputs":[],"stateMutability":"nonpayable","type":"function"},{"inputs":[{"internalType":"address","name":"_investor","type":"address"}],"name":"addToWhitelist","outputs":[],"stateMutability":"nonpayable","type":"function"},{"inputs":[{"internalType":"address","name":"owner","type":"address"},{"internalType":"address","name":"spender","type":"address"}],"name":"allowance","outputs":[{"internalType":"uint256","name":"","type":"uint256"}],"stateMutability":"view","type":"function"},{"inputs":[{"internalType":"address","name":"spender","type":"address"},{"internalType":"uint256","name":"value","type":"uint256"}],"name":"approve","outputs":[{"internalType":"bool","name":"","type":"bool"}],"stateMutability":"nonpayable","type":"function"},{"inputs":[{"internalType":"address","name":"account","type":"address"}],"name":"balanceOf","outputs":[{"internalType":"uint256","name":"","type":"uint256"}],"stateMutability":"view","type":"function"},{"inputs":[{"internalType":"uint256","name":"value","type":"uint256"}],"name":"burn","outputs":[],"stateMutability":"nonpayable","type":"function"},{"inputs":[{"internalType":"address","name":"account","type":"address"},{"internalType":"uint256","name":"value","type":"uint256"}],"name":"burnFrom","outputs":[],"stateMutability":"nonpayable","type":"function"},{"inputs":[],"name":"buyTokens","outputs":[],"stateMutability":"payable","type":"function"},{"inputs":[{"internalType":"string","name":"_title","type":"string"},{"internalType":"string","name":"_description","type":"string"}],"name":"createProposal","outputs":[{"internalType":"uint256","name":"","type":"uint256"}],"stateMutability":"nonpayable","type":"function"},{"inputs":[{"internalType":"address","name":"_beneficiary","type":"address"},{"internalType":"uint256","name":"_amount","type":"uint256"},{"internalType":"uint256","name":"_duration","type":"uint256"}],"name":"createVesting","outputs":[],"stateMutability":"nonpayable","type":"function"},{"inputs":[],"name":"decimals","outputs":[{"internalType":"uint8","name":"","type":"uint8"}],"stateMutability":"view","type":"function"},{"inputs":[],"name":"distributeDividends","outputs":[],"stateMutability":"payable","type":"function"},{"inputs":[{"internalType":"address","name":"","type":"address"}],"name":"dividendsReceived","outputs":[{"internalType":"uint256","name":"","type":"uint256"}],"stateMutability":"view","type":"function"},{"inputs":[{"internalType":"uint256","name":"_proposalId","type":"uint256"}],"name":"executeProposal","outputs":[],"stateMutability":"nonpayable","type":"function"},{"inputs":[],"name":"getAllInvestors","outputs":[{"internalType":"address[]","name":"","type":"address[]"}],"stateMutability":"view","type":"function"},{"inputs":[],"name":"getInvestorCount","outputs":[{"internalType":"uint256","name":"","type":"uint256"}],"stateMutability":"view","type":"function"},{"inputs":[],"name":"getMSMEInfo","outputs":[{"internalType":"string","name":"name","type":"string"},{"internalType":"string","name":"category","type":"string"},{"internalType":"string","name":"city","type":"string"},{"internalType":"string","name":"gstNumber","type":"string"},{"internalType":"uint256","name":"targetAmount","type":"uint256"},{"internalType":"uint256","name":"equityOffered","type":"uint256"},{"internalType":"uint256","name":"amountRaised","type":"uint256"},{"internalType":"bool","name":"isFundraising","type":"bool"},{"internalType":"bool","name":"targetReached","type":"bool"},{"internalType":"bool","name":"isRefunded","type":"bool"}],"stateMutability":"view","type":"function"},{"inputs":[{"internalType":"uint256","name":"_proposalId","type":"uint256"}],"name":"getProposalVotes","outputs":[{"internalType":"uint256","name":"forVotes","type":"uint256"},{"internalType":"uint256","name":"againstVotes","type":"uint256"},{"internalType":"bool","name":"isActive","type":"bool"},{"internalType":"bool","name":"isExecuted","type":"bool"}],"stateMutability":"view","type":"function"},{"inputs":[{"internalType":"address","name":"_beneficiary","type":"address"}],"name":"getVestingInfo","outputs":[{"internalType":"uint256","name":"totalAmount","type":"uint256"},{"internalType":"uint256","name":"releasedAmount","type":"uint256"},{"internalType":"uint256","name":"startTime","type":"uint256"},{"internalType":"uint256","name":"duration","type":"uint256"},{"internalType":"bool","name":"exists","type":"bool"}],"stateMutability":"view","type":"function"},{"inputs":[],"name":"getWhitelistedCount","outputs":[{"internalType":"uint256","name":"","type":"uint256"}],"stateMutability":"view","type":"function"},{"inputs":[{"internalType":"address","name":"","type":"address"}],"name":"investmentAmount","outputs":[{"internalType":"uint256","name":"","type":"uint256"}],"stateMutability":"view","type":"function"},{"inputs":[{"internalType":"uint256","name":"","type":"uint256"}],"name":"investors","outputs":[{"internalType":"address","name":"","type":"address"}],"stateMutability":"view","type":"function"},{"inputs":[{"internalType":"address","name":"","type":"address"}],"name":"isWhitelisted","outputs":[{"internalType":"bool","name":"","type":"bool"}],"stateMutability":"view","type":"function"},{"inputs":[],"name":"issueRefunds","outputs":[],"stateMutability":"nonpayable","type":"function"},{"inputs":[],"name":"msmeInfo","outputs":[{"internalType":"string","name":"name","type":"string"},{"internalType":"string","name":"category","type":"string"},{"internalType":"string","name":"city","type":"string"},{"internalType":"string","name":"gstNumber","type":"string"},{"internalType":"uint256","name":"targetAmount","type":"uint256"},{"internalType":"uint256","name":"equityOffered","type":"uint256"},{"internalType":"uint256","name":"amountRaised","type":"uint256"},{"internalType":"uint256","name":"foundingYear","type":"uint256"},{"internalType":"string","name":"ipfsHash","type":"string"},{"internalType":"bool","name":"isFundraising","type":"bool"},{"internalType":"bool","name":"targetReached","type":"bool"},{"internalType":"bool","name":"isRefunded","type":"bool"}],"stateMutability":"view","type":"function"},{"inputs":[],"name":"name","outputs":[{"internalType":"string","name":"","type":"string"}],"stateMutability":"view","type":"function"},{"inputs":[],"name":"owner","outputs":[{"internalType":"address","name":"","type":"address"}],"stateMutability":"view","type":"function"},{"inputs":[],"name":"pause","outputs":[],"stateMutability":"nonpayable","type":"function"},{"inputs":[],"name":"paused","outputs":[{"internalType":"bool","name":"","type":"bool"}],"stateMutability":"view","type":"function"},{"inputs":[],"name":"platformWallet","outputs":[{"internalType":"address","name":"","type":"address"}],"stateMutability":"view","type":"function"},{"inputs":[],"name":"proposalCount","outputs":[{"internalType":"uint256","name":"","type":"uint256"}],"stateMutability":"view","type":"function"},{"inputs":[{"internalType":"uint256","name":"","type":"uint256"}],"name":"proposals","outputs":[{"internalType":"uint256","name":"id","type":"uint256"},{"internalType":"string","name":"title","type":"string"},{"internalType":"string","name":"description","type":"string"},{"internalType":"address","name":"proposer","type":"address"},{"internalType":"uint256","name":"forVotes","type":"uint256"},{"internalType":"uint256","name":"againstVotes","type":"uint256"},{"internalType":"uint256","name":"startTime","type":"uint256"},{"internalType":"uint256","name":"endTime","type":"uint256"},{"internalType":"bool","name":"executed","type":"bool"}],"stateMutability":"view","type":"function"},{"inputs":[],"name":"releaseVestedTokens","outputs":[],"stateMutability":"nonpayable","type":"function"},{"inputs":[{"internalType":"address","name":"_investor","type":"address"}],"name":"removeFromWhitelist","outputs":[],"stateMutability":"nonpayable","type":"function"},{"inputs":[],"name":"renounceOwnership","outputs":[],"stateMutability":"nonpayable","type":"function"},{"inputs":[],"name":"symbol","outputs":[{"internalType":"string","name":"","type":"string"}],"stateMutability":"view","type":"function"},{"inputs":[],"name":"tokenPrice","outputs":[{"internalType":"uint256","name":"","type":"uint256"}],"stateMutability":"view","type":"function"},{"inputs":[],"name":"totalDividendsDistributed","outputs":[{"internalType":"uint256","name":"","type":"uint256"}],"stateMutability":"view","type":"function"},{"inputs":[],"name":"totalSupply","outputs":[{"internalType":"uint256","name":"","type":"uint256"}],"stateMutability":"view","type":"function"},{"inputs":[{"internalType":"address","name":"to","type":"address"},{"internalType":"uint256","name":"value","type":"uint256"}],"name":"transfer","outputs":[{"internalType":"bool","name":"","type":"bool"}],"stateMutability":"nonpayable","type":"function"},{"inputs":[{"internalType":"address","name":"from","type":"address"},{"internalType":"address","name":"to","type":"address"},{"internalType":"uint256","name":"value","type":"uint256"}],"name":"transferFrom","outputs":[{"internalType":"bool","name":"","type":"bool"}],"stateMutability":"nonpayable","type":"function"},{"inputs":[{"internalType":"address","name":"newOwner","type":"address"}],"name":"transferOwnership","outputs":[],"stateMutability":"nonpayable","type":"function"},{"inputs":[],"name":"unpause","outputs":[],"stateMutability":"nonpayable","type":"function"},{"inputs":[{"internalType":"string","name":"_newHash","type":"string"}],"name":"updateIPFSHash","outputs":[],"stateMutability":"nonpayable","type":"function"},{"inputs":[{"internalType":"address","name":"","type":"address"}],"name":"vestingSchedules","outputs":[{"internalType":"uint256","name":"totalAmount","type":"uint256"},{"internalType":"uint256","name":"releasedAmount","type":"uint256"},{"internalType":"uint256","name":"startTime","type":"uint256"},{"internalType":"uint256","name":"duration","type":"uint256"},{"internalType":"bool","name":"exists","type":"bool"}],"stateMutability":"view","type":"function"},{"inputs":[{"internalType":"uint256","name":"_proposalId","type":"uint256"},{"internalType":"bool","name":"_support","type":"bool"}],"name":"vote","outputs":[],"stateMutability":"nonpayable","type":"function"},{"inputs":[{"internalType":"uint256","name":"","type":"uint256"}],"name":"whitelistedAddresses","outputs":[{"internalType":"address","name":"","type":"address"}],"stateMutability":"view","type":"function"},{"stateMutability":"payable","type":"receive"}],"evm":{"bytecode":{"linkReferences":{},"object":"60806040523462000eff5762004399803803806200001d8162000f04565b92833981016101a08282031262000eff5781516001600160401b03811162000eff57816200004d91840162000f2a565b60208301519092906001600160401b03811162000eff57826200007291830162000f2a565b60408201519093906001600160401b03811162000eff57836200009791840162000f2a565b60608301519094906001600160401b03811162000eff5784620000bc91850162000f2a565b60808401519095906001600160401b03811162000eff5785620000e191860162000f2a565b60a08501516001600160401b03811162000eff57866200010391870162000f2a565b60c086015160e0870151610100880151610120890151929990939192906001600160401b03821162000eff576200013c918a0162000f2a565b9361014089015196620001626101806200015a6101608d0162000f9c565b9b0162000f9c565b895190996001600160401b038211620007a05760035490600182811c9216801562000ef4575b60208310146200077f5781601f84931162000e82575b50602090601f831160011462000df35760009262000de7575b50508160011b916000199060031b1c1916176003555b8051906001600160401b038211620007a05760045490600182811c9216801562000ddc575b60208310146200077f5781601f84931162000d6a575b50602090601f831160011462000cdb5760009262000ccf575b50508160011b916000199060031b1c1916176004555b6001600160a01b0388161562000cb657600580546001600160a01b038a81166001600160a01b0319831681179093556040519291167f8be0079c531659141344cd1fd0a4f28419497f9722a3daafe3b4186f6b6457e0600080a360017f9b779b17422d0df92223018b32b4d1fa46e071723d6817e2486d003becc55f00558a1562000c7457508215158062000c68575b1562000c2357861562000bd3576001600160a01b0389161562000b8e576040519a6001600160401b036101808d01908111908d1117620007a0576101808c01604052868c5260208c015260408b015260608a01528760808a015260a0890152600060c089015260e088015261010087015260016101208701526000610140870152600061016087015280519060018060401b038211620007a05760065490600182811c9216801562000b83575b60208310146200077f5781601f84931162000b22575b50602090601f831160011462000aa45760009262000a98575b50508160011b916000199060031b1c1916176006555b60208501518051906001600160401b038211620007a05760075490600182811c9216801562000a8d575b60208310146200077f5781601f84931162000a2c575b50602090601f8311600114620009ae57600092620009a2575b50508160011b916000199060031b1c1916176007555b60408501518051906001600160401b038211620007a05760085490600182811c9216801562000997575b60208310146200077f5781601f84931162000936575b50602090601f8311600114620008b857600092620008ac575b50508160011b916000199060031b1c1916176008555b60608501518051906001600160401b038211620007a05760095490600182811c92168015620008a1575b60208310146200077f5781601f84931162000840575b50602090601f8311600114620007c257600092620007b6575b50508160011b916000199060031b1c1916176009555b6080850151600a5560a0850151600b5560c0850151600c5560e0850151600d5561010085015180519095906001600160401b038111620007a057600e54600181811c9116801562000795575b60208210146200077f57601f811162000719575b506020601f82116001146200068e579181604097969492620006669694600080516020620043198339815191529a60009262000682575b50508160011b916000199060031b1c191617600e555b610120810151151590600f5460ff62ff000061016061ff00610140860151151560081b16940151151560101b1693169062ffffff1916171717600f55601a5560018060a01b03821660018060a01b031960195416176019556200063f60ff199182601b5416601b5560018060a01b03811660005260106020528660002060018482541617905562000fb1565b6001600160a01b038216600090815260106020528590208054909116600117905562000fb1565b8151908152426020820152a16040516132c69081620010338239f35b0151905038806200059d565b600e60005260206000209760005b601f19841681106200070057508260008051602062004319833981519152996200066697959360019360409b9a9896601f19811610620006e6575b505050811b01600e55620005b3565b015160001960f88460031b161c19169055388080620006d7565b828201518a55600190990198602092830192016200069c565b600e6000527fbb7b4a454dc3493923482f07822329ed19e8244eff582cc204f8554c3620c3fd601f830160051c81016020841062000777575b601f830160051c820181106200076a57505062000566565b6000815560010162000752565b508062000752565b634e487b7160e01b600052602260045260246000fd5b90607f169062000552565b634e487b7160e01b600052604160045260246000fd5b015190503880620004f0565b6009600090815293506000805160206200435983398151915291905b601f198416851062000824576001945083601f198116106200080a575b505050811b0160095562000506565b015160001960f88460031b161c19169055388080620007fb565b81810151835560209485019460019093019290910190620007de565b600960005290915060008051602062004359833981519152601f840160051c81016020851062000899575b90849392915b601f830160051c8201811062000889575050620004d7565b6000815585945060010162000871565b50806200086b565b91607f1691620004c1565b01519050388062000481565b6008600090815293506000805160206200433983398151915291905b601f19841685106200091a576001945083601f1981161062000900575b505050811b0160085562000497565b015160001960f88460031b161c19169055388080620008f1565b81810151835560209485019460019093019290910190620008d4565b600860005290915060008051602062004339833981519152601f840160051c8101602085106200098f575b90849392915b601f830160051c820181106200097f57505062000468565b6000815585945060010162000967565b508062000961565b91607f169162000452565b01519050388062000412565b600760009081529350600080516020620042f983398151915291905b601f198416851062000a10576001945083601f19811610620009f6575b505050811b0160075562000428565b015160001960f88460031b161c19169055388080620009e7565b81810151835560209485019460019093019290910190620009ca565b6007600052909150600080516020620042f9833981519152601f840160051c81016020851062000a85575b90849392915b601f830160051c8201811062000a75575050620003f9565b6000815585945060010162000a5d565b508062000a57565b91607f1691620003e3565b015190503880620003a3565b6006600090815293506000805160206200437983398151915291905b601f198416851062000b06576001945083601f1981161062000aec575b505050811b01600655620003b9565b015160001960f88460031b161c1916905538808062000add565b8181015183556020948501946001909301929091019062000ac0565b600660005290915060008051602062004379833981519152601f840160051c81016020851062000b7b575b90849392915b601f830160051c8201811062000b6b5750506200038a565b6000815585945060010162000b53565b508062000b4d565b91607f169162000374565b60405162461bcd60e51b815260206004820152601760248201527f496e76616c696420706c6174666f726d2077616c6c65740000000000000000006044820152606490fd5b60405162461bcd60e51b815260206004820152602260248201527f546f6b656e207072696365206d7573742062652067726561746572207468616e604482015261020360f41b6064820152608490fd5b60405162461bcd60e51b815260206004820152601460248201527f457175697479206d75737420626520312d3230250000000000000000000000006044820152606490fd5b506014831115620002c7565b62461bcd60e51b815260206004820152601d60248201527f546172676574206d7573742062652067726561746572207468616e20300000006044820152606490fd5b604051631e4fbdf760e01b815260006004820152602490fd5b01519050388062000221565b6004600090815293507f8a35acfbc15ff81a39ae7d344fd709f28e8600b4aa8c65c6b64bfe7fe36bd19b91905b601f198416851062000d4e576001945083601f1981161062000d34575b505050811b0160045562000237565b015160001960f88460031b161c1916905538808062000d25565b8181015183556020948501946001909301929091019062000d08565b60046000529091507f8a35acfbc15ff81a39ae7d344fd709f28e8600b4aa8c65c6b64bfe7fe36bd19b601f840160051c81016020851062000dd4575b90849392915b601f830160051c8201811062000dc457505062000208565b6000815585945060010162000dac565b508062000da6565b91607f1691620001f2565b015190503880620001b7565b6003600090815293507fc2575a0e9e593c00f959f8c92f12db2869c3395a3b0502d05e2516446f71f85b91905b601f198416851062000e66576001945083601f1981161062000e4c575b505050811b01600355620001cd565b015160001960f88460031b161c1916905538808062000e3d565b8181015183556020948501946001909301929091019062000e20565b60036000529091507fc2575a0e9e593c00f959f8c92f12db2869c3395a3b0502d05e2516446f71f85b601f840160051c81016020851062000eec575b90849392915b601f830160051c8201811062000edc5750506200019e565b6000815585945060010162000ec4565b508062000ebe565b91607f169162000188565b600080fd5b6040519190601f01601f191682016001600160401b03811183821017620007a057604052565b919080601f8401121562000eff5782516001600160401b038111620007a05760209062000f60601f8201601f1916830162000f04565b9281845282828701011162000eff5760005b81811062000f8857508260009394955001015290565b858101830151848201840152820162000f72565b51906001600160a01b038216820362000eff57565b60115468010000000000000000811015620007a05760018101806011558110156200101c5760116000527f31ecc21a745e3968a04e9570e4425bc18fa8019c68028196b546d1669c200c680180546001600160a01b0319166001600160a01b03909216919091179055565b634e487b7160e01b600052603260045260246000fdfe6080604052600436101561001b575b361561001957600080fd5b005b60003560e01c8063013cf08b1461267757806303c833021461239757806306fdde03146122f1578063095ea7b3146122395780630d61b5191461212d57806318160ddd1461210f5780631ddb6e871461204957806323b872dd14612011578063313ce56714611ff55780633af32abf14611fb65780633d4ac87614611f7c5780633f4ba83a14611f2d5780633feb5f2b14611eeb57806342966c6814611ece57806347c6614014611e755780634ae0b83114611c0257806354dd1da414611a8e578063560d52d414611a725780635c975abb14611a4f57806365e481e21461164d578063681a06d71461162f5780636f9253ca1461154457806370a082311461150a578063715018a6146114ad57806379cc67901461147d5780637ff9b5961461145f5780638401f8d11461131d5780638456cb59146112cb57806385a6b3ae146112ad5780638ab1d681146111f35780638da5cb5b146111ca57806395d89b41146110e8578063960524e3146110ca578063a9059cbb14611099578063b1610d7e1461107b578063ba4e5c4914611020578063c9d27afe14610e49578063d0a2f2c414610d81578063d0febe4c1461097f578063da35c66414610961578063dd62ed3e14610910578063e43252d714610809578063e9754908146105c9578063ed0ea0031461058f578063f16c7bde14610377578063f2fde38b146102e9578063fa2af9da146102c0578063fb897ce41461023c5763fdb20ccb0361000e575b346102bb5760203660031901126102bb576001600160a01b0361025d612b94565b166000526012602052604060002080546102b760018301549260028101549060ff6004600383015492015416916040519586958693909594919260809360a086019786526020860152604085015260608401521515910152565b0390f35b600080fd5b346102bb5760003660031901126102bb576019546040516001600160a01b039091168152602090f35b346102bb5760203660031901126102bb57610302612b94565b61030a612c3b565b6001600160a01b0390811690811561035e57600554826bffffffffffffffffffffffff60a01b821617600555167f8be0079c531659141344cd1fd0a4f28419497f9722a3daafe3b4186f6b6457e0600080a3005b604051631e4fbdf760e01b815260006004820152602490fd5b346102bb576020806003193601126102bb5767ffffffffffffffff6004358181116102bb576103aa903690600401612c0d565b6103b5939193612c3b565b6103bd612a17565b928111610579576103cf600e54612732565b601f8111610515575b506000601f82116001146104675791817f0ab68a2a0c9441dad3292e2b58f8e25bb256bb258781684679701a4b2acf52c19561045193610444969560009161045c575b508260011b906000198460031b1c191617600e555b604051958695606087526060870190612b54565b9285840390860152613203565b4260408301520390a1005b90508101358861041b565b601f19821690600e6000527fbb7b4a454dc3493923482f07822329ed19e8244eff582cc204f8554c3620c3fd9160005b8181106104fe5750956104449594928492610451957f0ab68a2a0c9441dad3292e2b58f8e25bb256bb258781684679701a4b2acf52c199106104e4575b5050600182811b01600e55610430565b820135600019600385901b60f8161c1916905587806104d4565b91928560018192868b013581550194019201610497565b600e6000527fbb7b4a454dc3493923482f07822329ed19e8244eff582cc204f8554c3620c3fd601f830160051c81019184841061056f575b601f0160051c01905b81811061056357506103d8565b60008155600101610556565b909150819061054d565b634e487b7160e01b600052604160045260246000fd5b346102bb5760203660031901126102bb576001600160a01b036105b0612b94565b1660005260176020526020604060002054604051908152f35b346102bb5760603660031901126102bb576105e2612b94565b6024908135604435916105f3612c3b565b6001600160a01b03169182156107cf57811561078b5780156107475782600052601260205260ff6004604060002001541661070a576106328230613175565b60405160a0810181811067ffffffffffffffff8211176106f5577f0d6c6184269aab4c45eaecc5cc21da2c4bc93cf48439a2aea39245d8e66e3d1b9495506040528281526004602082019160008352604081014281526060820190858252608083019460018652896000526012602052604060002093518455516001840155516002830155516003820155019051151560ff801983541691161790556106f06040519283924291846040919493926060820195825260208201520152565b0390a2005b85634e487b7160e01b60005260416004526000fd5b60405162461bcd60e51b8152602060048201526016818601527556657374696e6720616c72656164792065786973747360501b6044820152606490fd5b60405162461bcd60e51b815260206004820152601f818601527f4475726174696f6e206d7573742062652067726561746572207468616e2030006044820152606490fd5b60405162461bcd60e51b815260206004820152601d818601527f416d6f756e74206d7573742062652067726561746572207468616e20300000006044820152606490fd5b60405162461bcd60e51b81526020600482015260138186015272496e76616c69642062656e656669636961727960681b6044820152606490fd5b346102bb576020806003193601126102bb57610823612b94565b9061082c612c3b565b6001600160a01b0382169182156108d957826000526010825260ff6040600020541661089e57906108957f9e7d0f5d43a24b4d4c902aedb948402e36b92b6935667fc2cb3da1c14347655f9284600052601083526040600020600160ff19825416179055612fc4565b604051428152a2005b60405162461bcd60e51b8152600481018390526013602482015272105b1c9958591e481dda1a5d195b1a5cdd1959606a1b6044820152606490fd5b60405162461bcd60e51b815260048101839052600f60248201526e496e76616c6964206164647265737360881b6044820152606490fd5b346102bb5760403660031901126102bb57610929612b94565b610931612baa565b9060018060a01b038091166000526001602052604060002091166000526020526020604060002054604051908152f35b346102bb5760003660031901126102bb576020601354604051908152f35b60003660031901126102bb5761099a60ff601b54161561305b565b336000526020601081526109b560ff6040600020541661309c565b600f5460ff811615610d3c5760101c60ff16610cf8576109d36131d3565b3415610cb457601a54803410610c6f57670de0b6b3a7640000908134029134830403610bdb57610a02916130fb565b8015610c3157336000526017825260406000205415610bf1575b33600052601782526040600020610a3434825461311b565b9055610a4234600c5461311b565b600c55610a4f8133613175565b60408051918252346020830152429082015233907f0d1a0d5e3d583a0e92588799dd06e50fd78c07daf05f0cc06d7b848b1ca445f190606090a2600c54600a54811015610aab575b600160008051602061327183398151915255005b61010061ffff19600f541617600f558060011b81810460021482151715610bdb576064610ada91048092613128565b90600080808060018060a01b039485601954165af1610af7613135565b5015610b965760008080938193600554165af1610b12613135565b5015610b525760407fe4dc16964c311ed7145db4c608966113583fadb91a939bc8037d1b05bf62b83791600c549082519182524290820152a18080610a97565b6064906040519062461bcd60e51b82526004820152601760248201527f466f756e646572207472616e73666572206661696c65640000000000000000006044820152fd5b60405162461bcd60e51b815260048101849052601c60248201527f506c6174666f726d20666565207472616e73666572206661696c6564000000006044820152606490fd5b634e487b7160e01b600052601160045260246000fd5b601854600160401b81101561057957806001610c109201601855612bc0565b81546001600160a01b0360039290921b91821b19163390911b179055610a1c565b60405162461bcd60e51b8152600481018390526016602482015275151bdad95b88185b5bdd5b9d081d1bdbc81cdb585b1b60521b6044820152606490fd5b60405162461bcd60e51b815260048101839052601b60248201527f4d696e696d756d207075726368617365206973203120746f6b656e00000000006044820152606490fd5b6064906040519062461bcd60e51b82526004820152601d60248201527f4d7573742073656e64204d4154494320746f2062757920746f6b656e730000006044820152fd5b6064906040519062461bcd60e51b82526004820152601960248201527f50726f6a65637420686173206265656e20726566756e646564000000000000006044820152fd5b60405162461bcd60e51b815260048101839052601960248201527f46756e6472616973696e67206973206e6f7420616374697665000000000000006044820152606490fd5b346102bb5760003660031901126102bb57604051806018548083526020809301809160186000527fb13d2d76d1f4b7be834882e410b3e3a8afaf69f83600ae24db354391d2378d2e9060005b86828210610e2c578686610de38288038361276c565b604051928392818401908285525180915260408401929160005b828110610e0c57505050500390f35b83516001600160a01b031685528695509381019392810192600101610dfd565b83546001600160a01b031685529093019260019283019201610dcd565b346102bb5760403660031901126102bb5760043560243590811515918281036102bb57610e7b60ff601b54161561305b565b33600052602060108152610e9660ff6040600020541661309c565b82600052601481526040600020610eaf81541515613224565b60078101544211610fe55760098101923360005283835260ff60406000205416610fb057336000526000835260406000205415610f6b5733600052600083526040600020549383526040600020600160ff19825416179055600014610f5657600401610f1c83825461311b565b90555b6040519384528301524260408301527f77a255f45c79d26605c257d8dfc37f9a619f53963ddbed1e95aa0aab1c801cee60603393a3005b600501610f6483825461311b565b9055610f1f565b60405162461bcd60e51b815260048101849052601860248201527f4d75737420686f6c6420746f6b656e7320746f20766f746500000000000000006044820152606490fd5b60405162461bcd60e51b815260048101849052600d60248201526c105b1c9958591e481d9bdd1959609a1b6044820152606490fd5b60405162461bcd60e51b8152600481018390526013602482015272159bdd1a5b99c81c195c9a5bd908195b991959606a1b6044820152606490fd5b346102bb5760203660031901126102bb576004356011548110156102bb5760116000527f31ecc21a745e3968a04e9570e4425bc18fa8019c68028196b546d1669c200c6801546040516001600160a01b039091168152602090f35b346102bb5760003660031901126102bb5760206040516203f4808152f35b346102bb5760403660031901126102bb576110bf6110b5612b94565b6024359033612c67565b602060405160018152f35b346102bb5760003660031901126102bb576020601854604051908152f35b346102bb5760003660031901126102bb57604051600060045461110a81612732565b808452906001908181169081156111a35750600114611148575b6102b7846111348186038261276c565b604051918291602083526020830190612b54565b6004600090815292507f8a35acfbc15ff81a39ae7d344fd709f28e8600b4aa8c65c6b64bfe7fe36bd19b5b82841061118b57505050810160200161113482611124565b80546020858701810191909152909301928101611173565b60ff191660208087019190915292151560051b850190920192506111349150839050611124565b346102bb5760003660031901126102bb576005546040516001600160a01b039091168152602090f35b346102bb5760203660031901126102bb5761120c612b94565b611214612c3b565b6001600160a01b031660008181526010602052604090205460ff161561127657806000526010602052604060002060ff1981541690557f738d236f7be84ef8f4aee10273b0cf8903df213ddd9380e2b81acf4b513185e66020604051428152a2005b60405162461bcd60e51b815260206004820152600f60248201526e139bdd081dda1a5d195b1a5cdd1959608a1b6044820152606490fd5b346102bb5760003660031901126102bb576020601554604051908152f35b346102bb5760003660031901126102bb576112e4612c3b565b600160ff19601b541617601b557f1f56865eed36853b82b13b742f7f60f4056c34e5a8b727e2c67c12190da413ca6020604051428152a1005b346102bb576020806003193601126102bb5767ffffffffffffffff6004358181116102bb57366023820112156102bb5780600401359182116102bb576024810190602436918460051b0101116102bb57611375612c3b565b60005b82811061138157005b6113c6906001600160a01b03806113a161139c848888613037565b613047565b16600052601080875260ff604060002054161580611447575b6113cb575b5050613028565b611378565b816113da61139c858989613037565b1660005286526040600020600160ff1982541617905561140661140161139c848888613037565b612fc4565b7f9e7d0f5d43a24b4d4c902aedb948402e36b92b6935667fc2cb3da1c14347655f8661143661139c858989613037565b604051428152931692a285806113bf565b508161145761139c858989613037565b1615156113ba565b346102bb5760003660031901126102bb576020601a54604051908152f35b346102bb5760403660031901126102bb57610019611499612b94565b602435906114a8823383612e52565b612f25565b346102bb5760003660031901126102bb576114c6612c3b565b600580546001600160a01b031981169091556000906001600160a01b03167f8be0079c531659141344cd1fd0a4f28419497f9722a3daafe3b4186f6b6457e08280a3005b346102bb5760203660031901126102bb576001600160a01b0361152b612b94565b1660005260006020526020604060002054604051908152f35b346102bb5760003660031901126102bb5761155d61278e565b61156561284c565b9061156e6128e5565b61157661297e565b600a54600b54600c54600d549161158b612a17565b94600f5496604051998a99610180808c528b016115a791612b54565b8a810360208c01526115b891612b54565b89810360408b01526115c991612b54565b88810360608a01526115da91612b54565b93608088015260a087015260c086015260e085015283810361010085015261160191612b54565b9060ff811615156101208401528060081c60ff16151561014084015260101c60ff1615156101608301520390f35b346102bb5760003660031901126102bb576020601154604051908152f35b346102bb5760403660031901126102bb5760043567ffffffffffffffff81116102bb5761167e903690600401612c0d565b9060243567ffffffffffffffff81116102bb5761169f903690600401612c0d565b92906116b060ff601b54161561305b565b3360005260106020526116ca60ff6040600020541661309c565b336000526000602052604060002054156119fe5781156119c1576116ef601354613028565b9384601355846000526014602052604060002094855567ffffffffffffffff83116105795760019061172382870154612732565b601f8111611974575b50836000601f8211600114611909576000916118fe575b50600019600386901b1c191684831b17868301555b600286019267ffffffffffffffff8211610579576117768454612732565b601f81116118b3575b50600090601f831160011461184f57928293918392600094611844575b50501b916000199060031b1c19161790555b60038301336bffffffffffffffffffffffff60a01b8254161790554260068401556203f4804201804211610bdb5783600891600760209601550160ff1981541690557f9cc3d9dd626042cdefb76484b91708c3207b637214b44f20111c893548d9c85f60135492839261182e604051928392606084526060840191613203565b33878301524260408301520390a2604051908152f35b01359250888061179c565b601f19831691856000528360206000209360005b8782821061189a57505010611880575b505050811b0190556117ae565b0135600019600384901b60f8161c19169055868080611873565b8585013587559095019460209384019387935001611863565b846000526020600020601f840160051c810191602085106118f4575b601f0160051c019084905b8281106118e857505061177f565b600081550184906118da565b90915081906118cf565b905085013587611743565b905082870160005260206000209060005b84601f198816821061195e57505085601f19811610611944575b50508184811b0182870155611758565b860135600019600387901b60f8161c191690558680611934565b888301358455909201916020918201910161191a565b8287016000526020600020601f860160051c810191602087106119b7575b601f0160051c019083905b8281106119ab57505061172c565b6000815501839061199d565b9091508190611992565b60405162461bcd60e51b81526020600482015260156024820152745469746c652063616e6e6f7420626520656d70747960581b6044820152606490fd5b60405162461bcd60e51b815260206004820152602360248201527f4d75737420686f6c6420746f6b656e7320746f206372656174652070726f706f6044820152621cd85b60ea1b6064820152608490fd5b346102bb5760003660031901126102bb57602060ff601b54166040519015158152f35b346102bb5760003660031901126102bb57602060405160028152f35b346102bb5760003660031901126102bb57611aae60ff601b54161561305b565b611ab66131d3565b336000526012602052604060002060ff60048201541615611bbd57611adf600282015442613128565b600382015490818110611ba157505060018154915b01611b0181548093613128565b918215611b655782611b129161311b565b9055611b1f813330612c67565b6040519081524260208201527fc35bc0b152cc4084b62942d2235605f7e5db6fc6217bc7ef532ba71acf7a58ce60403392a2600160008051602061327183398151915255005b60405162461bcd60e51b81526020600482015260146024820152734e6f20746f6b656e7320746f2072656c6561736560601b6044820152606490fd5b600191611bb2611bb79285546130e8565b6130fb565b91611af4565b60405162461bcd60e51b815260206004820152601960248201527f4e6f2076657374696e67207363686564756c6520666f756e64000000000000006044820152606490fd5b346102bb5760003660031901126102bb57611c1b612c3b565b611c236131d3565b600f5460ff8160081c16611e265760ff8160101c16611dee5760ff811615611db05762ff00ff19166201000017600f556000805b601854821015611d6c57611c6a82612bc0565b60018060a01b0391549060031b1c1691826000526020926017845260406000209081549182611ca8575b505050611ca2919250613028565b90611c57565b9180946000611cc99394556000875260406000205480611d5c575b5061311b565b92600080808084865af1611cdb613135565b5015611d1e5760407f93c496f36ecab5f5583f216646cac3acb12a63aeacddb1a9251ceb81f0ee36e791611ca2959682519182524290820152a282918480611c94565b60405162461bcd60e51b81526004810186905260166024820152751499599d5b99081d1c985b9cd9995c8819985a5b195960521b6044820152606490fd5b611d669085612f25565b87611cc3565b60407fdc5c6310551211c945543334f80a7b86fcd1637c3061dc237e641b200d8ef0fb918151908152426020820152a1600160008051602061327183398151915255005b60405162461bcd60e51b815260206004820152601660248201527546756e6472616973696e67206e6f742061637469766560501b6044820152606490fd5b60405162461bcd60e51b815260206004820152601060248201526f105b1c9958591e481c99599d5b99195960821b6044820152606490fd5b60405162461bcd60e51b815260206004820152602160248201527f5461726765742077617320726561636865642c2063616e6e6f7420726566756e6044820152601960fa1b6064820152608490fd5b346102bb5760203660031901126102bb5760043560005260146020526080604060002060048101549060058101549060ff6008600783015442111592015416916040519384526020840152604083015215156060820152f35b346102bb5760203660031901126102bb5761001960043533612f25565b346102bb5760203660031901126102bb576004356018548110156102bb57611f14602091612bc0565b905460405160039290921b1c6001600160a01b03168152f35b346102bb5760003660031901126102bb57611f46612c3b565b60ff19601b5416601b557fcc6136896eea025320355c56bdfb6974936c220ab7c4736057928dc31c3814096020604051428152a1005b346102bb5760203660031901126102bb576001600160a01b03611f9d612b94565b1660005260166020526020604060002054604051908152f35b346102bb5760203660031901126102bb576001600160a01b03611fd7612b94565b166000526010602052602060ff604060002054166040519015158152f35b346102bb5760003660031901126102bb57602060405160128152f35b346102bb5760603660031901126102bb576110bf61202d612b94565b612035612baa565b60443591612044833383612e52565b612c67565b346102bb5760003660031901126102bb576120ad600a54600b549060ff600c54600f549061207561278e565b946120d761208161284c565b6120c961208c6128e5565b6120bb61209761297e565b936040519c8d9c8d610140908181520190612b54565b8c810360208e015290612b54565b908a820360408c0152612b54565b9088820360608a0152612b54565b94608087015260a086015260c0850152818116151560e0850152818160081c16151561010085015260101c1615156101208301520390f35b346102bb5760003660031901126102bb576020600254604051908152f35b346102bb5760203660031901126102bb57600435612149612c3b565b806000526014602052604060002061216381541515613224565b60078101544211156121fe57600881019081549060ff82166121c6577fec8f304a675f7bb10c5d3eb44ea2444dd65a0da66105763bd6b5bb98aa1461db92600160409360ff191617905560056004820154910154108151908152426020820152a2005b60405162461bcd60e51b815260206004820152601060248201526f105b1c9958591e48195e1958dd5d195960821b6044820152606490fd5b60405162461bcd60e51b8152602060048201526013602482015272566f74696e67207374696c6c2061637469766560681b6044820152606490fd5b346102bb5760403660031901126102bb57612252612b94565b6024359033156122d8576001600160a01b03169081156122bf57336000526001602052604060002082600052602052806040600020556040519081527f8c5be1e5ebec7d5bd14f71427d1e84f3dd0314c0f7b2291e5b200ac8c7c3b92560203392a3602060405160018152f35b604051634a1406b160e11b815260006004820152602490fd5b60405163e602df0560e01b815260006004820152602490fd5b346102bb5760003660031901126102bb57604051600060035461231381612732565b808452906001908181169081156111a3575060011461233c576102b7846111348186038261276c565b6003600090815292507fc2575a0e9e593c00f959f8c92f12db2869c3395a3b0502d05e2516446f71f85b5b82841061237f57505050810160200161113482611124565b80546020858701810191909152909301928101612367565b60003660031901126102bb576123ab612c3b565b6123ba60ff601b54161561305b565b6123c26131d3565b34156126325760028054156125ed576000906000805b6018805482101561250b576123ec82612bc0565b60018060a01b0391549060031b1c168060005260206000815260406000205480612423575b5050505061241e90613028565b6123d8565b61243061243891346130e8565b8754906130fb565b90811561241157909192949661246b83612471928660005260168552604060002061246483825461311b565b905561311b565b97613028565b94600080808086885af1612483613135565b50156124c85750604061241e9493927fb1dd61c96ddeb0731e0e24914d1ceb977fe64d498fde8e1220630e7f77fe8cf29282519182524290820152a290858080612411565b606492506040519162461bcd60e51b8352600483015260248201527f4469766964656e64207472616e73666572206661696c656400000000000000006044820152fd5b82856125198160155461311b565b6015556125268134613128565b80612588575b507f63d71f07eb936381fc294fbded2b933703b98e1387a0c92bc886c12ae4f117c2916125716040519283924291846040919493926060820195825260208201520152565b0390a1600160008051602061327183398151915255005b6005546000918291829182916001600160a01b03165af16125a7613135565b50156125b3578261252c565b60405162461bcd60e51b8152602060048201526012602482015271111d5cdd081c99599d5b990819985a5b195960721b6044820152606490fd5b60405162461bcd60e51b815260206004820152601860248201527f4e6f20746f6b656e7320696e2063697263756c6174696f6e00000000000000006044820152606490fd5b60405162461bcd60e51b815260206004820152601d60248201527f4d7573742073656e64204d4154494320666f72206469766964656e64730000006044820152606490fd5b346102bb5760203660031901126102bb576004356000526014602052604060002080546126a660018301612ab0565b916126b360028201612ab0565b60018060a01b03600383015416916004810154600582015460068301549161270c60ff6008600787015496015416956126fe6040519a8b9a8b526101208060208d01528b0190612b54565b9089820360408b0152612b54565b956060880152608087015260a086015260c085015260e084015215156101008301520390f35b90600182811c92168015612762575b602083101461274c57565b634e487b7160e01b600052602260045260246000fd5b91607f1691612741565b90601f8019910116810190811067ffffffffffffffff82111761057957604052565b60405190600082600654916127a283612732565b8083529260019081811690811561282a57506001146127cb575b506127c99250038361276c565b565b6006600090815291507ff652222313e28459528d920b65115c16c04f3efc82aaedc97be59f3f377c0d3f5b84831061280f57506127c99350508101602001386127bc565b81935090816020925483858a010152019101909185926127f6565b9050602092506127c994915060ff191682840152151560051b820101386127bc565b604051906000826007549161286083612732565b8083529260019081811690811561282a575060011461288657506127c99250038361276c565b6007600090815291507fa66cc928b5edb82af9bd49922954155ab7b0942694bea4ce44661d9a8736c6885b8483106128ca57506127c99350508101602001386127bc565b81935090816020925483858a010152019101909185926128b1565b60405190600082600854916128f983612732565b8083529260019081811690811561282a575060011461291f57506127c99250038361276c565b6008600090815291507ff3f7a9fe364faab93b216da50a3214154f22a0a2b415b23a84c8169e8b636ee35b84831061296357506127c99350508101602001386127bc565b81935090816020925483858a0101520191019091859261294a565b604051906000826009549161299283612732565b8083529260019081811690811561282a57506001146129b857506127c99250038361276c565b6009600090815291507f6e1540171b6c0c960b71a7020d9f60077f6af931a8bbf590da0223dacf75c7af5b8483106129fc57506127c99350508101602001386127bc565b81935090816020925483858a010152019101909185926129e3565b60405190600082600e5491612a2b83612732565b8083529260019081811690811561282a5750600114612a5157506127c99250038361276c565b600e600090815291507fbb7b4a454dc3493923482f07822329ed19e8244eff582cc204f8554c3620c3fd5b848310612a9557506127c99350508101602001386127bc565b81935090816020925483858a01015201910190918592612a7c565b9060405191826000825492612ac484612732565b908184526001948581169081600014612b315750600114612aee575b50506127c99250038361276c565b9093915060005260209081600020936000915b818310612b195750506127c993508201013880612ae0565b85548884018501529485019487945091830191612b01565b9150506127c994506020925060ff191682840152151560051b8201013880612ae0565b919082519283825260005b848110612b80575050826000602080949584010152601f8019910116010190565b602081830181015184830182015201612b5f565b600435906001600160a01b03821682036102bb57565b602435906001600160a01b03821682036102bb57565b601854811015612bf75760186000527fb13d2d76d1f4b7be834882e410b3e3a8afaf69f83600ae24db354391d2378d2e0190600090565b634e487b7160e01b600052603260045260246000fd5b9181601f840112156102bb5782359167ffffffffffffffff83116102bb57602083818601950101116102bb57565b6005546001600160a01b03163303612c4f57565b60405163118cdaa760e01b8152336004820152602490fd5b916001600160a01b03808416928315612e395716928315612e20573084141580612e16575b612d22575b60009083825281602052604082205490838210612cf0575091604082827fddf252ad1be2c89b69c2b068fc378daa952ba7f163c4a11628f55a4df523b3ef958760209652828652038282205586815220818154019055604051908152a3565b60405163391434e360e21b81526001600160a01b03919091166004820152602481019190915260448101839052606490fd5b82600052601060205260ff6040600020541615612dd85783600052601060205260ff6040600020541615612d935760ff601b541615612c915760405162461bcd60e51b815260206004820152601060248201526f151c985b9cd9995c9cc81c185d5cd95960821b6044820152606490fd5b60405162461bcd60e51b815260206004820152601860248201527f5265636569766572206e6f742077686974656c697374656400000000000000006044820152606490fd5b60405162461bcd60e51b815260206004820152601660248201527514d95b99195c881b9bdd081dda1a5d195b1a5cdd195960521b6044820152606490fd5b5030831415612c8c565b60405163ec442f0560e01b815260006004820152602490fd5b604051634b637e8f60e11b815260006004820152602490fd5b9160018060a01b038093169160009383855260016020526040938486209183169182875260205284862054926000198410612e91575b50505050505050565b848410612ef557508015612edd578115612ec557855260016020528385209085526020520391205538808080808080612e88565b8451634a1406b160e11b815260048101879052602490fd5b845163e602df0560e01b815260048101879052602490fd5b8551637dc7a0d960e11b81526001600160a01b039190911660048201526024810184905260448101859052606490fd5b906001600160a01b038216908115612e395760009282845283602052604084205490828210612f925750817fddf252ad1be2c89b69c2b068fc378daa952ba7f163c4a11628f55a4df523b3ef926020928587528684520360408620558060025403600255604051908152a3565b60405163391434e360e21b81526001600160a01b03919091166004820152602481019190915260448101829052606490fd5b601154600160401b811015610579576001810180601155811015612bf75760116000527f31ecc21a745e3968a04e9570e4425bc18fa8019c68028196b546d1669c200c680180546001600160a01b0319166001600160a01b03909216919091179055565b6000198114610bdb5760010190565b9190811015612bf75760051b0190565b356001600160a01b03811681036102bb5790565b1561306257565b60405162461bcd60e51b815260206004820152601260248201527110dbdb9d1c9858dd081a5cc81c185d5cd95960721b6044820152606490fd5b156130a357565b60405162461bcd60e51b815260206004820152601e60248201527f4e6f742077686974656c6973746564202d204b594320726571756972656400006044820152606490fd5b81810292918115918404141715610bdb57565b8115613105570490565b634e487b7160e01b600052601260045260246000fd5b91908201809211610bdb57565b91908203918211610bdb57565b3d15613170573d9067ffffffffffffffff82116105795760405191613164601f8201601f19166020018461276c565b82523d6000602084013e565b606090565b6001600160a01b0316908115612e20577fddf252ad1be2c89b69c2b068fc378daa952ba7f163c4a11628f55a4df523b3ef6020826131b760009460025461311b565b60025584845283825260408420818154019055604051908152a3565b60008051602061327183398151915260028154146131f15760029055565b604051633ee5aeb560e01b8152600490fd5b908060209392818452848401376000828201840152601f01601f1916010190565b1561322b57565b60405162461bcd60e51b815260206004820152601760248201527f50726f706f73616c20646f6573206e6f742065786973740000000000000000006044820152606490fdfe9b779b17422d0df92223018b32b4d1fa46e071723d6817e2486d003becc55f00a26469706673582212208095ceba2a8196c1746c49f9648ea4561036aa489df54ecf13f22b3cf8768a4164736f6c63430008140033a66cc928b5edb82af9bd49922954155ab7b0942694bea4ce44661d9a8736c6883cd1dc9e33ecdc4c37bf9b3fca20d6c7f3d3a8121a4325609bee32a4ec9ae5d7f3f7a9fe364faab93b216da50a3214154f22a0a2b415b23a84c8169e8b636ee36e1540171b6c0c960b71a7020d9f60077f6af931a8bbf590da0223dacf75c7aff652222313e28459528d920b65115c16c04f3efc82aaedc97be59f3f377c0d3f","opcodes":"PUSH1 0x80 PUSH1 0x40 MSTORE CALLVALUE PUSH3 0xEFF JUMPI PUSH3 0x4399 DUP1 CODESIZE SUB DUP1 PUSH3 0x1D DUP2 PUSH3 0xF04 JUMP JUMPDEST SWAP3 DUP4 CODECOPY DUP2 ADD PUSH2 0x1A0 DUP3 DUP3 SUB SLT PUSH3 0xEFF JUMPI DUP2 MLOAD PUSH1 0x1 PUSH1 0x1 PUSH1 0x40 SHL SUB DUP2 GT PUSH3 0xEFF JUMPI DUP2 PUSH3 0x4D SWAP2 DUP5 ADD PUSH3 0xF2A JUMP JUMPDEST PUSH1 0x20 DUP4 ADD MLOAD SWAP1 SWAP3 SWAP1 PUSH1 0x1 PUSH1 0x1 PUSH1 0x40 SHL SUB DUP2 GT PUSH3 0xEFF JUMPI DUP3 PUSH3 0x72 SWAP2 DUP4 ADD PUSH3 0xF2A JUMP JUMPDEST PUSH1 0x40 DUP3 ADD MLOAD SWAP1 SWAP4 SWAP1 PUSH1 0x1 PUSH1 0x1 PUSH1 0x40 SHL SUB DUP2 GT PUSH3 0xEFF JUMPI DUP4 PUSH3 0x97 SWAP2 DUP5 ADD PUSH3 0xF2A JUMP JUMPDEST PUSH1 0x60 DUP4 ADD MLOAD SWAP1 SWAP5 SWAP1 PUSH1 0x1 PUSH1 0x1 PUSH1 0x40 SHL SUB DUP2 GT PUSH3 0xEFF JUMPI DUP5 PUSH3 0xBC SWAP2 DUP6 ADD PUSH3 0xF2A JUMP JUMPDEST PUSH1 0x80 DUP5 ADD MLOAD SWAP1 SWAP6 SWAP1 PUSH1 0x1 PUSH1 0x1 PUSH1 0x40 SHL SUB DUP2 GT PUSH3 0xEFF JUMPI DUP6 PUSH3 0xE1 SWAP2 DUP7 ADD PUSH3 0xF2A JUMP JUMPDEST PUSH1 0xA0 DUP6 ADD MLOAD PUSH1 0x1 PUSH1 0x1 PUSH1 0x40 SHL SUB DUP2 GT PUSH3 0xEFF JUMPI DUP7 PUSH3 0x103 SWAP2 DUP8 ADD PUSH3 0xF2A JUMP JUMPDEST PUSH1 0xC0 DUP7 ADD MLOAD PUSH1 0xE0 DUP8 ADD MLOAD PUSH2 0x100 DUP9 ADD MLOAD PUSH2 0x120 DUP10 ADD MLOAD SWAP3 SWAP10 SWAP1 SWAP4 SWAP2 SWAP3 SWAP1 PUSH1 0x1 PUSH1 0x1 PUSH1 0x40 SHL SUB DUP3 GT PUSH3 0xEFF JUMPI PUSH3 0x13C SWAP2 DUP11 ADD PUSH3 0xF2A JUMP JUMPDEST SWAP4 PUSH2 0x140 DUP10 ADD MLOAD SWAP7 PUSH3 0x162 PUSH2 0x180 PUSH3 0x15A PUSH2 0x160 DUP14 ADD PUSH3 0xF9C JUMP JUMPDEST SWAP12 ADD PUSH3 0xF9C JUMP JUMPDEST DUP10 MLOAD SWAP1 SWAP10 PUSH1 0x1 PUSH1 0x1 PUSH1 0x40 SHL SUB DUP3 GT PUSH3 0x7A0 JUMPI PUSH1 0x3 SLOAD SWAP1 PUSH1 0x1 DUP3 DUP2 SHR SWAP3 AND DUP1 ISZERO PUSH3 0xEF4 JUMPI JUMPDEST PUSH1 0x20 DUP4 LT EQ PUSH3 0x77F JUMPI DUP2 PUSH1 0x1F DUP5 SWAP4 GT PUSH3 0xE82 JUMPI JUMPDEST POP PUSH1 0x20 SWAP1 PUSH1 0x1F DUP4 GT PUSH1 0x1 EQ PUSH3 0xDF3 JUMPI PUSH1 0x0 SWAP3 PUSH3 0xDE7 JUMPI JUMPDEST POP POP DUP2 PUSH1 0x1 SHL SWAP2 PUSH1 0x0 NOT SWAP1 PUSH1 0x3 SHL SHR NOT AND OR PUSH1 0x3 SSTORE JUMPDEST DUP1 MLOAD SWAP1 PUSH1 0x1 PUSH1 0x1 PUSH1 0x40 SHL SUB DUP3 GT PUSH3 0x7A0 JUMPI PUSH1 0x4 SLOAD SWAP1 PUSH1 0x1 DUP3 DUP2 SHR SWAP3 AND DUP1 ISZERO PUSH3 0xDDC JUMPI JUMPDEST PUSH1 0x20 DUP4 LT EQ PUSH3 0x77F JUMPI DUP2 PUSH1 0x1F DUP5 SWAP4 GT PUSH3 0xD6A JUMPI JUMPDEST POP PUSH1 0x20 SWAP1 PUSH1 0x1F DUP4 GT PUSH1 0x1 EQ PUSH3 0xCDB JUMPI PUSH1 0x0 SWAP3 PUSH3 0xCCF JUMPI JUMPDEST POP POP DUP2 PUSH1 0x1 SHL SWAP2 PUSH1 0x0 NOT SWAP1 PUSH1 0x3 SHL SHR NOT AND OR PUSH1 0x4 SSTORE JUMPDEST PUSH1 0x1 PUSH1 0x1 PUSH1 0xA0 SHL SUB DUP9 AND ISZERO PUSH3 0xCB6 JUMPI PUSH1 0x5 DUP1 SLOAD PUSH1 0x1 PUSH1 0x1 PUSH1 0xA0 SHL SUB DUP11 DUP2 AND PUSH1 0x1 PUSH1 0x1 PUSH1 0xA0 SHL SUB NOT DUP4 AND DUP2 OR SWAP1 SWAP4 SSTORE PUSH1 0x40 MLOAD SWAP3 SWAP2 AND PUSH32 0x8BE0079C531659141344CD1FD0A4F28419497F9722A3DAAFE3B4186F6B6457E0 PUSH1 0x0 DUP1 LOG3 PUSH1 0x1 PUSH32 0x9B779B17422D0DF92223018B32B4D1FA46E071723D6817E2486D003BECC55F00 SSTORE DUP11 ISZERO PUSH3 0xC74 JUMPI POP DUP3 ISZERO ISZERO DUP1 PUSH3 0xC68 JUMPI JUMPDEST ISZERO PUSH3 0xC23 JUMPI DUP7 ISZERO PUSH3 0xBD3 JUMPI PUSH1 0x1 PUSH1 0x1 PUSH1 0xA0 SHL SUB DUP10 AND ISZERO PUSH3 0xB8E JUMPI PUSH1 0x40 MLOAD SWAP11 PUSH1 0x1 PUSH1 0x1 PUSH1 0x40 SHL SUB PUSH2 0x180 DUP14 ADD SWAP1 DUP2 GT SWAP1 DUP14 GT OR PUSH3 0x7A0 JUMPI PUSH2 0x180 DUP13 ADD PUSH1 0x40 MSTORE DUP7 DUP13 MSTORE PUSH1 0x20 DUP13 ADD MSTORE PUSH1 0x40 DUP12 ADD MSTORE PUSH1 0x60 DUP11 ADD MSTORE DUP8 PUSH1 0x80 DUP11 ADD MSTORE PUSH1 0xA0 DUP10 ADD MSTORE PUSH1 0x0 PUSH1 0xC0 DUP10 ADD MSTORE PUSH1 0xE0 DUP9 ADD MSTORE PUSH2 0x100 DUP8 ADD MSTORE PUSH1 0x1 PUSH2 0x120 DUP8 ADD MSTORE PUSH1 0x0 PUSH2 0x140 DUP8 ADD MSTORE PUSH1 0x0 PUSH2 0x160 DUP8 ADD MSTORE DUP1 MLOAD SWAP1 PUSH1 0x1 DUP1 PUSH1 0x40 SHL SUB DUP3 GT PUSH3 0x7A0 JUMPI PUSH1 0x6 SLOAD SWAP1 PUSH1 0x1 DUP3 DUP2 SHR SWAP3 AND DUP1 ISZERO PUSH3 0xB83 JUMPI JUMPDEST PUSH1 0x20 DUP4 LT EQ PUSH3 0x77F JUMPI DUP2 PUSH1 0x1F DUP5 SWAP4 GT PUSH3 0xB22 JUMPI JUMPDEST POP PUSH1 0x20 SWAP1 PUSH1 0x1F DUP4 GT PUSH1 0x1 EQ PUSH3 0xAA4 JUMPI PUSH1 0x0 SWAP3 PUSH3 0xA98 JUMPI JUMPDEST POP POP DUP2 PUSH1 0x1 SHL SWAP2 PUSH1 0x0 NOT SWAP1 PUSH1 0x3 SHL SHR NOT AND OR PUSH1 0x6 SSTORE JUMPDEST PUSH1 0x20 DUP6 ADD MLOAD DUP1 MLOAD SWAP1 PUSH1 0x1 PUSH1 0x1 PUSH1 0x40 SHL SUB DUP3 GT PUSH3 0x7A0 JUMPI PUSH1 0x7 SLOAD SWAP1 PUSH1 0x1 DUP3 DUP2 SHR SWAP3 AND DUP1 ISZERO PUSH3 0xA8D JUMPI JUMPDEST PUSH1 0x20 DUP4 LT EQ PUSH3 0x77F JUMPI DUP2 PUSH1 0x1F DUP5 SWAP4 GT PUSH3 0xA2C JUMPI JUMPDEST POP PUSH1 0x20 SWAP1 PUSH1 0x1F DUP4 GT PUSH1 0x1 EQ PUSH3 0x9AE JUMPI PUSH1 0x0 SWAP3 PUSH3 0x9A2 JUMPI JUMPDEST POP POP DUP2 PUSH1 0x1 SHL SWAP2 PUSH1 0x0 NOT SWAP1 PUSH1 0x3 SHL SHR NOT AND OR PUSH1 0x7 SSTORE JUMPDEST PUSH1 0x40 DUP6 ADD MLOAD DUP1 MLOAD SWAP1 PUSH1 0x1 PUSH1 0x1 PUSH1 0x40 SHL SUB DUP3 GT PUSH3 0x7A0 JUMPI PUSH1 0x8 SLOAD SWAP1 PUSH1 0x1 DUP3 DUP2 SHR SWAP3 AND DUP1 ISZERO PUSH3 0x997 JUMPI JUMPDEST PUSH1 0x20 DUP4 LT EQ PUSH3 0x77F JUMPI DUP2 PUSH1 0x1F DUP5 SWAP4 GT PUSH3 0x936 JUMPI JUMPDEST POP PUSH1 0x20 SWAP1 PUSH1 0x1F DUP4 GT PUSH1 0x1 EQ PUSH3 0x8B8 JUMPI PUSH1 0x0 SWAP3 PUSH3 0x8AC JUMPI JUMPDEST POP POP DUP2 PUSH1 0x1 SHL SWAP2 PUSH1 0x0 NOT SWAP1 PUSH1 0x3 SHL SHR NOT AND OR PUSH1 0x8 SSTORE JUMPDEST PUSH1 0x60 DUP6 ADD MLOAD DUP1 MLOAD SWAP1 PUSH1 0x1 PUSH1 0x1 PUSH1 0x40 SHL SUB DUP3 GT PUSH3 0x7A0 JUMPI PUSH1 0x9 SLOAD SWAP1 PUSH1 0x1 DUP3 DUP2 SHR SWAP3 AND DUP1 ISZERO PUSH3 0x8A1 JUMPI JUMPDEST PUSH1 0x20 DUP4 LT EQ PUSH3 0x77F JUMPI DUP2 PUSH1 0x1F DUP5 SWAP4 GT PUSH3 0x840 JUMPI JUMPDEST POP PUSH1 0x20 SWAP1 PUSH1 0x1F DUP4 GT PUSH1 0x1 EQ PUSH3 0x7C2 JUMPI PUSH1 0x0 SWAP3 PUSH3 0x7B6 JUMPI JUMPDEST POP POP DUP2 PUSH1 0x1 SHL SWAP2 PUSH1 0x0 NOT SWAP1 PUSH1 0x3 SHL SHR NOT AND OR PUSH1 0x9 SSTORE JUMPDEST PUSH1 0x80 DUP6 ADD MLOAD PUSH1 0xA SSTORE PUSH1 0xA0 DUP6 ADD MLOAD PUSH1 0xB SSTORE PUSH1 0xC0 DUP6 ADD MLOAD PUSH1 0xC SSTORE PUSH1 0xE0 DUP6 ADD MLOAD PUSH1 0xD SSTORE PUSH2 0x100 DUP6 ADD MLOAD DUP1 MLOAD SWAP1 SWAP6 SWAP1 PUSH1 0x1 PUSH1 0x1 PUSH1 0x40 SHL SUB DUP2 GT PUSH3 0x7A0 JUMPI PUSH1 0xE SLOAD PUSH1 0x1 DUP2 DUP2 SHR SWAP2 AND DUP1 ISZERO PUSH3 0x795 JUMPI JUMPDEST PUSH1 0x20 DUP3 LT EQ PUSH3 0x77F JUMPI PUSH1 0x1F DUP2 GT PUSH3 0x719 JUMPI JUMPDEST POP PUSH1 0x20 PUSH1 0x1F DUP3 GT PUSH1 0x1 EQ PUSH3 0x68E JUMPI SWAP2 DUP2 PUSH1 0x40 SWAP8 SWAP7 SWAP5 SWAP3 PUSH3 0x666 SWAP7 SWAP5 PUSH1 0x0 DUP1 MLOAD PUSH1 0x20 PUSH3 0x4319 DUP4 CODECOPY DUP2 MLOAD SWAP2 MSTORE SWAP11 PUSH1 0x0 SWAP3 PUSH3 0x682 JUMPI JUMPDEST POP POP DUP2 PUSH1 0x1 SHL SWAP2 PUSH1 0x0 NOT SWAP1 PUSH1 0x3 SHL SHR NOT AND OR PUSH1 0xE SSTORE JUMPDEST PUSH2 0x120 DUP2 ADD MLOAD ISZERO ISZERO SWAP1 PUSH1 0xF SLOAD PUSH1 0xFF PUSH3 0xFF0000 PUSH2 0x160 PUSH2 0xFF00 PUSH2 0x140 DUP7 ADD MLOAD ISZERO ISZERO PUSH1 0x8 SHL AND SWAP5 ADD MLOAD ISZERO ISZERO PUSH1 0x10 SHL AND SWAP4 AND SWAP1 PUSH3 0xFFFFFF NOT AND OR OR OR PUSH1 0xF SSTORE PUSH1 0x1A SSTORE PUSH1 0x1 DUP1 PUSH1 0xA0 SHL SUB DUP3 AND PUSH1 0x1 DUP1 PUSH1 0xA0 SHL SUB NOT PUSH1 0x19 SLOAD AND OR PUSH1 0x19 SSTORE PUSH3 0x63F PUSH1 0xFF NOT SWAP2 DUP3 PUSH1 0x1B SLOAD AND PUSH1 0x1B SSTORE PUSH1 0x1 DUP1 PUSH1 0xA0 SHL SUB DUP2 AND PUSH1 0x0 MSTORE PUSH1 0x10 PUSH1 0x20 MSTORE DUP7 PUSH1 0x0 KECCAK256 PUSH1 0x1 DUP5 DUP3 SLOAD AND OR SWAP1 SSTORE PUSH3 0xFB1 JUMP JUMPDEST PUSH1 0x1 PUSH1 0x1 PUSH1 0xA0 SHL SUB DUP3 AND PUSH1 0x0 SWAP1 DUP2 MSTORE PUSH1 0x10 PUSH1 0x20 MSTORE DUP6 SWAP1 KECCAK256 DUP1 SLOAD SWAP1 SWAP2 AND PUSH1 0x1 OR SWAP1 SSTORE PUSH3 0xFB1 JUMP JUMPDEST DUP2 MLOAD SWAP1 DUP2 MSTORE TIMESTAMP PUSH1 0x20 DUP3 ADD MSTORE LOG1 PUSH1 0x40 MLOAD PUSH2 0x32C6 SWAP1 DUP2 PUSH3 0x1033 DUP3 CODECOPY RETURN JUMPDEST ADD MLOAD SWAP1 POP CODESIZE DUP1 PUSH3 0x59D JUMP JUMPDEST PUSH1 0xE PUSH1 0x0 MSTORE PUSH1 0x20 PUSH1 0x0 KECCAK256 SWAP8 PUSH1 0x0 JUMPDEST PUSH1 0x1F NOT DUP5 AND DUP2 LT PUSH3 0x700 JUMPI POP DUP3 PUSH1 0x0 DUP1 MLOAD PUSH1 0x20 PUSH3 0x4319 DUP4 CODECOPY DUP2 MLOAD SWAP2 MSTORE SWAP10 PUSH3 0x666 SWAP8 SWAP6 SWAP4 PUSH1 0x1 SWAP4 PUSH1 0x40 SWAP12 SWAP11 SWAP9 SWAP7 PUSH1 0x1F NOT DUP2 AND LT PUSH3 0x6E6 JUMPI JUMPDEST POP POP POP DUP2 SHL ADD PUSH1 0xE SSTORE PUSH3 0x5B3 JUMP JUMPDEST ADD MLOAD PUSH1 0x0 NOT PUSH1 0xF8 DUP5 PUSH1 0x3 SHL AND SHR NOT AND SWAP1 SSTORE CODESIZE DUP1 DUP1 PUSH3 0x6D7 JUMP JUMPDEST DUP3 DUP3 ADD MLOAD DUP11 SSTORE PUSH1 0x1 SWAP1 SWAP10 ADD SWAP9 PUSH1 0x20 SWAP3 DUP4 ADD SWAP3 ADD PUSH3 0x69C JUMP JUMPDEST PUSH1 0xE PUSH1 0x0 MSTORE PUSH32 0xBB7B4A454DC3493923482F07822329ED19E8244EFF582CC204F8554C3620C3FD PUSH1 0x1F DUP4 ADD PUSH1 0x5 SHR DUP2 ADD PUSH1 0x20 DUP5 LT PUSH3 0x777 JUMPI JUMPDEST PUSH1 0x1F DUP4 ADD PUSH1 0x5 SHR DUP3 ADD DUP2 LT PUSH3 0x76A JUMPI POP POP PUSH3 0x566 JUMP JUMPDEST PUSH1 0x0 DUP2 SSTORE PUSH1 0x1 ADD PUSH3 0x752 JUMP JUMPDEST POP DUP1 PUSH3 0x752 JUMP JUMPDEST PUSH4 0x4E487B71 PUSH1 0xE0 SHL PUSH1 0x0 MSTORE PUSH1 0x22 PUSH1 0x4 MSTORE PUSH1 0x24 PUSH1 0x0 REVERT JUMPDEST SWAP1 PUSH1 0x7F AND SWAP1 PUSH3 0x552 JUMP JUMPDEST PUSH4 0x4E487B71 PUSH1 0xE0 SHL PUSH1 0x0 MSTORE PUSH1 0x41 PUSH1 0x4 MSTORE PUSH1 0x24 PUSH1 0x0 REVERT JUMPDEST ADD MLOAD SWAP1 POP CODESIZE DUP1 PUSH3 0x4F0 JUMP JUMPDEST PUSH1 0x9 PUSH1 0x0 SWAP1 DUP2 MSTORE SWAP4 POP PUSH1 0x0 DUP1 MLOAD PUSH1 0x20 PUSH3 0x4359 DUP4 CODECOPY DUP2 MLOAD SWAP2 MSTORE SWAP2 SWAP1 JUMPDEST PUSH1 0x1F NOT DUP5 AND DUP6 LT PUSH3 0x824 JUMPI PUSH1 0x1 SWAP5 POP DUP4 PUSH1 0x1F NOT DUP2 AND LT PUSH3 0x80A JUMPI JUMPDEST POP POP POP DUP2 SHL ADD PUSH1 0x9 SSTORE PUSH3 0x506 JUMP JUMPDEST ADD MLOAD PUSH1 0x0 NOT PUSH1 0xF8 DUP5 PUSH1 0x3 SHL AND SHR NOT AND SWAP1 SSTORE CODESIZE DUP1 DUP1 PUSH3 0x7FB JUMP JUMPDEST DUP2 DUP2 ADD MLOAD DUP4 SSTORE PUSH1 0x20 SWAP5 DUP6 ADD SWAP5 PUSH1 0x1 SWAP1 SWAP4 ADD SWAP3 SWAP1 SWAP2 ADD SWAP1 PUSH3 0x7DE JUMP JUMPDEST PUSH1 0x9 PUSH1 0x0 MSTORE SWAP1 SWAP2 POP PUSH1 0x0 DUP1 MLOAD PUSH1 0x20 PUSH3 0x4359 DUP4 CODECOPY DUP2 MLOAD SWAP2 MSTORE PUSH1 0x1F DUP5 ADD PUSH1 0x5 SHR DUP2 ADD PUSH1 0x20 DUP6 LT PUSH3 0x899 JUMPI JUMPDEST SWAP1 DUP5 SWAP4 SWAP3 SWAP2 JUMPDEST PUSH1 0x1F DUP4 ADD PUSH1 0x5 SHR DUP3 ADD DUP2 LT PUSH3 0x889 JUMPI POP POP PUSH3 0x4D7 JUMP JUMPDEST PUSH1 0x0 DUP2 SSTORE DUP6 SWAP5 POP PUSH1 0x1 ADD PUSH3 0x871 JUMP JUMPDEST POP DUP1 PUSH3 0x86B JUMP JUMPDEST SWAP2 PUSH1 0x7F AND SWAP2 PUSH3 0x4C1 JUMP JUMPDEST ADD MLOAD SWAP1 POP CODESIZE DUP1 PUSH3 0x481 JUMP JUMPDEST PUSH1 0x8 PUSH1 0x0 SWAP1 DUP2 MSTORE SWAP4 POP PUSH1 0x0 DUP1 MLOAD PUSH1 0x20 PUSH3 0x4339 DUP4 CODECOPY DUP2 MLOAD SWAP2 MSTORE SWAP2 SWAP1 JUMPDEST PUSH1 0x1F NOT DUP5 AND DUP6 LT PUSH3 0x91A JUMPI PUSH1 0x1 SWAP5 POP DUP4 PUSH1 0x1F NOT DUP2 AND LT PUSH3 0x900 JUMPI JUMPDEST POP POP POP DUP2 SHL ADD PUSH1 0x8 SSTORE PUSH3 0x497 JUMP JUMPDEST ADD MLOAD PUSH1 0x0 NOT PUSH1 0xF8 DUP5 PUSH1 0x3 SHL AND SHR NOT AND SWAP1 SSTORE CODESIZE DUP1 DUP1 PUSH3 0x8F1 JUMP JUMPDEST DUP2 DUP2 ADD MLOAD DUP4 SSTORE PUSH1 0x20 SWAP5 DUP6 ADD SWAP5 PUSH1 0x1 SWAP1 SWAP4 ADD SWAP3 SWAP1 SWAP2 ADD SWAP1 PUSH3 0x8D4 JUMP JUMPDEST PUSH1 0x8 PUSH1 0x0 MSTORE SWAP1 SWAP2 POP PUSH1 0x0 DUP1 MLOAD PUSH1 0x20 PUSH3 0x4339 DUP4 CODECOPY DUP2 MLOAD SWAP2 MSTORE PUSH1 0x1F DUP5 ADD PUSH1 0x5 SHR DUP2 ADD PUSH1 0x20 DUP6 LT PUSH3 0x98F JUMPI JUMPDEST SWAP1 DUP5 SWAP4 SWAP3 SWAP2 JUMPDEST PUSH1 0x1F DUP4 ADD PUSH1 0x5 SHR DUP3 ADD DUP2 LT PUSH3 0x97F JUMPI POP POP PUSH3 0x468 JUMP JUMPDEST PUSH1 0x0 DUP2 SSTORE DUP6 SWAP5 POP PUSH1 0x1 ADD PUSH3 0x967 JUMP JUMPDEST POP DUP1 PUSH3 0x961 JUMP JUMPDEST SWAP2 PUSH1 0x7F AND SWAP2 PUSH3 0x452 JUMP JUMPDEST ADD MLOAD SWAP1 POP CODESIZE DUP1 PUSH3 0x412 JUMP JUMPDEST PUSH1 0x7 PUSH1 0x0 SWAP1 DUP2 MSTORE SWAP4 POP PUSH1 0x0 DUP1 MLOAD PUSH1 0x20 PUSH3 0x42F9 DUP4 CODECOPY DUP2 MLOAD SWAP2 MSTORE SWAP2 SWAP1 JUMPDEST PUSH1 0x1F NOT DUP5 AND DUP6 LT PUSH3 0xA10 JUMPI PUSH1 0x1 SWAP5 POP DUP4 PUSH1 0x1F NOT DUP2 AND LT PUSH3 0x9F6 JUMPI JUMPDEST POP POP POP DUP2 SHL ADD PUSH1 0x7 SSTORE PUSH3 0x428 JUMP JUMPDEST ADD MLOAD PUSH1 0x0 NOT PUSH1 0xF8 DUP5 PUSH1 0x3 SHL AND SHR NOT AND SWAP1 SSTORE CODESIZE DUP1 DUP1 PUSH3 0x9E7 JUMP JUMPDEST DUP2 DUP2 ADD MLOAD DUP4 SSTORE PUSH1 0x20 SWAP5 DUP6 ADD SWAP5 PUSH1 0x1 SWAP1 SWAP4 ADD SWAP3 SWAP1 SWAP2 ADD SWAP1 PUSH3 0x9CA JUMP JUMPDEST PUSH1 0x7 PUSH1 0x0 MSTORE SWAP1 SWAP2 POP PUSH1 0x0 DUP1 MLOAD PUSH1 0x20 PUSH3 0x42F9 DUP4 CODECOPY DUP2 MLOAD SWAP2 MSTORE PUSH1 0x1F DUP5 ADD PUSH1 0x5 SHR DUP2 ADD PUSH1 0x20 DUP6 LT PUSH3 0xA85 JUMPI JUMPDEST SWAP1 DUP5 SWAP4 SWAP3 SWAP2 JUMPDEST PUSH1 0x1F DUP4 ADD PUSH1 0x5 SHR DUP3 ADD DUP2 LT PUSH3 0xA75 JUMPI POP POP PUSH3 0x3F9 JUMP JUMPDEST PUSH1 0x0 DUP2 SSTORE DUP6 SWAP5 POP PUSH1 0x1 ADD PUSH3 0xA5D JUMP JUMPDEST POP DUP1 PUSH3 0xA57 JUMP JUMPDEST SWAP2 PUSH1 0x7F AND SWAP2 PUSH3 0x3E3 JUMP JUMPDEST ADD MLOAD SWAP1 POP CODESIZE DUP1 PUSH3 0x3A3 JUMP JUMPDEST PUSH1 0x6 PUSH1 0x0 SWAP1 DUP2 MSTORE SWAP4 POP PUSH1 0x0 DUP1 MLOAD PUSH1 0x20 PUSH3 0x4379 DUP4 CODECOPY DUP2 MLOAD SWAP2 MSTORE SWAP2 SWAP1 JUMPDEST PUSH1 0x1F NOT DUP5 AND DUP6 LT PUSH3 0xB06 JUMPI PUSH1 0x1 SWAP5 POP DUP4 PUSH1 0x1F NOT DUP2 AND LT PUSH3 0xAEC JUMPI JUMPDEST POP POP POP DUP2 SHL ADD PUSH1 0x6 SSTORE PUSH3 0x3B9 JUMP JUMPDEST ADD MLOAD PUSH1 0x0 NOT PUSH1 0xF8 DUP5 PUSH1 0x3 SHL AND SHR NOT AND SWAP1 SSTORE CODESIZE DUP1 DUP1 PUSH3 0xADD JUMP JUMPDEST DUP2 DUP2 ADD MLOAD DUP4 SSTORE PUSH1 0x20 SWAP5 DUP6 ADD SWAP5 PUSH1 0x1 SWAP1 SWAP4 ADD SWAP3 SWAP1 SWAP2 ADD SWAP1 PUSH3 0xAC0 JUMP JUMPDEST PUSH1 0x6 PUSH1 0x0 MSTORE SWAP1 SWAP2 POP PUSH1 0x0 DUP1 MLOAD PUSH1 0x20 PUSH3 0x4379 DUP4 CODECOPY DUP2 MLOAD SWAP2 MSTORE PUSH1 0x1F DUP5 ADD PUSH1 0x5 SHR DUP2 ADD PUSH1 0x20 DUP6 LT PUSH3 0xB7B JUMPI JUMPDEST SWAP1 DUP5 SWAP4 SWAP3 SWAP2 JUMPDEST PUSH1 0x1F DUP4 ADD PUSH1 0x5 SHR DUP3 ADD DUP2 LT PUSH3 0xB6B JUMPI POP POP PUSH3 0x38A JUMP JUMPDEST PUSH1 0x0 DUP2 SSTORE DUP6 SWAP5 POP PUSH1 0x1 ADD PUSH3 0xB53 JUMP JUMPDEST POP DUP1 PUSH3 0xB4D JUMP JUMPDEST SWAP2 PUSH1 0x7F AND SWAP2 PUSH3 0x374 JUMP JUMPDEST PUSH1 0x40 MLOAD PUSH3 0x461BCD PUSH1 0xE5 SHL DUP2 MSTORE PUSH1 0x20 PUSH1 0x4 DUP3 ADD MSTORE PUSH1 0x17 PUSH1 0x24 DUP3 ADD MSTORE PUSH32 0x496E76616C696420706C6174666F726D2077616C6C6574000000000000000000 PUSH1 0x44 DUP3 ADD MSTORE PUSH1 0x64 SWAP1 REVERT JUMPDEST PUSH1 0x40 MLOAD PUSH3 0x461BCD PUSH1 0xE5 SHL DUP2 MSTORE PUSH1 0x20 PUSH1 0x4 DUP3 ADD MSTORE PUSH1 0x22 PUSH1 0x24 DUP3 ADD MSTORE PUSH32 0x546F6B656E207072696365206D7573742062652067726561746572207468616E PUSH1 0x44 DUP3 ADD MSTORE PUSH2 0x203 PUSH1 0xF4 SHL PUSH1 0x64 DUP3 ADD MSTORE PUSH1 0x84 SWAP1 REVERT JUMPDEST PUSH1 0x40 MLOAD PUSH3 0x461BCD PUSH1 0xE5 SHL DUP2 MSTORE PUSH1 0x20 PUSH1 0x4 DUP3 ADD MSTORE PUSH1 0x14 PUSH1 0x24 DUP3 ADD MSTORE PUSH32 0x457175697479206D75737420626520312D323025000000000000000000000000 PUSH1 0x44 DUP3 ADD MSTORE PUSH1 0x64 SWAP1 REVERT JUMPDEST POP PUSH1 0x14 DUP4 GT ISZERO PUSH3 0x2C7 JUMP JUMPDEST PUSH3 0x461BCD PUSH1 0xE5 SHL DUP2 MSTORE PUSH1 0x20 PUSH1 0x4 DUP3 ADD MSTORE PUSH1 0x1D PUSH1 0x24 DUP3 ADD MSTORE PUSH32 0x546172676574206D7573742062652067726561746572207468616E2030000000 PUSH1 0x44 DUP3 ADD MSTORE PUSH1 0x64 SWAP1 REVERT JUMPDEST PUSH1 0x40 MLOAD PUSH4 0x1E4FBDF7 PUSH1 0xE0 SHL DUP2 MSTORE PUSH1 0x0 PUSH1 0x4 DUP3 ADD MSTORE PUSH1 0x24 SWAP1 REVERT JUMPDEST ADD MLOAD SWAP1 POP CODESIZE DUP1 PUSH3 0x221 JUMP JUMPDEST PUSH1 0x4 PUSH1 0x0 SWAP1 DUP2 MSTORE SWAP4 POP PUSH32 0x8A35ACFBC15FF81A39AE7D344FD709F28E8600B4AA8C65C6B64BFE7FE36BD19B SWAP2 SWAP1 JUMPDEST PUSH1 0x1F NOT DUP5 AND DUP6 LT PUSH3 0xD4E JUMPI PUSH1 0x1 SWAP5 POP DUP4 PUSH1 0x1F NOT DUP2 AND LT PUSH3 0xD34 JUMPI JUMPDEST POP POP POP DUP2 SHL ADD PUSH1 0x4 SSTORE PUSH3 0x237 JUMP JUMPDEST ADD MLOAD PUSH1 0x0 NOT PUSH1 0xF8 DUP5 PUSH1 0x3 SHL AND SHR NOT AND SWAP1 SSTORE CODESIZE DUP1 DUP1 PUSH3 0xD25 JUMP JUMPDEST DUP2 DUP2 ADD MLOAD DUP4 SSTORE PUSH1 0x20 SWAP5 DUP6 ADD SWAP5 PUSH1 0x1 SWAP1 SWAP4 ADD SWAP3 SWAP1 SWAP2 ADD SWAP1 PUSH3 0xD08 JUMP JUMPDEST PUSH1 0x4 PUSH1 0x0 MSTORE SWAP1 SWAP2 POP PUSH32 0x8A35ACFBC15FF81A39AE7D344FD709F28E8600B4AA8C65C6B64BFE7FE36BD19B PUSH1 0x1F DUP5 ADD PUSH1 0x5 SHR DUP2 ADD PUSH1 0x20 DUP6 LT PUSH3 0xDD4 JUMPI JUMPDEST SWAP1 DUP5 SWAP4 SWAP3 SWAP2 JUMPDEST PUSH1 0x1F DUP4 ADD PUSH1 0x5 SHR DUP3 ADD DUP2 LT PUSH3 0xDC4 JUMPI POP POP PUSH3 0x208 JUMP JUMPDEST PUSH1 0x0 DUP2 SSTORE DUP6 SWAP5 POP PUSH1 0x1 ADD PUSH3 0xDAC JUMP JUMPDEST POP DUP1 PUSH3 0xDA6 JUMP JUMPDEST SWAP2 PUSH1 0x7F AND SWAP2 PUSH3 0x1F2 JUMP JUMPDEST ADD MLOAD SWAP1 POP CODESIZE DUP1 PUSH3 0x1B7 JUMP JUMPDEST PUSH1 0x3 PUSH1 0x0 SWAP1 DUP2 MSTORE SWAP4 POP PUSH32 0xC2575A0E9E593C00F959F8C92F12DB2869C3395A3B0502D05E2516446F71F85B SWAP2 SWAP1 JUMPDEST PUSH1 0x1F NOT DUP5 AND DUP6 LT PUSH3 0xE66 JUMPI PUSH1 0x1 SWAP5 POP DUP4 PUSH1 0x1F NOT DUP2 AND LT PUSH3 0xE4C JUMPI JUMPDEST POP POP POP DUP2 SHL ADD PUSH1 0x3 SSTORE PUSH3 0x1CD JUMP JUMPDEST ADD MLOAD PUSH1 0x0 NOT PUSH1 0xF8 DUP5 PUSH1 0x3 SHL AND SHR NOT AND SWAP1 SSTORE CODESIZE DUP1 DUP1 PUSH3 0xE3D JUMP JUMPDEST DUP2 DUP2 ADD MLOAD DUP4 SSTORE PUSH1 0x20 SWAP5 DUP6 ADD SWAP5 PUSH1 0x1 SWAP1 SWAP4 ADD SWAP3 SWAP1 SWAP2 ADD SWAP1 PUSH3 0xE20 JUMP JUMPDEST PUSH1 0x3 PUSH1 0x0 MSTORE SWAP1 SWAP2 POP PUSH32 0xC2575A0E9E593C00F959F8C92F12DB2869C3395A3B0502D05E2516446F71F85B PUSH1 0x1F DUP5 ADD PUSH1 0x5 SHR DUP2 ADD PUSH1 0x20 DUP6 LT PUSH3 0xEEC JUMPI JUMPDEST SWAP1 DUP5 SWAP4 SWAP3 SWAP2 JUMPDEST PUSH1 0x1F DUP4 ADD PUSH1 0x5 SHR DUP3 ADD DUP2 LT PUSH3 0xEDC JUMPI POP POP PUSH3 0x19E JUMP JUMPDEST PUSH1 0x0 DUP2 SSTORE DUP6 SWAP5 POP PUSH1 0x1 ADD PUSH3 0xEC4 JUMP JUMPDEST POP DUP1 PUSH3 0xEBE JUMP JUMPDEST SWAP2 PUSH1 0x7F AND SWAP2 PUSH3 0x188 JUMP JUMPDEST PUSH1 0x0 DUP1 REVERT JUMPDEST PUSH1 0x40 MLOAD SWAP2 SWAP1 PUSH1 0x1F ADD PUSH1 0x1F NOT AND DUP3 ADD PUSH1 0x1 PUSH1 0x1 PUSH1 0x40 SHL SUB DUP2 GT DUP4 DUP3 LT OR PUSH3 0x7A0 JUMPI PUSH1 0x40 MSTORE JUMP JUMPDEST SWAP2 SWAP1 DUP1 PUSH1 0x1F DUP5 ADD SLT ISZERO PUSH3 0xEFF JUMPI DUP3 MLOAD PUSH1 0x1 PUSH1 0x1 PUSH1 0x40 SHL SUB DUP2 GT PUSH3 0x7A0 JUMPI PUSH1 0x20 SWAP1 PUSH3 0xF60 PUSH1 0x1F DUP3 ADD PUSH1 0x1F NOT AND DUP4 ADD PUSH3 0xF04 JUMP JUMPDEST SWAP3 DUP2 DUP5 MSTORE DUP3 DUP3 DUP8 ADD ADD GT PUSH3 0xEFF JUMPI PUSH1 0x0 JUMPDEST DUP2 DUP2 LT PUSH3 0xF88 JUMPI POP DUP3 PUSH1 0x0 SWAP4 SWAP5 SWAP6 POP ADD ADD MSTORE SWAP1 JUMP JUMPDEST DUP6 DUP2 ADD DUP4 ADD MLOAD DUP5 DUP3 ADD DUP5 ADD MSTORE DUP3 ADD PUSH3 0xF72 JUMP JUMPDEST MLOAD SWAP1 PUSH1 0x1 PUSH1 0x1 PUSH1 0xA0 SHL SUB DUP3 AND DUP3 SUB PUSH3 0xEFF JUMPI JUMP JUMPDEST PUSH1 0x11 SLOAD PUSH9 0x10000000000000000 DUP2 LT ISZERO PUSH3 0x7A0 JUMPI PUSH1 0x1 DUP2 ADD DUP1 PUSH1 0x11 SSTORE DUP2 LT ISZERO PUSH3 0x101C JUMPI PUSH1 0x11 PUSH1 0x0 MSTORE PUSH32 0x31ECC21A745E3968A04E9570E4425BC18FA8019C68028196B546D1669C200C68 ADD DUP1 SLOAD PUSH1 0x1 PUSH1 0x1 PUSH1 0xA0 SHL SUB NOT AND PUSH1 0x1 PUSH1 0x1 PUSH1 0xA0 SHL SUB SWAP1 SWAP3 AND SWAP2 SWAP1 SWAP2 OR SWAP1 SSTORE JUMP JUMPDEST PUSH4 0x4E487B71 PUSH1 0xE0 SHL PUSH1 0x0 MSTORE PUSH1 0x32 PUSH1 0x4 MSTORE PUSH1 0x24 PUSH1 0x0 REVERT INVALID PUSH1 0x80 PUSH1 0x40 MSTORE PUSH1 0x4 CALLDATASIZE LT ISZERO PUSH2 0x1B JUMPI JUMPDEST CALLDATASIZE ISZERO PUSH2 0x19 JUMPI PUSH1 0x0 DUP1 REVERT JUMPDEST STOP JUMPDEST PUSH1 0x0 CALLDATALOAD PUSH1 0xE0 SHR DUP1 PUSH4 0x13CF08B EQ PUSH2 0x2677 JUMPI DUP1 PUSH4 0x3C83302 EQ PUSH2 0x2397 JUMPI DUP1 PUSH4 0x6FDDE03 EQ PUSH2 0x22F1 JUMPI DUP1 PUSH4 0x95EA7B3 EQ PUSH2 0x2239 JUMPI DUP1 PUSH4 0xD61B519 EQ PUSH2 0x212D JUMPI DUP1 PUSH4 0x18160DDD EQ PUSH2 0x210F JUMPI DUP1 PUSH4 0x1DDB6E87 EQ PUSH2 0x2049 JUMPI DUP1 PUSH4 0x23B872DD EQ PUSH2 0x2011 JUMPI DUP1 PUSH4 0x313CE567 EQ PUSH2 0x1FF5 JUMPI DUP1 PUSH4 0x3AF32ABF EQ PUSH2 0x1FB6 JUMPI DUP1 PUSH4 0x3D4AC876 EQ PUSH2 0x1F7C JUMPI DUP1 PUSH4 0x3F4BA83A EQ PUSH2 0x1F2D JUMPI DUP1 PUSH4 0x3FEB5F2B EQ PUSH2 0x1EEB JUMPI DUP1 PUSH4 0x42966C68 EQ PUSH2 0x1ECE JUMPI DUP1 PUSH4 0x47C66140 EQ PUSH2 0x1E75 JUMPI DUP1 PUSH4 0x4AE0B831 EQ PUSH2 0x1C02 JUMPI DUP1 PUSH4 0x54DD1DA4 EQ PUSH2 0x1A8E JUMPI DUP1 PUSH4 0x560D52D4 EQ PUSH2 0x1A72 JUMPI DUP1 PUSH4 0x5C975ABB EQ PUSH2 0x1A4F JUMPI DUP1 PUSH4 0x65E481E2 EQ PUSH2 0x164D JUMPI DUP1 PUSH4 0x681A06D7 EQ PUSH2 0x162F JUMPI DUP1 PUSH4 0x6F9253CA EQ PUSH2 0x1544 JUMPI DUP1 PUSH4 0x70A08231 EQ PUSH2 0x150A JUMPI DUP1 PUSH4 0x715018A6 EQ PUSH2 0x14AD JUMPI DUP1 PUSH4 0x79CC6790 EQ PUSH2 0x147D JUMPI DUP1 PUSH4 0x7FF9B596 EQ PUSH2 0x145F JUMPI DUP1 PUSH4 0x8401F8D1 EQ PUSH2 0x131D JUMPI DUP1 PUSH4 0x8456CB59 EQ PUSH2 0x12CB JUMPI DUP1 PUSH4 0x85A6B3AE EQ PUSH2 0x12AD JUMPI DUP1 PUSH4 0x8AB1D681 EQ PUSH2 0x11F3 JUMPI DUP1 PUSH4 0x8DA5CB5B EQ PUSH2 0x11CA JUMPI DUP1 PUSH4 0x95D89B41 EQ PUSH2 0x10E8 JUMPI DUP1 PUSH4 0x960524E3 EQ PUSH2 0x10CA JUMPI DUP1 PUSH4 0xA9059CBB EQ PUSH2 0x1099 JUMPI DUP1 PUSH4 0xB1610D7E EQ PUSH2 0x107B JUMPI DUP1 PUSH4 0xBA4E5C49 EQ PUSH2 0x1020 JUMPI DUP1 PUSH4 0xC9D27AFE EQ PUSH2 0xE49 JUMPI DUP1 PUSH4 0xD0A2F2C4 EQ PUSH2 0xD81 JUMPI DUP1 PUSH4 0xD0FEBE4C EQ PUSH2 0x97F JUMPI DUP1 PUSH4 0xDA35C664 EQ PUSH2 0x961 JUMPI DUP1 PUSH4 0xDD62ED3E EQ PUSH2 0x910 JUMPI DUP1 PUSH4 0xE43252D7 EQ PUSH2 0x809 JUMPI DUP1 PUSH4 0xE9754908 EQ PUSH2 0x5C9 JUMPI DUP1 PUSH4 0xED0EA003 EQ PUSH2 0x58F JUMPI DUP1 PUSH4 0xF16C7BDE EQ PUSH2 0x377 JUMPI DUP1 PUSH4 0xF2FDE38B EQ PUSH2 0x2E9 JUMPI DUP1 PUSH4 0xFA2AF9DA EQ PUSH2 0x2C0 JUMPI DUP1 PUSH4 0xFB897CE4 EQ PUSH2 0x23C JUMPI PUSH4 0xFDB20CCB SUB PUSH2 0xE JUMPI JUMPDEST CALLVALUE PUSH2 0x2BB JUMPI PUSH1 0x20 CALLDATASIZE PUSH1 0x3 NOT ADD SLT PUSH2 0x2BB JUMPI PUSH1 0x1 PUSH1 0x1 PUSH1 0xA0 SHL SUB PUSH2 0x25D PUSH2 0x2B94 JUMP JUMPDEST AND PUSH1 0x0 MSTORE PUSH1 0x12 PUSH1 0x20 MSTORE PUSH1 0x40 PUSH1 0x0 KECCAK256 DUP1 SLOAD PUSH2 0x2B7 PUSH1 0x1 DUP4 ADD SLOAD SWAP3 PUSH1 0x2 DUP2 ADD SLOAD SWAP1 PUSH1 0xFF PUSH1 0x4 PUSH1 0x3 DUP4 ADD SLOAD SWAP3 ADD SLOAD AND SWAP2 PUSH1 0x40 MLOAD SWAP6 DUP7 SWAP6 DUP7 SWAP4 SWAP1 SWAP6 SWAP5 SWAP2 SWAP3 PUSH1 0x80 SWAP4 PUSH1 0xA0 DUP7 ADD SWAP8 DUP7 MSTORE PUSH1 0x20 DUP7 ADD MSTORE PUSH1 0x40 DUP6 ADD MSTORE PUSH1 0x60 DUP5 ADD MSTORE ISZERO ISZERO SWAP2 ADD MSTORE JUMP JUMPDEST SUB SWAP1 RETURN JUMPDEST PUSH1 0x0 DUP1 REVERT JUMPDEST CALLVALUE PUSH2 0x2BB JUMPI PUSH1 0x0 CALLDATASIZE PUSH1 0x3 NOT ADD SLT PUSH2 0x2BB JUMPI PUSH1 0x19 SLOAD PUSH1 0x40 MLOAD PUSH1 0x1 PUSH1 0x1 PUSH1 0xA0 SHL SUB SWAP1 SWAP2 AND DUP2 MSTORE PUSH1 0x20 SWAP1 RETURN JUMPDEST CALLVALUE PUSH2 0x2BB JUMPI PUSH1 0x20 CALLDATASIZE PUSH1 0x3 NOT ADD SLT PUSH2 0x2BB JUMPI PUSH2 0x302 PUSH2 0x2B94 JUMP JUMPDEST PUSH2 0x30A PUSH2 0x2C3B JUMP JUMPDEST PUSH1 0x1 PUSH1 0x1 PUSH1 0xA0 SHL SUB SWAP1 DUP2 AND SWAP1 DUP2 ISZERO PUSH2 0x35E JUMPI PUSH1 0x5 SLOAD DUP3 PUSH12 0xFFFFFFFFFFFFFFFFFFFFFFFF PUSH1 0xA0 SHL DUP3 AND OR PUSH1 0x5 SSTORE AND PUSH32 0x8BE0079C531659141344CD1FD0A4F28419497F9722A3DAAFE3B4186F6B6457E0 PUSH1 0x0 DUP1 LOG3 STOP JUMPDEST PUSH1 0x40 MLOAD PUSH4 0x1E4FBDF7 PUSH1 0xE0 SHL DUP2 MSTORE PUSH1 0x0 PUSH1 0x4 DUP3 ADD MSTORE PUSH1 0x24 SWAP1 REVERT JUMPDEST CALLVALUE PUSH2 0x2BB JUMPI PUSH1 0x20 DUP1 PUSH1 0x3 NOT CALLDATASIZE ADD SLT PUSH2 0x2BB JUMPI PUSH8 0xFFFFFFFFFFFFFFFF PUSH1 0x4 CALLDATALOAD DUP2 DUP2 GT PUSH2 0x2BB JUMPI PUSH2 0x3AA SWAP1 CALLDATASIZE SWAP1 PUSH1 0x4 ADD PUSH2 0x2C0D JUMP JUMPDEST PUSH2 0x3B5 SWAP4 SWAP2 SWAP4 PUSH2 0x2C3B JUMP JUMPDEST PUSH2 0x3BD PUSH2 0x2A17 JUMP JUMPDEST SWAP3 DUP2 GT PUSH2 0x579 JUMPI PUSH2 0x3CF PUSH1 0xE SLOAD PUSH2 0x2732 JUMP JUMPDEST PUSH1 0x1F DUP2 GT PUSH2 0x515 JUMPI JUMPDEST POP PUSH1 0x0 PUSH1 0x1F DUP3 GT PUSH1 0x1 EQ PUSH2 0x467 JUMPI SWAP2 DUP2 PUSH32 0xAB68A2A0C9441DAD3292E2B58F8E25BB256BB258781684679701A4B2ACF52C1 SWAP6 PUSH2 0x451 SWAP4 PUSH2 0x444 SWAP7 SWAP6 PUSH1 0x0 SWAP2 PUSH2 0x45C JUMPI JUMPDEST POP DUP3 PUSH1 0x1 SHL SWAP1 PUSH1 0x0 NOT DUP5 PUSH1 0x3 SHL SHR NOT AND OR PUSH1 0xE SSTORE JUMPDEST PUSH1 0x40 MLOAD SWAP6 DUP7 SWAP6 PUSH1 0x60 DUP8 MSTORE PUSH1 0x60 DUP8 ADD SWAP1 PUSH2 0x2B54 JUMP JUMPDEST SWAP3 DUP6 DUP5 SUB SWAP1 DUP7 ADD MSTORE PUSH2 0x3203 JUMP JUMPDEST TIMESTAMP PUSH1 0x40 DUP4 ADD MSTORE SUB SWAP1 LOG1 STOP JUMPDEST SWAP1 POP DUP2 ADD CALLDATALOAD DUP9 PUSH2 0x41B JUMP JUMPDEST PUSH1 0x1F NOT DUP3 AND SWAP1 PUSH1 0xE PUSH1 0x0 MSTORE PUSH32 0xBB7B4A454DC3493923482F07822329ED19E8244EFF582CC204F8554C3620C3FD SWAP2 PUSH1 0x0 JUMPDEST DUP2 DUP2 LT PUSH2 0x4FE JUMPI POP SWAP6 PUSH2 0x444 SWAP6 SWAP5 SWAP3 DUP5 SWAP3 PUSH2 0x451 SWAP6 PUSH32 0xAB68A2A0C9441DAD3292E2B58F8E25BB256BB258781684679701A4B2ACF52C1 SWAP10 LT PUSH2 0x4E4 JUMPI JUMPDEST POP POP PUSH1 0x1 DUP3 DUP2 SHL ADD PUSH1 0xE SSTORE PUSH2 0x430 JUMP JUMPDEST DUP3 ADD CALLDATALOAD PUSH1 0x0 NOT PUSH1 0x3 DUP6 SWAP1 SHL PUSH1 0xF8 AND SHR NOT AND SWAP1 SSTORE DUP8 DUP1 PUSH2 0x4D4 JUMP JUMPDEST SWAP2 SWAP3 DUP6 PUSH1 0x1 DUP2 SWAP3 DUP7 DUP12 ADD CALLDATALOAD DUP2 SSTORE ADD SWAP5 ADD SWAP3 ADD PUSH2 0x497 JUMP JUMPDEST PUSH1 0xE PUSH1 0x0 MSTORE PUSH32 0xBB7B4A454DC3493923482F07822329ED19E8244EFF582CC204F8554C3620C3FD PUSH1 0x1F DUP4 ADD PUSH1 0x5 SHR DUP2 ADD SWAP2 DUP5 DUP5 LT PUSH2 0x56F JUMPI JUMPDEST PUSH1 0x1F ADD PUSH1 0x5 SHR ADD SWAP1 JUMPDEST DUP2 DUP2 LT PUSH2 0x563 JUMPI POP PUSH2 0x3D8 JUMP JUMPDEST PUSH1 0x0 DUP2 SSTORE PUSH1 0x1 ADD PUSH2 0x556 JUMP JUMPDEST SWAP1 SWAP2 POP DUP2 SWAP1 PUSH2 0x54D JUMP JUMPDEST PUSH4 0x4E487B71 PUSH1 0xE0 SHL PUSH1 0x0 MSTORE PUSH1 0x41 PUSH1 0x4 MSTORE PUSH1 0x24 PUSH1 0x0 REVERT JUMPDEST CALLVALUE PUSH2 0x2BB JUMPI PUSH1 0x20 CALLDATASIZE PUSH1 0x3 NOT ADD SLT PUSH2 0x2BB JUMPI PUSH1 0x1 PUSH1 0x1 PUSH1 0xA0 SHL SUB PUSH2 0x5B0 PUSH2 0x2B94 JUMP JUMPDEST AND PUSH1 0x0 MSTORE PUSH1 0x17 PUSH1 0x20 MSTORE PUSH1 0x20 PUSH1 0x40 PUSH1 0x0 KECCAK256 SLOAD PUSH1 0x40 MLOAD SWAP1 DUP2 MSTORE RETURN JUMPDEST CALLVALUE PUSH2 0x2BB JUMPI PUSH1 0x60 CALLDATASIZE PUSH1 0x3 NOT ADD SLT PUSH2 0x2BB JUMPI PUSH2 0x5E2 PUSH2 0x2B94 JUMP JUMPDEST PUSH1 0x24 SWAP1 DUP2 CALLDATALOAD PUSH1 0x44 CALLDATALOAD SWAP2 PUSH2 0x5F3 PUSH2 0x2C3B JUMP JUMPDEST PUSH1 0x1 PUSH1 0x1 PUSH1 0xA0 SHL SUB AND SWAP2 DUP3 ISZERO PUSH2 0x7CF JUMPI DUP2 ISZERO PUSH2 0x78B JUMPI DUP1 ISZERO PUSH2 0x747 JUMPI DUP3 PUSH1 0x0 MSTORE PUSH1 0x12 PUSH1 0x20 MSTORE PUSH1 0xFF PUSH1 0x4 PUSH1 0x40 PUSH1 0x0 KECCAK256 ADD SLOAD AND PUSH2 0x70A JUMPI PUSH2 0x632 DUP3 ADDRESS PUSH2 0x3175 JUMP JUMPDEST PUSH1 0x40 MLOAD PUSH1 0xA0 DUP2 ADD DUP2 DUP2 LT PUSH8 0xFFFFFFFFFFFFFFFF DUP3 GT OR PUSH2 0x6F5 JUMPI PUSH32 0xD6C6184269AAB4C45EAECC5CC21DA2C4BC93CF48439A2AEA39245D8E66E3D1B SWAP5 SWAP6 POP PUSH1 0x40 MSTORE DUP3 DUP2 MSTORE PUSH1 0x4 PUSH1 0x20 DUP3 ADD SWAP2 PUSH1 0x0 DUP4 MSTORE PUSH1 0x40 DUP2 ADD TIMESTAMP DUP2 MSTORE PUSH1 0x60 DUP3 ADD SWAP1 DUP6 DUP3 MSTORE PUSH1 0x80 DUP4 ADD SWAP5 PUSH1 0x1 DUP7 MSTORE DUP10 PUSH1 0x0 MSTORE PUSH1 0x12 PUSH1 0x20 MSTORE PUSH1 0x40 PUSH1 0x0 KECCAK256 SWAP4 MLOAD DUP5 SSTORE MLOAD PUSH1 0x1 DUP5 ADD SSTORE MLOAD PUSH1 0x2 DUP4 ADD SSTORE MLOAD PUSH1 0x3 DUP3 ADD SSTORE ADD SWAP1 MLOAD ISZERO ISZERO PUSH1 0xFF DUP1 NOT DUP4 SLOAD AND SWAP2 AND OR SWAP1 SSTORE PUSH2 0x6F0 PUSH1 0x40 MLOAD SWAP3 DUP4 SWAP3 TIMESTAMP SWAP2 DUP5 PUSH1 0x40 SWAP2 SWAP5 SWAP4 SWAP3 PUSH1 0x60 DUP3 ADD SWAP6 DUP3 MSTORE PUSH1 0x20 DUP3 ADD MSTORE ADD MSTORE JUMP JUMPDEST SUB SWAP1 LOG2 STOP JUMPDEST DUP6 PUSH4 0x4E487B71 PUSH1 0xE0 SHL PUSH1 0x0 MSTORE PUSH1 0x41 PUSH1 0x4 MSTORE PUSH1 0x0 REVERT JUMPDEST PUSH1 0x40 MLOAD PUSH3 0x461BCD PUSH1 0xE5 SHL DUP2 MSTORE PUSH1 0x20 PUSH1 0x4 DUP3 ADD MSTORE PUSH1 0x16 DUP2 DUP7 ADD MSTORE PUSH22 0x56657374696E6720616C726561647920657869737473 PUSH1 0x50 SHL PUSH1 0x44 DUP3 ADD MSTORE PUSH1 0x64 SWAP1 REVERT JUMPDEST PUSH1 0x40 MLOAD PUSH3 0x461BCD PUSH1 0xE5 SHL DUP2 MSTORE PUSH1 0x20 PUSH1 0x4 DUP3 ADD MSTORE PUSH1 0x1F DUP2 DUP7 ADD MSTORE PUSH32 0x4475726174696F6E206D7573742062652067726561746572207468616E203000 PUSH1 0x44 DUP3 ADD MSTORE PUSH1 0x64 SWAP1 REVERT JUMPDEST PUSH1 0x40 MLOAD PUSH3 0x461BCD PUSH1 0xE5 SHL DUP2 MSTORE PUSH1 0x20 PUSH1 0x4 DUP3 ADD MSTORE PUSH1 0x1D DUP2 DUP7 ADD MSTORE PUSH32 0x416D6F756E74206D7573742062652067726561746572207468616E2030000000 PUSH1 0x44 DUP3 ADD MSTORE PUSH1 0x64 SWAP1 REVERT JUMPDEST PUSH1 0x40 MLOAD PUSH3 0x461BCD PUSH1 0xE5 SHL DUP2 MSTORE PUSH1 0x20 PUSH1 0x4 DUP3 ADD MSTORE PUSH1 0x13 DUP2 DUP7 ADD MSTORE PUSH19 0x496E76616C69642062656E6566696369617279 PUSH1 0x68 SHL PUSH1 0x44 DUP3 ADD MSTORE PUSH1 0x64 SWAP1 REVERT JUMPDEST CALLVALUE PUSH2 0x2BB JUMPI PUSH1 0x20 DUP1 PUSH1 0x3 NOT CALLDATASIZE ADD SLT PUSH2 0x2BB JUMPI PUSH2 0x823 PUSH2 0x2B94 JUMP JUMPDEST SWAP1 PUSH2 0x82C PUSH2 0x2C3B JUMP JUMPDEST PUSH1 0x1 PUSH1 0x1 PUSH1 0xA0 SHL SUB DUP3 AND SWAP2 DUP3 ISZERO PUSH2 0x8D9 JUMPI DUP3 PUSH1 0x0 MSTORE PUSH1 0x10 DUP3 MSTORE PUSH1 0xFF PUSH1 0x40 PUSH1 0x0 KECCAK256 SLOAD AND PUSH2 0x89E JUMPI SWAP1 PUSH2 0x895 PUSH32 0x9E7D0F5D43A24B4D4C902AEDB948402E36B92B6935667FC2CB3DA1C14347655F SWAP3 DUP5 PUSH1 0x0 MSTORE PUSH1 0x10 DUP4 MSTORE PUSH1 0x40 PUSH1 0x0 KECCAK256 PUSH1 0x1 PUSH1 0xFF NOT DUP3 SLOAD AND OR SWAP1 SSTORE PUSH2 0x2FC4 JUMP JUMPDEST PUSH1 0x40 MLOAD TIMESTAMP DUP2 MSTORE LOG2 STOP JUMPDEST PUSH1 0x40 MLOAD PUSH3 0x461BCD PUSH1 0xE5 SHL DUP2 MSTORE PUSH1 0x4 DUP2 ADD DUP4 SWAP1 MSTORE PUSH1 0x13 PUSH1 0x24 DUP3 ADD MSTORE PUSH19 0x105B1C9958591E481DDA1A5D195B1A5CDD1959 PUSH1 0x6A SHL PUSH1 0x44 DUP3 ADD MSTORE PUSH1 0x64 SWAP1 REVERT JUMPDEST PUSH1 0x40 MLOAD PUSH3 0x461BCD PUSH1 0xE5 SHL DUP2 MSTORE PUSH1 0x4 DUP2 ADD DUP4 SWAP1 MSTORE PUSH1 0xF PUSH1 0x24 DUP3 ADD MSTORE PUSH15 0x496E76616C69642061646472657373 PUSH1 0x88 SHL PUSH1 0x44 DUP3 ADD MSTORE PUSH1 0x64 SWAP1 REVERT JUMPDEST CALLVALUE PUSH2 0x2BB JUMPI PUSH1 0x40 CALLDATASIZE PUSH1 0x3 NOT ADD SLT PUSH2 0x2BB JUMPI PUSH2 0x929 PUSH2 0x2B94 JUMP JUMPDEST PUSH2 0x931 PUSH2 0x2BAA JUMP JUMPDEST SWAP1 PUSH1 0x1 DUP1 PUSH1 0xA0 SHL SUB DUP1 SWAP2 AND PUSH1 0x0 MSTORE PUSH1 0x1 PUSH1 0x20 MSTORE PUSH1 0x40 PUSH1 0x0 KECCAK256 SWAP2 AND PUSH1 0x0 MSTORE PUSH1 0x20 MSTORE PUSH1 0x20 PUSH1 0x40 PUSH1 0x0 KECCAK256 SLOAD PUSH1 0x40 MLOAD SWAP1 DUP2 MSTORE RETURN JUMPDEST CALLVALUE PUSH2 0x2BB JUMPI PUSH1 0x0 CALLDATASIZE PUSH1 0x3 NOT ADD SLT PUSH2 0x2BB JUMPI PUSH1 0x20 PUSH1 0x13 SLOAD PUSH1 0x40 MLOAD SWAP1 DUP2 MSTORE RETURN JUMPDEST PUSH1 0x0 CALLDATASIZE PUSH1 0x3 NOT ADD SLT PUSH2 0x2BB JUMPI PUSH2 0x99A PUSH1 0xFF PUSH1 0x1B SLOAD AND ISZERO PUSH2 0x305B JUMP JUMPDEST CALLER PUSH1 0x0 MSTORE PUSH1 0x20 PUSH1 0x10 DUP2 MSTORE PUSH2 0x9B5 PUSH1 0xFF PUSH1 0x40 PUSH1 0x0 KECCAK256 SLOAD AND PUSH2 0x309C JUMP JUMPDEST PUSH1 0xF SLOAD PUSH1 0xFF DUP2 AND ISZERO PUSH2 0xD3C JUMPI PUSH1 0x10 SHR PUSH1 0xFF AND PUSH2 0xCF8 JUMPI PUSH2 0x9D3 PUSH2 0x31D3 JUMP JUMPDEST CALLVALUE ISZERO PUSH2 0xCB4 JUMPI PUSH1 0x1A SLOAD DUP1 CALLVALUE LT PUSH2 0xC6F JUMPI PUSH8 0xDE0B6B3A7640000 SWAP1 DUP2 CALLVALUE MUL SWAP2 CALLVALUE DUP4 DIV SUB PUSH2 0xBDB JUMPI PUSH2 0xA02 SWAP2 PUSH2 0x30FB JUMP JUMPDEST DUP1 ISZERO PUSH2 0xC31 JUMPI CALLER PUSH1 0x0 MSTORE PUSH1 0x17 DUP3 MSTORE PUSH1 0x40 PUSH1 0x0 KECCAK256 SLOAD ISZERO PUSH2 0xBF1 JUMPI JUMPDEST CALLER PUSH1 0x0 MSTORE PUSH1 0x17 DUP3 MSTORE PUSH1 0x40 PUSH1 0x0 KECCAK256 PUSH2 0xA34 CALLVALUE DUP3 SLOAD PUSH2 0x311B JUMP JUMPDEST SWAP1 SSTORE PUSH2 0xA42 CALLVALUE PUSH1 0xC SLOAD PUSH2 0x311B JUMP JUMPDEST PUSH1 0xC SSTORE PUSH2 0xA4F DUP2 CALLER PUSH2 0x3175 JUMP JUMPDEST PUSH1 0x40 DUP1 MLOAD SWAP2 DUP3 MSTORE CALLVALUE PUSH1 0x20 DUP4 ADD MSTORE TIMESTAMP SWAP1 DUP3 ADD MSTORE CALLER SWAP1 PUSH32 0xD1A0D5E3D583A0E92588799DD06E50FD78C07DAF05F0CC06D7B848B1CA445F1 SWAP1 PUSH1 0x60 SWAP1 LOG2 PUSH1 0xC SLOAD PUSH1 0xA SLOAD DUP2 LT ISZERO PUSH2 0xAAB JUMPI JUMPDEST PUSH1 0x1 PUSH1 0x0 DUP1 MLOAD PUSH1 0x20 PUSH2 0x3271 DUP4 CODECOPY DUP2 MLOAD SWAP2 MSTORE SSTORE STOP JUMPDEST PUSH2 0x100 PUSH2 0xFFFF NOT PUSH1 0xF SLOAD AND OR PUSH1 0xF SSTORE DUP1 PUSH1 0x1 SHL DUP2 DUP2 DIV PUSH1 0x2 EQ DUP3 ISZERO OR ISZERO PUSH2 0xBDB JUMPI PUSH1 0x64 PUSH2 0xADA SWAP2 DIV DUP1 SWAP3 PUSH2 0x3128 JUMP JUMPDEST SWAP1 PUSH1 0x0 DUP1 DUP1 DUP1 PUSH1 0x1 DUP1 PUSH1 0xA0 SHL SUB SWAP5 DUP6 PUSH1 0x19 SLOAD AND GAS CALL PUSH2 0xAF7 PUSH2 0x3135 JUMP JUMPDEST POP ISZERO PUSH2 0xB96 JUMPI PUSH1 0x0 DUP1 DUP1 SWAP4 DUP2 SWAP4 PUSH1 0x5 SLOAD AND GAS CALL PUSH2 0xB12 PUSH2 0x3135 JUMP JUMPDEST POP ISZERO PUSH2 0xB52 JUMPI PUSH1 0x40 PUSH32 0xE4DC16964C311ED7145DB4C608966113583FADB91A939BC8037D1B05BF62B837 SWAP2 PUSH1 0xC SLOAD SWAP1 DUP3 MLOAD SWAP2 DUP3 MSTORE TIMESTAMP SWAP1 DUP3 ADD MSTORE LOG1 DUP1 DUP1 PUSH2 0xA97 JUMP JUMPDEST PUSH1 0x64 SWAP1 PUSH1 0x40 MLOAD SWAP1 PUSH3 0x461BCD PUSH1 0xE5 SHL DUP3 MSTORE PUSH1 0x4 DUP3 ADD MSTORE PUSH1 0x17 PUSH1 0x24 DUP3 ADD MSTORE PUSH32 0x466F756E646572207472616E73666572206661696C6564000000000000000000 PUSH1 0x44 DUP3 ADD MSTORE REVERT JUMPDEST PUSH1 0x40 MLOAD PUSH3 0x461BCD PUSH1 0xE5 SHL DUP2 MSTORE PUSH1 0x4 DUP2 ADD DUP5 SWAP1 MSTORE PUSH1 0x1C PUSH1 0x24 DUP3 ADD MSTORE PUSH32 0x506C6174666F726D20666565207472616E73666572206661696C656400000000 PUSH1 0x44 DUP3 ADD MSTORE PUSH1 0x64 SWAP1 REVERT JUMPDEST PUSH4 0x4E487B71 PUSH1 0xE0 SHL PUSH1 0x0 MSTORE PUSH1 0x11 PUSH1 0x4 MSTORE PUSH1 0x24 PUSH1 0x0 REVERT JUMPDEST PUSH1 0x18 SLOAD PUSH1 0x1 PUSH1 0x40 SHL DUP2 LT ISZERO PUSH2 0x579 JUMPI DUP1 PUSH1 0x1 PUSH2 0xC10 SWAP3 ADD PUSH1 0x18 SSTORE PUSH2 0x2BC0 JUMP JUMPDEST DUP2 SLOAD PUSH1 0x1 PUSH1 0x1 PUSH1 0xA0 SHL SUB PUSH1 0x3 SWAP3 SWAP1 SWAP3 SHL SWAP2 DUP3 SHL NOT AND CALLER SWAP1 SWAP2 SHL OR SWAP1 SSTORE PUSH2 0xA1C JUMP JUMPDEST PUSH1 0x40 MLOAD PUSH3 0x461BCD PUSH1 0xE5 SHL DUP2 MSTORE PUSH1 0x4 DUP2 ADD DUP4 SWAP1 MSTORE PUSH1 0x16 PUSH1 0x24 DUP3 ADD MSTORE PUSH22 0x151BDAD95B88185B5BDD5B9D081D1BDBC81CDB585B1B PUSH1 0x52 SHL PUSH1 0x44 DUP3 ADD MSTORE PUSH1 0x64 SWAP1 REVERT JUMPDEST PUSH1 0x40 MLOAD PUSH3 0x461BCD PUSH1 0xE5 SHL DUP2 MSTORE PUSH1 0x4 DUP2 ADD DUP4 SWAP1 MSTORE PUSH1 0x1B PUSH1 0x24 DUP3 ADD MSTORE PUSH32 0x4D696E696D756D207075726368617365206973203120746F6B656E0000000000 PUSH1 0x44 DUP3 ADD MSTORE PUSH1 0x64 SWAP1 REVERT JUMPDEST PUSH1 0x64 SWAP1 PUSH1 0x40 MLOAD SWAP1 PUSH3 0x461BCD PUSH1 0xE5 SHL DUP3 MSTORE PUSH1 0x4 DUP3 ADD MSTORE PUSH1 0x1D PUSH1 0x24 DUP3 ADD MSTORE PUSH32 0x4D7573742073656E64204D4154494320746F2062757920746F6B656E73000000 PUSH1 0x44 DUP3 ADD MSTORE REVERT JUMPDEST PUSH1 0x64 SWAP1 PUSH1 0x40 MLOAD SWAP1 PUSH3 0x461BCD PUSH1 0xE5 SHL DUP3 MSTORE PUSH1 0x4 DUP3 ADD MSTORE PUSH1 0x19 PUSH1 0x24 DUP3 ADD MSTORE PUSH32 0x50726F6A65637420686173206265656E20726566756E64656400000000000000 PUSH1 0x44 DUP3 ADD MSTORE REVERT JUMPDEST PUSH1 0x40 MLOAD PUSH3 0x461BCD PUSH1 0xE5 SHL DUP2 MSTORE PUSH1 0x4 DUP2 ADD DUP4 SWAP1 MSTORE PUSH1 0x19 PUSH1 0x24 DUP3 ADD MSTORE PUSH32 0x46756E6472616973696E67206973206E6F742061637469766500000000000000 PUSH1 0x44 DUP3 ADD MSTORE PUSH1 0x64 SWAP1 REVERT JUMPDEST CALLVALUE PUSH2 0x2BB JUMPI PUSH1 0x0 CALLDATASIZE PUSH1 0x3 NOT ADD SLT PUSH2 0x2BB JUMPI PUSH1 0x40 MLOAD DUP1 PUSH1 0x18 SLOAD DUP1 DUP4 MSTORE PUSH1 0x20 DUP1 SWAP4 ADD DUP1 SWAP2 PUSH1 0x18 PUSH1 0x0 MSTORE PUSH32 0xB13D2D76D1F4B7BE834882E410B3E3A8AFAF69F83600AE24DB354391D2378D2E SWAP1 PUSH1 0x0 JUMPDEST DUP7 DUP3 DUP3 LT PUSH2 0xE2C JUMPI DUP7 DUP7 PUSH2 0xDE3 DUP3 DUP9 SUB DUP4 PUSH2 0x276C JUMP JUMPDEST PUSH1 0x40 MLOAD SWAP3 DUP4 SWAP3 DUP2 DUP5 ADD SWAP1 DUP3 DUP6 MSTORE MLOAD DUP1 SWAP2 MSTORE PUSH1 0x40 DUP5 ADD SWAP3 SWAP2 PUSH1 0x0 JUMPDEST DUP3 DUP2 LT PUSH2 0xE0C JUMPI POP POP POP POP SUB SWAP1 RETURN JUMPDEST DUP4 MLOAD PUSH1 0x1 PUSH1 0x1 PUSH1 0xA0 SHL SUB AND DUP6 MSTORE DUP7 SWAP6 POP SWAP4 DUP2 ADD SWAP4 SWAP3 DUP2 ADD SWAP3 PUSH1 0x1 ADD PUSH2 0xDFD JUMP JUMPDEST DUP4 SLOAD PUSH1 0x1 PUSH1 0x1 PUSH1 0xA0 SHL SUB AND DUP6 MSTORE SWAP1 SWAP4 ADD SWAP3 PUSH1 0x1 SWAP3 DUP4 ADD SWAP3 ADD PUSH2 0xDCD JUMP JUMPDEST CALLVALUE PUSH2 0x2BB JUMPI PUSH1 0x40 CALLDATASIZE PUSH1 0x3 NOT ADD SLT PUSH2 0x2BB JUMPI PUSH1 0x4 CALLDATALOAD PUSH1 0x24 CALLDATALOAD SWAP1 DUP2 ISZERO ISZERO SWAP2 DUP3 DUP2 SUB PUSH2 0x2BB JUMPI PUSH2 0xE7B PUSH1 0xFF PUSH1 0x1B SLOAD AND ISZERO PUSH2 0x305B JUMP JUMPDEST CALLER PUSH1 0x0 MSTORE PUSH1 0x20 PUSH1 0x10 DUP2 MSTORE PUSH2 0xE96 PUSH1 0xFF PUSH1 0x40 PUSH1 0x0 KECCAK256 SLOAD AND PUSH2 0x309C JUMP JUMPDEST DUP3 PUSH1 0x0 MSTORE PUSH1 0x14 DUP2 MSTORE PUSH1 0x40 PUSH1 0x0 KECCAK256 PUSH2 0xEAF DUP2 SLOAD ISZERO ISZERO PUSH2 0x3224 JUMP JUMPDEST PUSH1 0x7 DUP2 ADD SLOAD TIMESTAMP GT PUSH2 0xFE5 JUMPI PUSH1 0x9 DUP2 ADD SWAP3 CALLER PUSH1 0x0 MSTORE DUP4 DUP4 MSTORE PUSH1 0xFF PUSH1 0x40 PUSH1 0x0 KECCAK256 SLOAD AND PUSH2 0xFB0 JUMPI CALLER PUSH1 0x0 MSTORE PUSH1 0x0 DUP4 MSTORE PUSH1 0x40 PUSH1 0x0 KECCAK256 SLOAD ISZERO PUSH2 0xF6B JUMPI CALLER PUSH1 0x0 MSTORE PUSH1 0x0 DUP4 MSTORE PUSH1 0x40 PUSH1 0x0 KECCAK256 SLOAD SWAP4 DUP4 MSTORE PUSH1 0x40 PUSH1 0x0 KECCAK256 PUSH1 0x1 PUSH1 0xFF NOT DUP3 SLOAD AND OR SWAP1 SSTORE PUSH1 0x0 EQ PUSH2 0xF56 JUMPI PUSH1 0x4 ADD PUSH2 0xF1C DUP4 DUP3 SLOAD PUSH2 0x311B JUMP JUMPDEST SWAP1 SSTORE JUMPDEST PUSH1 0x40 MLOAD SWAP4 DUP5 MSTORE DUP4 ADD MSTORE TIMESTAMP PUSH1 0x40 DUP4 ADD MSTORE PUSH32 0x77A255F45C79D26605C257D8DFC37F9A619F53963DDBED1E95AA0AAB1C801CEE PUSH1 0x60 CALLER SWAP4 LOG3 STOP JUMPDEST PUSH1 0x5 ADD PUSH2 0xF64 DUP4 DUP3 SLOAD PUSH2 0x311B JUMP JUMPDEST SWAP1 SSTORE PUSH2 0xF1F JUMP JUMPDEST PUSH1 0x40 MLOAD PUSH3 0x461BCD PUSH1 0xE5 SHL DUP2 MSTORE PUSH1 0x4 DUP2 ADD DUP5 SWAP1 MSTORE PUSH1 0x18 PUSH1 0x24 DUP3 ADD MSTORE PUSH32 0x4D75737420686F6C6420746F6B656E7320746F20766F74650000000000000000 PUSH1 0x44 DUP3 ADD MSTORE PUSH1 0x64 SWAP1 REVERT JUMPDEST PUSH1 0x40 MLOAD PUSH3 0x461BCD PUSH1 0xE5 SHL DUP2 MSTORE PUSH1 0x4 DUP2 ADD DUP5 SWAP1 MSTORE PUSH1 0xD PUSH1 0x24 DUP3 ADD MSTORE PUSH13 0x105B1C9958591E481D9BDD1959 PUSH1 0x9A SHL PUSH1 0x44 DUP3 ADD MSTORE PUSH1 0x64 SWAP1 REVERT JUMPDEST PUSH1 0x40 MLOAD PUSH3 0x461BCD PUSH1 0xE5 SHL DUP2 MSTORE PUSH1 0x4 DUP2 ADD DUP4 SWAP1 MSTORE PUSH1 0x13 PUSH1 0x24 DUP3 ADD MSTORE PUSH19 0x159BDD1A5B99C81C195C9A5BD908195B991959 PUSH1 0x6A SHL PUSH1 0x44 DUP3 ADD MSTORE PUSH1 0x64 SWAP1 REVERT JUMPDEST CALLVALUE PUSH2 0x2BB JUMPI PUSH1 0x20 CALLDATASIZE PUSH1 0x3 NOT ADD SLT PUSH2 0x2BB JUMPI PUSH1 0x4 CALLDATALOAD PUSH1 0x11 SLOAD DUP2 LT ISZERO PUSH2 0x2BB JUMPI PUSH1 0x11 PUSH1 0x0 MSTORE PUSH32 0x31ECC21A745E3968A04E9570E4425BC18FA8019C68028196B546D1669C200C68 ADD SLOAD PUSH1 0x40 MLOAD PUSH1 0x1 PUSH1 0x1 PUSH1 0xA0 SHL SUB SWAP1 SWAP2 AND DUP2 MSTORE PUSH1 0x20 SWAP1 RETURN JUMPDEST CALLVALUE PUSH2 0x2BB JUMPI PUSH1 0x0 CALLDATASIZE PUSH1 0x3 NOT ADD SLT PUSH2 0x2BB JUMPI PUSH1 0x20 PUSH1 0x40 MLOAD PUSH3 0x3F480 DUP2 MSTORE RETURN JUMPDEST CALLVALUE PUSH2 0x2BB JUMPI PUSH1 0x40 CALLDATASIZE PUSH1 0x3 NOT ADD SLT PUSH2 0x2BB JUMPI PUSH2 0x10BF PUSH2 0x10B5 PUSH2 0x2B94 JUMP JUMPDEST PUSH1 0x24 CALLDATALOAD SWAP1 CALLER PUSH2 0x2C67 JUMP JUMPDEST PUSH1 0x20 PUSH1 0x40 MLOAD PUSH1 0x1 DUP2 MSTORE RETURN JUMPDEST CALLVALUE PUSH2 0x2BB JUMPI PUSH1 0x0 CALLDATASIZE PUSH1 0x3 NOT ADD SLT PUSH2 0x2BB JUMPI PUSH1 0x20 PUSH1 0x18 SLOAD PUSH1 0x40 MLOAD SWAP1 DUP2 MSTORE RETURN JUMPDEST CALLVALUE PUSH2 0x2BB JUMPI PUSH1 0x0 CALLDATASIZE PUSH1 0x3 NOT ADD SLT PUSH2 0x2BB JUMPI PUSH1 0x40 MLOAD PUSH1 0x0 PUSH1 0x4 SLOAD PUSH2 0x110A DUP2 PUSH2 0x2732 JUMP JUMPDEST DUP1 DUP5 MSTORE SWAP1 PUSH1 0x1 SWAP1 DUP2 DUP2 AND SWAP1 DUP2 ISZERO PUSH2 0x11A3 JUMPI POP PUSH1 0x1 EQ PUSH2 0x1148 JUMPI JUMPDEST PUSH2 0x2B7 DUP5 PUSH2 0x1134 DUP2 DUP7 SUB DUP3 PUSH2 0x276C JUMP JUMPDEST PUSH1 0x40 MLOAD SWAP2 DUP3 SWAP2 PUSH1 0x20 DUP4 MSTORE PUSH1 0x20 DUP4 ADD SWAP1 PUSH2 0x2B54 JUMP JUMPDEST PUSH1 0x4 PUSH1 0x0 SWAP1 DUP2 MSTORE SWAP3 POP PUSH32 0x8A35ACFBC15FF81A39AE7D344FD709F28E8600B4AA8C65C6B64BFE7FE36BD19B JUMPDEST DUP3 DUP5 LT PUSH2 0x118B JUMPI POP POP POP DUP2 ADD PUSH1 0x20 ADD PUSH2 0x1134 DUP3 PUSH2 0x1124 JUMP JUMPDEST DUP1 SLOAD PUSH1 0x20 DUP6 DUP8 ADD DUP2 ADD SWAP2 SWAP1 SWAP2 MSTORE SWAP1 SWAP4 ADD SWAP3 DUP2 ADD PUSH2 0x1173 JUMP JUMPDEST PUSH1 0xFF NOT AND PUSH1 0x20 DUP1 DUP8 ADD SWAP2 SWAP1 SWAP2 MSTORE SWAP3 ISZERO ISZERO PUSH1 0x5 SHL DUP6 ADD SWAP1 SWAP3 ADD SWAP3 POP PUSH2 0x1134 SWAP2 POP DUP4 SWAP1 POP PUSH2 0x1124 JUMP JUMPDEST CALLVALUE PUSH2 0x2BB JUMPI PUSH1 0x0 CALLDATASIZE PUSH1 0x3 NOT ADD SLT PUSH2 0x2BB JUMPI PUSH1 0x5 SLOAD PUSH1 0x40 MLOAD PUSH1 0x1 PUSH1 0x1 PUSH1 0xA0 SHL SUB SWAP1 SWAP2 AND DUP2 MSTORE PUSH1 0x20 SWAP1 RETURN JUMPDEST CALLVALUE PUSH2 0x2BB JUMPI PUSH1 0x20 CALLDATASIZE PUSH1 0x3 NOT ADD SLT PUSH2 0x2BB JUMPI PUSH2 0x120C PUSH2 0x2B94 JUMP JUMPDEST PUSH2 0x1214 PUSH2 0x2C3B JUMP JUMPDEST PUSH1 0x1 PUSH1 0x1 PUSH1 0xA0 SHL SUB AND PUSH1 0x0 DUP2 DUP2 MSTORE PUSH1 0x10 PUSH1 0x20 MSTORE PUSH1 0x40 SWAP1 KECCAK256 SLOAD PUSH1 0xFF AND ISZERO PUSH2 0x1276 JUMPI DUP1 PUSH1 0x0 MSTORE PUSH1 0x10 PUSH1 0x20 MSTORE PUSH1 0x40 PUSH1 0x0 KECCAK256 PUSH1 0xFF NOT DUP2 SLOAD AND SWAP1 SSTORE PUSH32 0x738D236F7BE84EF8F4AEE10273B0CF8903DF213DDD9380E2B81ACF4B513185E6 PUSH1 0x20 PUSH1 0x40 MLOAD TIMESTAMP DUP2 MSTORE LOG2 STOP JUMPDEST PUSH1 0x40 MLOAD PUSH3 0x461BCD PUSH1 0xE5 SHL DUP2 MSTORE PUSH1 0x20 PUSH1 0x4 DUP3 ADD MSTORE PUSH1 0xF PUSH1 0x24 DUP3 ADD MSTORE PUSH15 0x139BDD081DDA1A5D195B1A5CDD1959 PUSH1 0x8A SHL PUSH1 0x44 DUP3 ADD MSTORE PUSH1 0x64 SWAP1 REVERT JUMPDEST CALLVALUE PUSH2 0x2BB JUMPI PUSH1 0x0 CALLDATASIZE PUSH1 0x3 NOT ADD SLT PUSH2 0x2BB JUMPI PUSH1 0x20 PUSH1 0x15 SLOAD PUSH1 0x40 MLOAD SWAP1 DUP2 MSTORE RETURN JUMPDEST CALLVALUE PUSH2 0x2BB JUMPI PUSH1 0x0 CALLDATASIZE PUSH1 0x3 NOT ADD SLT PUSH2 0x2BB JUMPI PUSH2 0x12E4 PUSH2 0x2C3B JUMP JUMPDEST PUSH1 0x1 PUSH1 0xFF NOT PUSH1 0x1B SLOAD AND OR PUSH1 0x1B SSTORE PUSH32 0x1F56865EED36853B82B13B742F7F60F4056C34E5A8B727E2C67C12190DA413CA PUSH1 0x20 PUSH1 0x40 MLOAD TIMESTAMP DUP2 MSTORE LOG1 STOP JUMPDEST CALLVALUE PUSH2 0x2BB JUMPI PUSH1 0x20 DUP1 PUSH1 0x3 NOT CALLDATASIZE ADD SLT PUSH2 0x2BB JUMPI PUSH8 0xFFFFFFFFFFFFFFFF PUSH1 0x4 CALLDATALOAD DUP2 DUP2 GT PUSH2 0x2BB JUMPI CALLDATASIZE PUSH1 0x23 DUP3 ADD SLT ISZERO PUSH2 0x2BB JUMPI DUP1 PUSH1 0x4 ADD CALLDATALOAD SWAP2 DUP3 GT PUSH2 0x2BB JUMPI PUSH1 0x24 DUP2 ADD SWAP1 PUSH1 0x24 CALLDATASIZE SWAP2 DUP5 PUSH1 0x5 SHL ADD ADD GT PUSH2 0x2BB JUMPI PUSH2 0x1375 PUSH2 0x2C3B JUMP JUMPDEST PUSH1 0x0 JUMPDEST DUP3 DUP2 LT PUSH2 0x1381 JUMPI STOP JUMPDEST PUSH2 0x13C6 SWAP1 PUSH1 0x1 PUSH1 0x1 PUSH1 0xA0 SHL SUB DUP1 PUSH2 0x13A1 PUSH2 0x139C DUP5 DUP9 DUP9 PUSH2 0x3037 JUMP JUMPDEST PUSH2 0x3047 JUMP JUMPDEST AND PUSH1 0x0 MSTORE PUSH1 0x10 DUP1 DUP8 MSTORE PUSH1 0xFF PUSH1 0x40 PUSH1 0x0 KECCAK256 SLOAD AND ISZERO DUP1 PUSH2 0x1447 JUMPI JUMPDEST PUSH2 0x13CB JUMPI JUMPDEST POP POP PUSH2 0x3028 JUMP JUMPDEST PUSH2 0x1378 JUMP JUMPDEST DUP2 PUSH2 0x13DA PUSH2 0x139C DUP6 DUP10 DUP10 PUSH2 0x3037 JUMP JUMPDEST AND PUSH1 0x0 MSTORE DUP7 MSTORE PUSH1 0x40 PUSH1 0x0 KECCAK256 PUSH1 0x1 PUSH1 0xFF NOT DUP3 SLOAD AND OR SWAP1 SSTORE PUSH2 0x1406 PUSH2 0x1401 PUSH2 0x139C DUP5 DUP9 DUP9 PUSH2 0x3037 JUMP JUMPDEST PUSH2 0x2FC4 JUMP JUMPDEST PUSH32 0x9E7D0F5D43A24B4D4C902AEDB948402E36B92B6935667FC2CB3DA1C14347655F DUP7 PUSH2 0x1436 PUSH2 0x139C DUP6 DUP10 DUP10 PUSH2 0x3037 JUMP JUMPDEST PUSH1 0x40 MLOAD TIMESTAMP DUP2 MSTORE SWAP4 AND SWAP3 LOG2 DUP6 DUP1 PUSH2 0x13BF JUMP JUMPDEST POP DUP2 PUSH2 0x1457 PUSH2 0x139C DUP6 DUP10 DUP10 PUSH2 0x3037 JUMP JUMPDEST AND ISZERO ISZERO PUSH2 0x13BA JUMP JUMPDEST CALLVALUE PUSH2 0x2BB JUMPI PUSH1 0x0 CALLDATASIZE PUSH1 0x3 NOT ADD SLT PUSH2 0x2BB JUMPI PUSH1 0x20 PUSH1 0x1A SLOAD PUSH1 0x40 MLOAD SWAP1 DUP2 MSTORE RETURN JUMPDEST CALLVALUE PUSH2 0x2BB JUMPI PUSH1 0x40 CALLDATASIZE PUSH1 0x3 NOT ADD SLT PUSH2 0x2BB JUMPI PUSH2 0x19 PUSH2 0x1499 PUSH2 0x2B94 JUMP JUMPDEST PUSH1 0x24 CALLDATALOAD SWAP1 PUSH2 0x14A8 DUP3 CALLER DUP4 PUSH2 0x2E52 JUMP JUMPDEST PUSH2 0x2F25 JUMP JUMPDEST CALLVALUE PUSH2 0x2BB JUMPI PUSH1 0x0 CALLDATASIZE PUSH1 0x3 NOT ADD SLT PUSH2 0x2BB JUMPI PUSH2 0x14C6 PUSH2 0x2C3B JUMP JUMPDEST PUSH1 0x5 DUP1 SLOAD PUSH1 0x1 PUSH1 0x1 PUSH1 0xA0 SHL SUB NOT DUP2 AND SWAP1 SWAP2 SSTORE PUSH1 0x0 SWAP1 PUSH1 0x1 PUSH1 0x1 PUSH1 0xA0 SHL SUB AND PUSH32 0x8BE0079C531659141344CD1FD0A4F28419497F9722A3DAAFE3B4186F6B6457E0 DUP3 DUP1 LOG3 STOP JUMPDEST CALLVALUE PUSH2 0x2BB JUMPI PUSH1 0x20 CALLDATASIZE PUSH1 0x3 NOT ADD SLT PUSH2 0x2BB JUMPI PUSH1 0x1 PUSH1 0x1 PUSH1 0xA0 SHL SUB PUSH2 0x152B PUSH2 0x2B94 JUMP JUMPDEST AND PUSH1 0x0 MSTORE PUSH1 0x0 PUSH1 0x20 MSTORE PUSH1 0x20 PUSH1 0x40 PUSH1 0x0 KECCAK256 SLOAD PUSH1 0x40 MLOAD SWAP1 DUP2 MSTORE RETURN JUMPDEST CALLVALUE PUSH2 0x2BB JUMPI PUSH1 0x0 CALLDATASIZE PUSH1 0x3 NOT ADD SLT PUSH2 0x2BB JUMPI PUSH2 0x155D PUSH2 0x278E JUMP JUMPDEST PUSH2 0x1565 PUSH2 0x284C JUMP JUMPDEST SWAP1 PUSH2 0x156E PUSH2 0x28E5 JUMP JUMPDEST PUSH2 0x1576 PUSH2 0x297E JUMP JUMPDEST PUSH1 0xA SLOAD PUSH1 0xB SLOAD PUSH1 0xC SLOAD PUSH1 0xD SLOAD SWAP2 PUSH2 0x158B PUSH2 0x2A17 JUMP JUMPDEST SWAP5 PUSH1 0xF SLOAD SWAP7 PUSH1 0x40 MLOAD SWAP10 DUP11 SWAP10 PUSH2 0x180 DUP1 DUP13 MSTORE DUP12 ADD PUSH2 0x15A7 SWAP2 PUSH2 0x2B54 JUMP JUMPDEST DUP11 DUP2 SUB PUSH1 0x20 DUP13 ADD MSTORE PUSH2 0x15B8 SWAP2 PUSH2 0x2B54 JUMP JUMPDEST DUP10 DUP2 SUB PUSH1 0x40 DUP12 ADD MSTORE PUSH2 0x15C9 SWAP2 PUSH2 0x2B54 JUMP JUMPDEST DUP9 DUP2 SUB PUSH1 0x60 DUP11 ADD MSTORE PUSH2 0x15DA SWAP2 PUSH2 0x2B54 JUMP JUMPDEST SWAP4 PUSH1 0x80 DUP9 ADD MSTORE PUSH1 0xA0 DUP8 ADD MSTORE PUSH1 0xC0 DUP7 ADD MSTORE PUSH1 0xE0 DUP6 ADD MSTORE DUP4 DUP2 SUB PUSH2 0x100 DUP6 ADD MSTORE PUSH2 0x1601 SWAP2 PUSH2 0x2B54 JUMP JUMPDEST SWAP1 PUSH1 0xFF DUP2 AND ISZERO ISZERO PUSH2 0x120 DUP5 ADD MSTORE DUP1 PUSH1 0x8 SHR PUSH1 0xFF AND ISZERO ISZERO PUSH2 0x140 DUP5 ADD MSTORE PUSH1 0x10 SHR PUSH1 0xFF AND ISZERO ISZERO PUSH2 0x160 DUP4 ADD MSTORE SUB SWAP1 RETURN JUMPDEST CALLVALUE PUSH2 0x2BB JUMPI PUSH1 0x0 CALLDATASIZE PUSH1 0x3 NOT ADD SLT PUSH2 0x2BB JUMPI PUSH1 0x20 PUSH1 0x11 SLOAD PUSH1 0x40 MLOAD SWAP1 DUP2 MSTORE RETURN JUMPDEST CALLVALUE PUSH2 0x2BB JUMPI PUSH1 0x40 CALLDATASIZE PUSH1 0x3 NOT ADD SLT PUSH2 0x2BB JUMPI PUSH1 0x4 CALLDATALOAD PUSH8 0xFFFFFFFFFFFFFFFF DUP2 GT PUSH2 0x2BB JUMPI PUSH2 0x167E SWAP1 CALLDATASIZE SWAP1 PUSH1 0x4 ADD PUSH2 0x2C0D JUMP JUMPDEST SWAP1 PUSH1 0x24 CALLDATALOAD PUSH8 0xFFFFFFFFFFFFFFFF DUP2 GT PUSH2 0x2BB JUMPI PUSH2 0x169F SWAP1 CALLDATASIZE SWAP1 PUSH1 0x4 ADD PUSH2 0x2C0D JUMP JUMPDEST SWAP3 SWAP1 PUSH2 0x16B0 PUSH1 0xFF PUSH1 0x1B SLOAD AND ISZERO PUSH2 0x305B JUMP JUMPDEST CALLER PUSH1 0x0 MSTORE PUSH1 0x10 PUSH1 0x20 MSTORE PUSH2 0x16CA PUSH1 0xFF PUSH1 0x40 PUSH1 0x0 KECCAK256 SLOAD AND PUSH2 0x309C JUMP JUMPDEST CALLER PUSH1 0x0 MSTORE PUSH1 0x0 PUSH1 0x20 MSTORE PUSH1 0x40 PUSH1 0x0 KECCAK256 SLOAD ISZERO PUSH2 0x19FE JUMPI DUP2 ISZERO PUSH2 0x19C1 JUMPI PUSH2 0x16EF PUSH1 0x13 SLOAD PUSH2 0x3028 JUMP JUMPDEST SWAP4 DUP5 PUSH1 0x13 SSTORE DUP5 PUSH1 0x0 MSTORE PUSH1 0x14 PUSH1 0x20 MSTORE PUSH1 0x40 PUSH1 0x0 KECCAK256 SWAP5 DUP6 SSTORE PUSH8 0xFFFFFFFFFFFFFFFF DUP4 GT PUSH2 0x579 JUMPI PUSH1 0x1 SWAP1 PUSH2 0x1723 DUP3 DUP8 ADD SLOAD PUSH2 0x2732 JUMP JUMPDEST PUSH1 0x1F DUP2 GT PUSH2 0x1974 JUMPI JUMPDEST POP DUP4 PUSH1 0x0 PUSH1 0x1F DUP3 GT PUSH1 0x1 EQ PUSH2 0x1909 JUMPI PUSH1 0x0 SWAP2 PUSH2 0x18FE JUMPI JUMPDEST POP PUSH1 0x0 NOT PUSH1 0x3 DUP7 SWAP1 SHL SHR NOT AND DUP5 DUP4 SHL OR DUP7 DUP4 ADD SSTORE JUMPDEST PUSH1 0x2 DUP7 ADD SWAP3 PUSH8 0xFFFFFFFFFFFFFFFF DUP3 GT PUSH2 0x579 JUMPI PUSH2 0x1776 DUP5 SLOAD PUSH2 0x2732 JUMP JUMPDEST PUSH1 0x1F DUP2 GT PUSH2 0x18B3 JUMPI JUMPDEST POP PUSH1 0x0 SWAP1 PUSH1 0x1F DUP4 GT PUSH1 0x1 EQ PUSH2 0x184F JUMPI SWAP3 DUP3 SWAP4 SWAP2 DUP4 SWAP3 PUSH1 0x0 SWAP5 PUSH2 0x1844 JUMPI JUMPDEST POP POP SHL SWAP2 PUSH1 0x0 NOT SWAP1 PUSH1 0x3 SHL SHR NOT AND OR SWAP1 SSTORE JUMPDEST PUSH1 0x3 DUP4 ADD CALLER PUSH12 0xFFFFFFFFFFFFFFFFFFFFFFFF PUSH1 0xA0 SHL DUP3 SLOAD AND OR SWAP1 SSTORE TIMESTAMP PUSH1 0x6 DUP5 ADD SSTORE PUSH3 0x3F480 TIMESTAMP ADD DUP1 TIMESTAMP GT PUSH2 0xBDB JUMPI DUP4 PUSH1 0x8 SWAP2 PUSH1 0x7 PUSH1 0x20 SWAP7 ADD SSTORE ADD PUSH1 0xFF NOT DUP2 SLOAD AND SWAP1 SSTORE PUSH32 0x9CC3D9DD626042CDEFB76484B91708C3207B637214B44F20111C893548D9C85F PUSH1 0x13 SLOAD SWAP3 DUP4 SWAP3 PUSH2 0x182E PUSH1 0x40 MLOAD SWAP3 DUP4 SWAP3 PUSH1 0x60 DUP5 MSTORE PUSH1 0x60 DUP5 ADD SWAP2 PUSH2 0x3203 JUMP JUMPDEST CALLER DUP8 DUP4 ADD MSTORE TIMESTAMP PUSH1 0x40 DUP4 ADD MSTORE SUB SWAP1 LOG2 PUSH1 0x40 MLOAD SWAP1 DUP2 MSTORE RETURN JUMPDEST ADD CALLDATALOAD SWAP3 POP DUP9 DUP1 PUSH2 0x179C JUMP JUMPDEST PUSH1 0x1F NOT DUP4 AND SWAP2 DUP6 PUSH1 0x0 MSTORE DUP4 PUSH1 0x20 PUSH1 0x0 KECCAK256 SWAP4 PUSH1 0x0 JUMPDEST DUP8 DUP3 DUP3 LT PUSH2 0x189A JUMPI POP POP LT PUSH2 0x1880 JUMPI JUMPDEST POP POP POP DUP2 SHL ADD SWAP1 SSTORE PUSH2 0x17AE JUMP JUMPDEST ADD CALLDATALOAD PUSH1 0x0 NOT PUSH1 0x3 DUP5 SWAP1 SHL PUSH1 0xF8 AND SHR NOT AND SWAP1 SSTORE DUP7 DUP1 DUP1 PUSH2 0x1873 JUMP JUMPDEST DUP6 DUP6 ADD CALLDATALOAD DUP8 SSTORE SWAP1 SWAP6 ADD SWAP5 PUSH1 0x20 SWAP4 DUP5 ADD SWAP4 DUP8 SWAP4 POP ADD PUSH2 0x1863 JUMP JUMPDEST DUP5 PUSH1 0x0 MSTORE PUSH1 0x20 PUSH1 0x0 KECCAK256 PUSH1 0x1F DUP5 ADD PUSH1 0x5 SHR DUP2 ADD SWAP2 PUSH1 0x20 DUP6 LT PUSH2 0x18F4 JUMPI JUMPDEST PUSH1 0x1F ADD PUSH1 0x5 SHR ADD SWAP1 DUP5 SWAP1 JUMPDEST DUP3 DUP2 LT PUSH2 0x18E8 JUMPI POP POP PUSH2 0x177F JUMP JUMPDEST PUSH1 0x0 DUP2 SSTORE ADD DUP5 SWAP1 PUSH2 0x18DA JUMP JUMPDEST SWAP1 SWAP2 POP DUP2 SWAP1 PUSH2 0x18CF JUMP JUMPDEST SWAP1 POP DUP6 ADD CALLDATALOAD DUP8 PUSH2 0x1743 JUMP JUMPDEST SWAP1 POP DUP3 DUP8 ADD PUSH1 0x0 MSTORE PUSH1 0x20 PUSH1 0x0 KECCAK256 SWAP1 PUSH1 0x0 JUMPDEST DUP5 PUSH1 0x1F NOT DUP9 AND DUP3 LT PUSH2 0x195E JUMPI POP POP DUP6 PUSH1 0x1F NOT DUP2 AND LT PUSH2 0x1944 JUMPI JUMPDEST POP POP DUP2 DUP5 DUP2 SHL ADD DUP3 DUP8 ADD SSTORE PUSH2 0x1758 JUMP JUMPDEST DUP7 ADD CALLDATALOAD PUSH1 0x0 NOT PUSH1 0x3 DUP8 SWAP1 SHL PUSH1 0xF8 AND SHR NOT AND SWAP1 SSTORE DUP7 DUP1 PUSH2 0x1934 JUMP JUMPDEST DUP9 DUP4 ADD CALLDATALOAD DUP5 SSTORE SWAP1 SWAP3 ADD SWAP2 PUSH1 0x20 SWAP2 DUP3 ADD SWAP2 ADD PUSH2 0x191A JUMP JUMPDEST DUP3 DUP8 ADD PUSH1 0x0 MSTORE PUSH1 0x20 PUSH1 0x0 KECCAK256 PUSH1 0x1F DUP7 ADD PUSH1 0x5 SHR DUP2 ADD SWAP2 PUSH1 0x20 DUP8 LT PUSH2 0x19B7 JUMPI JUMPDEST PUSH1 0x1F ADD PUSH1 0x5 SHR ADD SWAP1 DUP4 SWAP1 JUMPDEST DUP3 DUP2 LT PUSH2 0x19AB JUMPI POP POP PUSH2 0x172C JUMP JUMPDEST PUSH1 0x0 DUP2 SSTORE ADD DUP4 SWAP1 PUSH2 0x199D JUMP JUMPDEST SWAP1 SWAP2 POP DUP2 SWAP1 PUSH2 0x1992 JUMP JUMPDEST PUSH1 0x40 MLOAD PUSH3 0x461BCD PUSH1 0xE5 SHL DUP2 MSTORE PUSH1 0x20 PUSH1 0x4 DUP3 ADD MSTORE PUSH1 0x15 PUSH1 0x24 DUP3 ADD MSTORE PUSH21 0x5469746C652063616E6E6F7420626520656D707479 PUSH1 0x58 SHL PUSH1 0x44 DUP3 ADD MSTORE PUSH1 0x64 SWAP1 REVERT JUMPDEST PUSH1 0x40 MLOAD PUSH3 0x461BCD PUSH1 0xE5 SHL DUP2 MSTORE PUSH1 0x20 PUSH1 0x4 DUP3 ADD MSTORE PUSH1 0x23 PUSH1 0x24 DUP3 ADD MSTORE PUSH32 0x4D75737420686F6C6420746F6B656E7320746F206372656174652070726F706F PUSH1 0x44 DUP3 ADD MSTORE PUSH3 0x1CD85B PUSH1 0xEA SHL PUSH1 0x64 DUP3 ADD MSTORE PUSH1 0x84 SWAP1 REVERT JUMPDEST CALLVALUE PUSH2 0x2BB JUMPI PUSH1 0x0 CALLDATASIZE PUSH1 0x3 NOT ADD SLT PUSH2 0x2BB JUMPI PUSH1 0x20 PUSH1 0xFF PUSH1 0x1B SLOAD AND PUSH1 0x40 MLOAD SWAP1 ISZERO ISZERO DUP2 MSTORE RETURN JUMPDEST CALLVALUE PUSH2 0x2BB JUMPI PUSH1 0x0 CALLDATASIZE PUSH1 0x3 NOT ADD SLT PUSH2 0x2BB JUMPI PUSH1 0x20 PUSH1 0x40 MLOAD PUSH1 0x2 DUP2 MSTORE RETURN JUMPDEST CALLVALUE PUSH2 0x2BB JUMPI PUSH1 0x0 CALLDATASIZE PUSH1 0x3 NOT ADD SLT PUSH2 0x2BB JUMPI PUSH2 0x1AAE PUSH1 0xFF PUSH1 0x1B SLOAD AND ISZERO PUSH2 0x305B JUMP JUMPDEST PUSH2 0x1AB6 PUSH2 0x31D3 JUMP JUMPDEST CALLER PUSH1 0x0 MSTORE PUSH1 0x12 PUSH1 0x20 MSTORE PUSH1 0x40 PUSH1 0x0 KECCAK256 PUSH1 0xFF PUSH1 0x4 DUP3 ADD SLOAD AND ISZERO PUSH2 0x1BBD JUMPI PUSH2 0x1ADF PUSH1 0x2 DUP3 ADD SLOAD TIMESTAMP PUSH2 0x3128 JUMP JUMPDEST PUSH1 0x3 DUP3 ADD SLOAD SWAP1 DUP2 DUP2 LT PUSH2 0x1BA1 JUMPI POP POP PUSH1 0x1 DUP2 SLOAD SWAP2 JUMPDEST ADD PUSH2 0x1B01 DUP2 SLOAD DUP1 SWAP4 PUSH2 0x3128 JUMP JUMPDEST SWAP2 DUP3 ISZERO PUSH2 0x1B65 JUMPI DUP3 PUSH2 0x1B12 SWAP2 PUSH2 0x311B JUMP JUMPDEST SWAP1 SSTORE PUSH2 0x1B1F DUP2 CALLER ADDRESS PUSH2 0x2C67 JUMP JUMPDEST PUSH1 0x40 MLOAD SWAP1 DUP2 MSTORE TIMESTAMP PUSH1 0x20 DUP3 ADD MSTORE PUSH32 0xC35BC0B152CC4084B62942D2235605F7E5DB6FC6217BC7EF532BA71ACF7A58CE PUSH1 0x40 CALLER SWAP3 LOG2 PUSH1 0x1 PUSH1 0x0 DUP1 MLOAD PUSH1 0x20 PUSH2 0x3271 DUP4 CODECOPY DUP2 MLOAD SWAP2 MSTORE SSTORE STOP JUMPDEST PUSH1 0x40 MLOAD PUSH3 0x461BCD PUSH1 0xE5 SHL DUP2 MSTORE PUSH1 0x20 PUSH1 0x4 DUP3 ADD MSTORE PUSH1 0x14 PUSH1 0x24 DUP3 ADD MSTORE PUSH20 0x4E6F20746F6B656E7320746F2072656C65617365 PUSH1 0x60 SHL PUSH1 0x44 DUP3 ADD MSTORE PUSH1 0x64 SWAP1 REVERT JUMPDEST PUSH1 0x1 SWAP2 PUSH2 0x1BB2 PUSH2 0x1BB7 SWAP3 DUP6 SLOAD PUSH2 0x30E8 JUMP JUMPDEST PUSH2 0x30FB JUMP JUMPDEST SWAP2 PUSH2 0x1AF4 JUMP JUMPDEST PUSH1 0x40 MLOAD PUSH3 0x461BCD PUSH1 0xE5 SHL DUP2 MSTORE PUSH1 0x20 PUSH1 0x4 DUP3 ADD MSTORE PUSH1 0x19 PUSH1 0x24 DUP3 ADD MSTORE PUSH32 0x4E6F2076657374696E67207363686564756C6520666F756E6400000000000000 PUSH1 0x44 DUP3 ADD MSTORE PUSH1 0x64 SWAP1 REVERT JUMPDEST CALLVALUE PUSH2 0x2BB JUMPI PUSH1 0x0 CALLDATASIZE PUSH1 0x3 NOT ADD SLT PUSH2 0x2BB JUMPI PUSH2 0x1C1B PUSH2 0x2C3B JUMP JUMPDEST PUSH2 0x1C23 PUSH2 0x31D3 JUMP JUMPDEST PUSH1 0xF SLOAD PUSH1 0xFF DUP2 PUSH1 0x8 SHR AND PUSH2 0x1E26 JUMPI PUSH1 0xFF DUP2 PUSH1 0x10 SHR AND PUSH2 0x1DEE JUMPI PUSH1 0xFF DUP2 AND ISZERO PUSH2 0x1DB0 JUMPI PUSH3 0xFF00FF NOT AND PUSH3 0x10000 OR PUSH1 0xF SSTORE PUSH1 0x0 DUP1 JUMPDEST PUSH1 0x18 SLOAD DUP3 LT ISZERO PUSH2 0x1D6C JUMPI PUSH2 0x1C6A DUP3 PUSH2 0x2BC0 JUMP JUMPDEST PUSH1 0x1 DUP1 PUSH1 0xA0 SHL SUB SWAP2 SLOAD SWAP1 PUSH1 0x3 SHL SHR AND SWAP2 DUP3 PUSH1 0x0 MSTORE PUSH1 0x20 SWAP3 PUSH1 0x17 DUP5 MSTORE PUSH1 0x40 PUSH1 0x0 KECCAK256 SWAP1 DUP2 SLOAD SWAP2 DUP3 PUSH2 0x1CA8 JUMPI JUMPDEST POP POP POP PUSH2 0x1CA2 SWAP2 SWAP3 POP PUSH2 0x3028 JUMP JUMPDEST SWAP1 PUSH2 0x1C57 JUMP JUMPDEST SWAP2 DUP1 SWAP5 PUSH1 0x0 PUSH2 0x1CC9 SWAP4 SWAP5 SSTORE PUSH1 0x0 DUP8 MSTORE PUSH1 0x40 PUSH1 0x0 KECCAK256 SLOAD DUP1 PUSH2 0x1D5C JUMPI JUMPDEST POP PUSH2 0x311B JUMP JUMPDEST SWAP3 PUSH1 0x0 DUP1 DUP1 DUP1 DUP5 DUP7 GAS CALL PUSH2 0x1CDB PUSH2 0x3135 JUMP JUMPDEST POP ISZERO PUSH2 0x1D1E JUMPI PUSH1 0x40 PUSH32 0x93C496F36ECAB5F5583F216646CAC3ACB12A63AEACDDB1A9251CEB81F0EE36E7 SWAP2 PUSH2 0x1CA2 SWAP6 SWAP7 DUP3 MLOAD SWAP2 DUP3 MSTORE TIMESTAMP SWAP1 DUP3 ADD MSTORE LOG2 DUP3 SWAP2 DUP5 DUP1 PUSH2 0x1C94 JUMP JUMPDEST PUSH1 0x40 MLOAD PUSH3 0x461BCD PUSH1 0xE5 SHL DUP2 MSTORE PUSH1 0x4 DUP2 ADD DUP7 SWAP1 MSTORE PUSH1 0x16 PUSH1 0x24 DUP3 ADD MSTORE PUSH22 0x1499599D5B99081D1C985B9CD9995C8819985A5B1959 PUSH1 0x52 SHL PUSH1 0x44 DUP3 ADD MSTORE PUSH1 0x64 SWAP1 REVERT JUMPDEST PUSH2 0x1D66 SWAP1 DUP6 PUSH2 0x2F25 JUMP JUMPDEST DUP8 PUSH2 0x1CC3 JUMP JUMPDEST PUSH1 0x40 PUSH32 0xDC5C6310551211C945543334F80A7B86FCD1637C3061DC237E641B200D8EF0FB SWAP2 DUP2 MLOAD SWAP1 DUP2 MSTORE TIMESTAMP PUSH1 0x20 DUP3 ADD MSTORE LOG1 PUSH1 0x1 PUSH1 0x0 DUP1 MLOAD PUSH1 0x20 PUSH2 0x3271 DUP4 CODECOPY DUP2 MLOAD SWAP2 MSTORE SSTORE STOP JUMPDEST PUSH1 0x40 MLOAD PUSH3 0x461BCD PUSH1 0xE5 SHL DUP2 MSTORE PUSH1 0x20 PUSH1 0x4 DUP3 ADD MSTORE PUSH1 0x16 PUSH1 0x24 DUP3 ADD MSTORE PUSH22 0x46756E6472616973696E67206E6F7420616374697665 PUSH1 0x50 SHL PUSH1 0x44 DUP3 ADD MSTORE PUSH1 0x64 SWAP1 REVERT JUMPDEST PUSH1 0x40 MLOAD PUSH3 0x461BCD PUSH1 0xE5 SHL DUP2 MSTORE PUSH1 0x20 PUSH1 0x4 DUP3 ADD MSTORE PUSH1 0x10 PUSH1 0x24 DUP3 ADD MSTORE PUSH16 0x105B1C9958591E481C99599D5B991959 PUSH1 0x82 SHL PUSH1 0x44 DUP3 ADD MSTORE PUSH1 0x64 SWAP1 REVERT JUMPDEST PUSH1 0x40 MLOAD PUSH3 0x461BCD PUSH1 0xE5 SHL DUP2 MSTORE PUSH1 0x20 PUSH1 0x4 DUP3 ADD MSTORE PUSH1 0x21 PUSH1 0x24 DUP3 ADD MSTORE PUSH32 0x5461726765742077617320726561636865642C2063616E6E6F7420726566756E PUSH1 0x44 DUP3 ADD MSTORE PUSH1 0x19 PUSH1 0xFA SHL PUSH1 0x64 DUP3 ADD MSTORE PUSH1 0x84 SWAP1 REVERT JUMPDEST CALLVALUE PUSH2 0x2BB JUMPI PUSH1 0x20 CALLDATASIZE PUSH1 0x3 NOT ADD SLT PUSH2 0x2BB JUMPI PUSH1 0x4 CALLDATALOAD PUSH1 0x0 MSTORE PUSH1 0x14 PUSH1 0x20 MSTORE PUSH1 0x80 PUSH1 0x40 PUSH1 0x0 KECCAK256 PUSH1 0x4 DUP2 ADD SLOAD SWAP1 PUSH1 0x5 DUP2 ADD SLOAD SWAP1 PUSH1 0xFF PUSH1 0x8 PUSH1 0x7 DUP4 ADD SLOAD TIMESTAMP GT ISZERO SWAP3 ADD SLOAD AND SWAP2 PUSH1 0x40 MLOAD SWAP4 DUP5 MSTORE PUSH1 0x20 DUP5 ADD MSTORE PUSH1 0x40 DUP4 ADD MSTORE ISZERO ISZERO PUSH1 0x60 DUP3 ADD MSTORE RETURN JUMPDEST CALLVALUE PUSH2 0x2BB JUMPI PUSH1 0x20 CALLDATASIZE PUSH1 0x3 NOT ADD SLT PUSH2 0x2BB JUMPI PUSH2 0x19 PUSH1 0x4 CALLDATALOAD CALLER PUSH2 0x2F25 JUMP JUMPDEST CALLVALUE PUSH2 0x2BB JUMPI PUSH1 0x20 CALLDATASIZE PUSH1 0x3 NOT ADD SLT PUSH2 0x2BB JUMPI PUSH1 0x4 CALLDATALOAD PUSH1 0x18 SLOAD DUP2 LT ISZERO PUSH2 0x2BB JUMPI PUSH2 0x1F14 PUSH1 0x20 SWAP2 PUSH2 0x2BC0 JUMP JUMPDEST SWAP1 SLOAD PUSH1 0x40 MLOAD PUSH1 0x3 SWAP3 SWAP1 SWAP3 SHL SHR PUSH1 0x1 PUSH1 0x1 PUSH1 0xA0 SHL SUB AND DUP2 MSTORE RETURN JUMPDEST CALLVALUE PUSH2 0x2BB JUMPI PUSH1 0x0 CALLDATASIZE PUSH1 0x3 NOT ADD SLT PUSH2 0x2BB JUMPI PUSH2 0x1F46 PUSH2 0x2C3B JUMP JUMPDEST PUSH1 0xFF NOT PUSH1 0x1B SLOAD AND PUSH1 0x1B SSTORE PUSH32 0xCC6136896EEA025320355C56BDFB6974936C220AB7C4736057928DC31C381409 PUSH1 0x20 PUSH1 0x40 MLOAD TIMESTAMP DUP2 MSTORE LOG1 STOP JUMPDEST CALLVALUE PUSH2 0x2BB JUMPI PUSH1 0x20 CALLDATASIZE PUSH1 0x3 NOT ADD SLT PUSH2 0x2BB JUMPI PUSH1 0x1 PUSH1 0x1 PUSH1 0xA0 SHL SUB PUSH2 0x1F9D PUSH2 0x2B94 JUMP JUMPDEST AND PUSH1 0x0 MSTORE PUSH1 0x16 PUSH1 0x20 MSTORE PUSH1 0x20 PUSH1 0x40 PUSH1 0x0 KECCAK256 SLOAD PUSH1 0x40 MLOAD SWAP1 DUP2 MSTORE RETURN JUMPDEST CALLVALUE PUSH2 0x2BB JUMPI PUSH1 0x20 CALLDATASIZE PUSH1 0x3 NOT ADD SLT PUSH2 0x2BB JUMPI PUSH1 0x1 PUSH1 0x1 PUSH1 0xA0 SHL SUB PUSH2 0x1FD7 PUSH2 0x2B94 JUMP JUMPDEST AND PUSH1 0x0 MSTORE PUSH1 0x10 PUSH1 0x20 MSTORE PUSH1 0x20 PUSH1 0xFF PUSH1 0x40 PUSH1 0x0 KECCAK256 SLOAD AND PUSH1 0x40 MLOAD SWAP1 ISZERO ISZERO DUP2 MSTORE RETURN JUMPDEST CALLVALUE PUSH2 0x2BB JUMPI PUSH1 0x0 CALLDATASIZE PUSH1 0x3 NOT ADD SLT PUSH2 0x2BB JUMPI PUSH1 0x20 PUSH1 0x40 MLOAD PUSH1 0x12 DUP2 MSTORE RETURN JUMPDEST CALLVALUE PUSH2 0x2BB JUMPI PUSH1 0x60 CALLDATASIZE PUSH1 0x3 NOT ADD SLT PUSH2 0x2BB JUMPI PUSH2 0x10BF PUSH2 0x202D PUSH2 0x2B94 JUMP JUMPDEST PUSH2 0x2035 PUSH2 0x2BAA JUMP JUMPDEST PUSH1 0x44 CALLDATALOAD SWAP2 PUSH2 0x2044 DUP4 CALLER DUP4 PUSH2 0x2E52 JUMP JUMPDEST PUSH2 0x2C67 JUMP JUMPDEST CALLVALUE PUSH2 0x2BB JUMPI PUSH1 0x0 CALLDATASIZE PUSH1 0x3 NOT ADD SLT PUSH2 0x2BB JUMPI PUSH2 0x20AD PUSH1 0xA SLOAD PUSH1 0xB SLOAD SWAP1 PUSH1 0xFF PUSH1 0xC SLOAD PUSH1 0xF SLOAD SWAP1 PUSH2 0x2075 PUSH2 0x278E JUMP JUMPDEST SWAP5 PUSH2 0x20D7 PUSH2 0x2081 PUSH2 0x284C JUMP JUMPDEST PUSH2 0x20C9 PUSH2 0x208C PUSH2 0x28E5 JUMP JUMPDEST PUSH2 0x20BB PUSH2 0x2097 PUSH2 0x297E JUMP JUMPDEST SWAP4 PUSH1 0x40 MLOAD SWAP13 DUP14 SWAP13 DUP14 PUSH2 0x140 SWAP1 DUP2 DUP2 MSTORE ADD SWAP1 PUSH2 0x2B54 JUMP JUMPDEST DUP13 DUP2 SUB PUSH1 0x20 DUP15 ADD MSTORE SWAP1 PUSH2 0x2B54 JUMP JUMPDEST SWAP1 DUP11 DUP3 SUB PUSH1 0x40 DUP13 ADD MSTORE PUSH2 0x2B54 JUMP JUMPDEST SWAP1 DUP9 DUP3 SUB PUSH1 0x60 DUP11 ADD MSTORE PUSH2 0x2B54 JUMP JUMPDEST SWAP5 PUSH1 0x80 DUP8 ADD MSTORE PUSH1 0xA0 DUP7 ADD MSTORE PUSH1 0xC0 DUP6 ADD MSTORE DUP2 DUP2 AND ISZERO ISZERO PUSH1 0xE0 DUP6 ADD MSTORE DUP2 DUP2 PUSH1 0x8 SHR AND ISZERO ISZERO PUSH2 0x100 DUP6 ADD MSTORE PUSH1 0x10 SHR AND ISZERO ISZERO PUSH2 0x120 DUP4 ADD MSTORE SUB SWAP1 RETURN JUMPDEST CALLVALUE PUSH2 0x2BB JUMPI PUSH1 0x0 CALLDATASIZE PUSH1 0x3 NOT ADD SLT PUSH2 0x2BB JUMPI PUSH1 0x20 PUSH1 0x2 SLOAD PUSH1 0x40 MLOAD SWAP1 DUP2 MSTORE RETURN JUMPDEST CALLVALUE PUSH2 0x2BB JUMPI PUSH1 0x20 CALLDATASIZE PUSH1 0x3 NOT ADD SLT PUSH2 0x2BB JUMPI PUSH1 0x4 CALLDATALOAD PUSH2 0x2149 PUSH2 0x2C3B JUMP JUMPDEST DUP1 PUSH1 0x0 MSTORE PUSH1 0x14 PUSH1 0x20 MSTORE PUSH1 0x40 PUSH1 0x0 KECCAK256 PUSH2 0x2163 DUP2 SLOAD ISZERO ISZERO PUSH2 0x3224 JUMP JUMPDEST PUSH1 0x7 DUP2 ADD SLOAD TIMESTAMP GT ISZERO PUSH2 0x21FE JUMPI PUSH1 0x8 DUP2 ADD SWAP1 DUP2 SLOAD SWAP1 PUSH1 0xFF DUP3 AND PUSH2 0x21C6 JUMPI PUSH32 0xEC8F304A675F7BB10C5D3EB44EA2444DD65A0DA66105763BD6B5BB98AA1461DB SWAP3 PUSH1 0x1 PUSH1 0x40 SWAP4 PUSH1 0xFF NOT AND OR SWAP1 SSTORE PUSH1 0x5 PUSH1 0x4 DUP3 ADD SLOAD SWAP2 ADD SLOAD LT DUP2 MLOAD SWAP1 DUP2 MSTORE TIMESTAMP PUSH1 0x20 DUP3 ADD MSTORE LOG2 STOP JUMPDEST PUSH1 0x40 MLOAD PUSH3 0x461BCD PUSH1 0xE5 SHL DUP2 MSTORE PUSH1 0x20 PUSH1 0x4 DUP3 ADD MSTORE PUSH1 0x10 PUSH1 0x24 DUP3 ADD MSTORE PUSH16 0x105B1C9958591E48195E1958DD5D1959 PUSH1 0x82 SHL PUSH1 0x44 DUP3 ADD MSTORE PUSH1 0x64 SWAP1 REVERT JUMPDEST PUSH1 0x40 MLOAD PUSH3 0x461BCD PUSH1 0xE5 SHL DUP2 MSTORE PUSH1 0x20 PUSH1 0x4 DUP3 ADD MSTORE PUSH1 0x13 PUSH1 0x24 DUP3 ADD MSTORE PUSH19 0x566F74696E67207374696C6C20616374697665 PUSH1 0x68 SHL PUSH1 0x44 DUP3 ADD MSTORE PUSH1 0x64 SWAP1 REVERT JUMPDEST CALLVALUE PUSH2 0x2BB JUMPI PUSH1 0x40 CALLDATASIZE PUSH1 0x3 NOT ADD SLT PUSH2 0x2BB JUMPI PUSH2 0x2252 PUSH2 0x2B94 JUMP JUMPDEST PUSH1 0x24 CALLDATALOAD SWAP1 CALLER ISZERO PUSH2 0x22D8 JUMPI PUSH1 0x1 PUSH1 0x1 PUSH1 0xA0 SHL SUB AND SWAP1 DUP2 ISZERO PUSH2 0x22BF JUMPI CALLER PUSH1 0x0 MSTORE PUSH1 0x1 PUSH1 0x20 MSTORE PUSH1 0x40 PUSH1 0x0 KECCAK256 DUP3 PUSH1 0x0 MSTORE PUSH1 0x20 MSTORE DUP1 PUSH1 0x40 PUSH1 0x0 KECCAK256 SSTORE PUSH1 0x40 MLOAD SWAP1 DUP2 MSTORE PUSH32 0x8C5BE1E5EBEC7D5BD14F71427D1E84F3DD0314C0F7B2291E5B200AC8C7C3B925 PUSH1 0x20 CALLER SWAP3 LOG3 PUSH1 0x20 PUSH1 0x40 MLOAD PUSH1 0x1 DUP2 MSTORE RETURN JUMPDEST PUSH1 0x40 MLOAD PUSH4 0x4A1406B1 PUSH1 0xE1 SHL DUP2 MSTORE PUSH1 0x0 PUSH1 0x4 DUP3 ADD MSTORE PUSH1 0x24 SWAP1 REVERT JUMPDEST PUSH1 0x40 MLOAD PUSH4 0xE602DF05 PUSH1 0xE0 SHL DUP2 MSTORE PUSH1 0x0 PUSH1 0x4 DUP3 ADD MSTORE PUSH1 0x24 SWAP1 REVERT JUMPDEST CALLVALUE PUSH2 0x2BB JUMPI PUSH1 0x0 CALLDATASIZE PUSH1 0x3 NOT ADD SLT PUSH2 0x2BB JUMPI PUSH1 0x40 MLOAD PUSH1 0x0 PUSH1 0x3 SLOAD PUSH2 0x2313 DUP2 PUSH2 0x2732 JUMP JUMPDEST DUP1 DUP5 MSTORE SWAP1 PUSH1 0x1 SWAP1 DUP2 DUP2 AND SWAP1 DUP2 ISZERO PUSH2 0x11A3 JUMPI POP PUSH1 0x1 EQ PUSH2 0x233C JUMPI PUSH2 0x2B7 DUP5 PUSH2 0x1134 DUP2 DUP7 SUB DUP3 PUSH2 0x276C JUMP JUMPDEST PUSH1 0x3 PUSH1 0x0 SWAP1 DUP2 MSTORE SWAP3 POP PUSH32 0xC2575A0E9E593C00F959F8C92F12DB2869C3395A3B0502D05E2516446F71F85B JUMPDEST DUP3 DUP5 LT PUSH2 0x237F JUMPI POP POP POP DUP2 ADD PUSH1 0x20 ADD PUSH2 0x1134 DUP3 PUSH2 0x1124 JUMP JUMPDEST DUP1 SLOAD PUSH1 0x20 DUP6 DUP8 ADD DUP2 ADD SWAP2 SWAP1 SWAP2 MSTORE SWAP1 SWAP4 ADD SWAP3 DUP2 ADD PUSH2 0x2367 JUMP JUMPDEST PUSH1 0x0 CALLDATASIZE PUSH1 0x3 NOT ADD SLT PUSH2 0x2BB JUMPI PUSH2 0x23AB PUSH2 0x2C3B JUMP JUMPDEST PUSH2 0x23BA PUSH1 0xFF PUSH1 0x1B SLOAD AND ISZERO PUSH2 0x305B JUMP JUMPDEST PUSH2 0x23C2 PUSH2 0x31D3 JUMP JUMPDEST CALLVALUE ISZERO PUSH2 0x2632 JUMPI PUSH1 0x2 DUP1 SLOAD ISZERO PUSH2 0x25ED JUMPI PUSH1 0x0 SWAP1 PUSH1 0x0 DUP1 JUMPDEST PUSH1 0x18 DUP1 SLOAD DUP3 LT ISZERO PUSH2 0x250B JUMPI PUSH2 0x23EC DUP3 PUSH2 0x2BC0 JUMP JUMPDEST PUSH1 0x1 DUP1 PUSH1 0xA0 SHL SUB SWAP2 SLOAD SWAP1 PUSH1 0x3 SHL SHR AND DUP1 PUSH1 0x0 MSTORE PUSH1 0x20 PUSH1 0x0 DUP2 MSTORE PUSH1 0x40 PUSH1 0x0 KECCAK256 SLOAD DUP1 PUSH2 0x2423 JUMPI JUMPDEST POP POP POP POP PUSH2 0x241E SWAP1 PUSH2 0x3028 JUMP JUMPDEST PUSH2 0x23D8 JUMP JUMPDEST PUSH2 0x2430 PUSH2 0x2438 SWAP2 CALLVALUE PUSH2 0x30E8 JUMP JUMPDEST DUP8 SLOAD SWAP1 PUSH2 0x30FB JUMP JUMPDEST SWAP1 DUP2 ISZERO PUSH2 0x2411 JUMPI SWAP1 SWAP2 SWAP3 SWAP5 SWAP7 PUSH2 0x246B DUP4 PUSH2 0x2471 SWAP3 DUP7 PUSH1 0x0 MSTORE PUSH1 0x16 DUP6 MSTORE PUSH1 0x40 PUSH1 0x0 KECCAK256 PUSH2 0x2464 DUP4 DUP3 SLOAD PUSH2 0x311B JUMP JUMPDEST SWAP1 SSTORE PUSH2 0x311B JUMP JUMPDEST SWAP8 PUSH2 0x3028 JUMP JUMPDEST SWAP5 PUSH1 0x0 DUP1 DUP1 DUP1 DUP7 DUP9 GAS CALL PUSH2 0x2483 PUSH2 0x3135 JUMP JUMPDEST POP ISZERO PUSH2 0x24C8 JUMPI POP PUSH1 0x40 PUSH2 0x241E SWAP5 SWAP4 SWAP3 PUSH32 0xB1DD61C96DDEB0731E0E24914D1CEB977FE64D498FDE8E1220630E7F77FE8CF2 SWAP3 DUP3 MLOAD SWAP2 DUP3 MSTORE TIMESTAMP SWAP1 DUP3 ADD MSTORE LOG2 SWAP1 DUP6 DUP1 DUP1 PUSH2 0x2411 JUMP JUMPDEST PUSH1 0x64 SWAP3 POP PUSH1 0x40 MLOAD SWAP2 PUSH3 0x461BCD PUSH1 0xE5 SHL DUP4 MSTORE PUSH1 0x4 DUP4 ADD MSTORE PUSH1 0x24 DUP3 ADD MSTORE PUSH32 0x4469766964656E64207472616E73666572206661696C65640000000000000000 PUSH1 0x44 DUP3 ADD MSTORE REVERT JUMPDEST DUP3 DUP6 PUSH2 0x2519 DUP2 PUSH1 0x15 SLOAD PUSH2 0x311B JUMP JUMPDEST PUSH1 0x15 SSTORE PUSH2 0x2526 DUP2 CALLVALUE PUSH2 0x3128 JUMP JUMPDEST DUP1 PUSH2 0x2588 JUMPI JUMPDEST POP PUSH32 0x63D71F07EB936381FC294FBDED2B933703B98E1387A0C92BC886C12AE4F117C2 SWAP2 PUSH2 0x2571 PUSH1 0x40 MLOAD SWAP3 DUP4 SWAP3 TIMESTAMP SWAP2 DUP5 PUSH1 0x40 SWAP2 SWAP5 SWAP4 SWAP3 PUSH1 0x60 DUP3 ADD SWAP6 DUP3 MSTORE PUSH1 0x20 DUP3 ADD MSTORE ADD MSTORE JUMP JUMPDEST SUB SWAP1 LOG1 PUSH1 0x1 PUSH1 0x0 DUP1 MLOAD PUSH1 0x20 PUSH2 0x3271 DUP4 CODECOPY DUP2 MLOAD SWAP2 MSTORE SSTORE STOP JUMPDEST PUSH1 0x5 SLOAD PUSH1 0x0 SWAP2 DUP3 SWAP2 DUP3 SWAP2 DUP3 SWAP2 PUSH1 0x1 PUSH1 0x1 PUSH1 0xA0 SHL SUB AND GAS CALL PUSH2 0x25A7 PUSH2 0x3135 JUMP JUMPDEST POP ISZERO PUSH2 0x25B3 JUMPI DUP3 PUSH2 0x252C JUMP JUMPDEST PUSH1 0x40 MLOAD PUSH3 0x461BCD PUSH1 0xE5 SHL DUP2 MSTORE PUSH1 0x20 PUSH1 0x4 DUP3 ADD MSTORE PUSH1 0x12 PUSH1 0x24 DUP3 ADD MSTORE PUSH18 0x111D5CDD081C99599D5B990819985A5B1959 PUSH1 0x72 SHL PUSH1 0x44 DUP3 ADD MSTORE PUSH1 0x64 SWAP1 REVERT JUMPDEST PUSH1 0x40 MLOAD PUSH3 0x461BCD PUSH1 0xE5 SHL DUP2 MSTORE PUSH1 0x20 PUSH1 0x4 DUP3 ADD MSTORE PUSH1 0x18 PUSH1 0x24 DUP3 ADD MSTORE PUSH32 0x4E6F20746F6B656E7320696E2063697263756C6174696F6E0000000000000000 PUSH1 0x44 DUP3 ADD MSTORE PUSH1 0x64 SWAP1 REVERT JUMPDEST PUSH1 0x40 MLOAD PUSH3 0x461BCD PUSH1 0xE5 SHL DUP2 MSTORE PUSH1 0x20 PUSH1 0x4 DUP3 ADD MSTORE PUSH1 0x1D PUSH1 0x24 DUP3 ADD MSTORE PUSH32 0x4D7573742073656E64204D4154494320666F72206469766964656E6473000000 PUSH1 0x44 DUP3 ADD MSTORE PUSH1 0x64 SWAP1 REVERT JUMPDEST CALLVALUE PUSH2 0x2BB JUMPI PUSH1 0x20 CALLDATASIZE PUSH1 0x3 NOT ADD SLT PUSH2 0x2BB JUMPI PUSH1 0x4 CALLDATALOAD PUSH1 0x0 MSTORE PUSH1 0x14 PUSH1 0x20 MSTORE PUSH1 0x40 PUSH1 0x0 KECCAK256 DUP1 SLOAD PUSH2 0x26A6 PUSH1 0x1 DUP4 ADD PUSH2 0x2AB0 JUMP JUMPDEST SWAP2 PUSH2 0x26B3 PUSH1 0x2 DUP3 ADD PUSH2 0x2AB0 JUMP JUMPDEST PUSH1 0x1 DUP1 PUSH1 0xA0 SHL SUB PUSH1 0x3 DUP4 ADD SLOAD AND SWAP2 PUSH1 0x4 DUP2 ADD SLOAD PUSH1 0x5 DUP3 ADD SLOAD PUSH1 0x6 DUP4 ADD SLOAD SWAP2 PUSH2 0x270C PUSH1 0xFF PUSH1 0x8 PUSH1 0x7 DUP8 ADD SLOAD SWAP7 ADD SLOAD AND SWAP6 PUSH2 0x26FE PUSH1 0x40 MLOAD SWAP11 DUP12 SWAP11 DUP12 MSTORE PUSH2 0x120 DUP1 PUSH1 0x20 DUP14 ADD MSTORE DUP12 ADD SWAP1 PUSH2 0x2B54 JUMP JUMPDEST SWAP1 DUP10 DUP3 SUB PUSH1 0x40 DUP12 ADD MSTORE PUSH2 0x2B54 JUMP JUMPDEST SWAP6 PUSH1 0x60 DUP9 ADD MSTORE PUSH1 0x80 DUP8 ADD MSTORE PUSH1 0xA0 DUP7 ADD MSTORE PUSH1 0xC0 DUP6 ADD MSTORE PUSH1 0xE0 DUP5 ADD MSTORE ISZERO ISZERO PUSH2 0x100 DUP4 ADD MSTORE SUB SWAP1 RETURN JUMPDEST SWAP1 PUSH1 0x1 DUP3 DUP2 SHR SWAP3 AND DUP1 ISZERO PUSH2 0x2762 JUMPI JUMPDEST PUSH1 0x20 DUP4 LT EQ PUSH2 0x274C JUMPI JUMP JUMPDEST PUSH4 0x4E487B71 PUSH1 0xE0 SHL PUSH1 0x0 MSTORE PUSH1 0x22 PUSH1 0x4 MSTORE PUSH1 0x24 PUSH1 0x0 REVERT JUMPDEST SWAP2 PUSH1 0x7F AND SWAP2 PUSH2 0x2741 JUMP JUMPDEST SWAP1 PUSH1 0x1F DUP1 NOT SWAP2 ADD AND DUP2 ADD SWAP1 DUP2 LT PUSH8 0xFFFFFFFFFFFFFFFF DUP3 GT OR PUSH2 0x579 JUMPI PUSH1 0x40 MSTORE JUMP JUMPDEST PUSH1 0x40 MLOAD SWAP1 PUSH1 0x0 DUP3 PUSH1 0x6 SLOAD SWAP2 PUSH2 0x27A2 DUP4 PUSH2 0x2732 JUMP JUMPDEST DUP1 DUP4 MSTORE SWAP3 PUSH1 0x1 SWAP1 DUP2 DUP2 AND SWAP1 DUP2 ISZERO PUSH2 0x282A JUMPI POP PUSH1 0x1 EQ PUSH2 0x27CB JUMPI JUMPDEST POP PUSH2 0x27C9 SWAP3 POP SUB DUP4 PUSH2 0x276C JUMP JUMPDEST JUMP JUMPDEST PUSH1 0x6 PUSH1 0x0 SWAP1 DUP2 MSTORE SWAP2 POP PUSH32 0xF652222313E28459528D920B65115C16C04F3EFC82AAEDC97BE59F3F377C0D3F JUMPDEST DUP5 DUP4 LT PUSH2 0x280F JUMPI POP PUSH2 0x27C9 SWAP4 POP POP DUP2 ADD PUSH1 0x20 ADD CODESIZE PUSH2 0x27BC JUMP JUMPDEST DUP2 SWAP4 POP SWAP1 DUP2 PUSH1 0x20 SWAP3 SLOAD DUP4 DUP6 DUP11 ADD ADD MSTORE ADD SWAP2 ADD SWAP1 SWAP2 DUP6 SWAP3 PUSH2 0x27F6 JUMP JUMPDEST SWAP1 POP PUSH1 0x20 SWAP3 POP PUSH2 0x27C9 SWAP5 SWAP2 POP PUSH1 0xFF NOT AND DUP3 DUP5 ADD MSTORE ISZERO ISZERO PUSH1 0x5 SHL DUP3 ADD ADD CODESIZE PUSH2 0x27BC JUMP JUMPDEST PUSH1 0x40 MLOAD SWAP1 PUSH1 0x0 DUP3 PUSH1 0x7 SLOAD SWAP2 PUSH2 0x2860 DUP4 PUSH2 0x2732 JUMP JUMPDEST DUP1 DUP4 MSTORE SWAP3 PUSH1 0x1 SWAP1 DUP2 DUP2 AND SWAP1 DUP2 ISZERO PUSH2 0x282A JUMPI POP PUSH1 0x1 EQ PUSH2 0x2886 JUMPI POP PUSH2 0x27C9 SWAP3 POP SUB DUP4 PUSH2 0x276C JUMP JUMPDEST PUSH1 0x7 PUSH1 0x0 SWAP1 DUP2 MSTORE SWAP2 POP PUSH32 0xA66CC928B5EDB82AF9BD49922954155AB7B0942694BEA4CE44661D9A8736C688 JUMPDEST DUP5 DUP4 LT PUSH2 0x28CA JUMPI POP PUSH2 0x27C9 SWAP4 POP POP DUP2 ADD PUSH1 0x20 ADD CODESIZE PUSH2 0x27BC JUMP JUMPDEST DUP2 SWAP4 POP SWAP1 DUP2 PUSH1 0x20 SWAP3 SLOAD DUP4 DUP6 DUP11 ADD ADD MSTORE ADD SWAP2 ADD SWAP1 SWAP2 DUP6 SWAP3 PUSH2 0x28B1 JUMP JUMPDEST PUSH1 0x40 MLOAD SWAP1 PUSH1 0x0 DUP3 PUSH1 0x8 SLOAD SWAP2 PUSH2 0x28F9 DUP4 PUSH2 0x2732 JUMP JUMPDEST DUP1 DUP4 MSTORE SWAP3 PUSH1 0x1 SWAP1 DUP2 DUP2 AND SWAP1 DUP2 ISZERO PUSH2 0x282A JUMPI POP PUSH1 0x1 EQ PUSH2 0x291F JUMPI POP PUSH2 0x27C9 SWAP3 POP SUB DUP4 PUSH2 0x276C JUMP JUMPDEST PUSH1 0x8 PUSH1 0x0 SWAP1 DUP2 MSTORE SWAP2 POP PUSH32 0xF3F7A9FE364FAAB93B216DA50A3214154F22A0A2B415B23A84C8169E8B636EE3 JUMPDEST DUP5 DUP4 LT PUSH2 0x2963 JUMPI POP PUSH2 0x27C9 SWAP4 POP POP DUP2 ADD PUSH1 0x20 ADD CODESIZE PUSH2 0x27BC JUMP JUMPDEST DUP2 SWAP4 POP SWAP1 DUP2 PUSH1 0x20 SWAP3 SLOAD DUP4 DUP6 DUP11 ADD ADD MSTORE ADD SWAP2 ADD SWAP1 SWAP2 DUP6 SWAP3 PUSH2 0x294A JUMP JUMPDEST PUSH1 0x40 MLOAD SWAP1 PUSH1 0x0 DUP3 PUSH1 0x9 SLOAD SWAP2 PUSH2 0x2992 DUP4 PUSH2 0x2732 JUMP JUMPDEST DUP1 DUP4 MSTORE SWAP3 PUSH1 0x1 SWAP1 DUP2 DUP2 AND SWAP1 DUP2 ISZERO PUSH2 0x282A JUMPI POP PUSH1 0x1 EQ PUSH2 0x29B8 JUMPI POP PUSH2 0x27C9 SWAP3 POP SUB DUP4 PUSH2 0x276C JUMP JUMPDEST PUSH1 0x9 PUSH1 0x0 SWAP1 DUP2 MSTORE SWAP2 POP PUSH32 0x6E1540171B6C0C960B71A7020D9F60077F6AF931A8BBF590DA0223DACF75C7AF JUMPDEST DUP5 DUP4 LT PUSH2 0x29FC JUMPI POP PUSH2 0x27C9 SWAP4 POP POP DUP2 ADD PUSH1 0x20 ADD CODESIZE PUSH2 0x27BC JUMP JUMPDEST DUP2 SWAP4 POP SWAP1 DUP2 PUSH1 0x20 SWAP3 SLOAD DUP4 DUP6 DUP11 ADD ADD MSTORE ADD SWAP2 ADD SWAP1 SWAP2 DUP6 SWAP3 PUSH2 0x29E3 JUMP JUMPDEST PUSH1 0x40 MLOAD SWAP1 PUSH1 0x0 DUP3 PUSH1 0xE SLOAD SWAP2 PUSH2 0x2A2B DUP4 PUSH2 0x2732 JUMP JUMPDEST DUP1 DUP4 MSTORE SWAP3 PUSH1 0x1 SWAP1 DUP2 DUP2 AND SWAP1 DUP2 ISZERO PUSH2 0x282A JUMPI POP PUSH1 0x1 EQ PUSH2 0x2A51 JUMPI POP PUSH2 0x27C9 SWAP3 POP SUB DUP4 PUSH2 0x276C JUMP JUMPDEST PUSH1 0xE PUSH1 0x0 SWAP1 DUP2 MSTORE SWAP2 POP PUSH32 0xBB7B4A454DC3493923482F07822329ED19E8244EFF582CC204F8554C3620C3FD JUMPDEST DUP5 DUP4 LT PUSH2 0x2A95 JUMPI POP PUSH2 0x27C9 SWAP4 POP POP DUP2 ADD PUSH1 0x20 ADD CODESIZE PUSH2 0x27BC JUMP JUMPDEST DUP2 SWAP4 POP SWAP1 DUP2 PUSH1 0x20 SWAP3 SLOAD DUP4 DUP6 DUP11 ADD ADD MSTORE ADD SWAP2 ADD SWAP1 SWAP2 DUP6 SWAP3 PUSH2 0x2A7C JUMP JUMPDEST SWAP1 PUSH1 0x40 MLOAD SWAP2 DUP3 PUSH1 0x0 DUP3 SLOAD SWAP3 PUSH2 0x2AC4 DUP5 PUSH2 0x2732 JUMP JUMPDEST SWAP1 DUP2 DUP5 MSTORE PUSH1 0x1 SWAP5 DUP6 DUP2 AND SWAP1 DUP2 PUSH1 0x0 EQ PUSH2 0x2B31 JUMPI POP PUSH1 0x1 EQ PUSH2 0x2AEE JUMPI JUMPDEST POP POP PUSH2 0x27C9 SWAP3 POP SUB DUP4 PUSH2 0x276C JUMP JUMPDEST SWAP1 SWAP4 SWAP2 POP PUSH1 0x0 MSTORE PUSH1 0x20 SWAP1 DUP2 PUSH1 0x0 KECCAK256 SWAP4 PUSH1 0x0 SWAP2 JUMPDEST DUP2 DUP4 LT PUSH2 0x2B19 JUMPI POP POP PUSH2 0x27C9 SWAP4 POP DUP3 ADD ADD CODESIZE DUP1 PUSH2 0x2AE0 JUMP JUMPDEST DUP6 SLOAD DUP9 DUP5 ADD DUP6 ADD MSTORE SWAP5 DUP6 ADD SWAP5 DUP8 SWAP5 POP SWAP2 DUP4 ADD SWAP2 PUSH2 0x2B01 JUMP JUMPDEST SWAP2 POP POP PUSH2 0x27C9 SWAP5 POP PUSH1 0x20 SWAP3 POP PUSH1 0xFF NOT AND DUP3 DUP5 ADD MSTORE ISZERO ISZERO PUSH1 0x5 SHL DUP3 ADD ADD CODESIZE DUP1 PUSH2 0x2AE0 JUMP JUMPDEST SWAP2 SWAP1 DUP3 MLOAD SWAP3 DUP4 DUP3 MSTORE PUSH1 0x0 JUMPDEST DUP5 DUP2 LT PUSH2 0x2B80 JUMPI POP POP DUP3 PUSH1 0x0 PUSH1 0x20 DUP1 SWAP5 SWAP6 DUP5 ADD ADD MSTORE PUSH1 0x1F DUP1 NOT SWAP2 ADD AND ADD ADD SWAP1 JUMP JUMPDEST PUSH1 0x20 DUP2 DUP4 ADD DUP2 ADD MLOAD DUP5 DUP4 ADD DUP3 ADD MSTORE ADD PUSH2 0x2B5F JUMP JUMPDEST PUSH1 0x4 CALLDATALOAD SWAP1 PUSH1 0x1 PUSH1 0x1 PUSH1 0xA0 SHL SUB DUP3 AND DUP3 SUB PUSH2 0x2BB JUMPI JUMP JUMPDEST PUSH1 0x24 CALLDATALOAD SWAP1 PUSH1 0x1 PUSH1 0x1 PUSH1 0xA0 SHL SUB DUP3 AND DUP3 SUB PUSH2 0x2BB JUMPI JUMP JUMPDEST PUSH1 0x18 SLOAD DUP2 LT ISZERO PUSH2 0x2BF7 JUMPI PUSH1 0x18 PUSH1 0x0 MSTORE PUSH32 0xB13D2D76D1F4B7BE834882E410B3E3A8AFAF69F83600AE24DB354391D2378D2E ADD SWAP1 PUSH1 0x0 SWAP1 JUMP JUMPDEST PUSH4 0x4E487B71 PUSH1 0xE0 SHL PUSH1 0x0 MSTORE PUSH1 0x32 PUSH1 0x4 MSTORE PUSH1 0x24 PUSH1 0x0 REVERT JUMPDEST SWAP2 DUP2 PUSH1 0x1F DUP5 ADD SLT ISZERO PUSH2 0x2BB JUMPI DUP3 CALLDATALOAD SWAP2 PUSH8 0xFFFFFFFFFFFFFFFF DUP4 GT PUSH2 0x2BB JUMPI PUSH1 0x20 DUP4 DUP2 DUP7 ADD SWAP6 ADD ADD GT PUSH2 0x2BB JUMPI JUMP JUMPDEST PUSH1 0x5 SLOAD PUSH1 0x1 PUSH1 0x1 PUSH1 0xA0 SHL SUB AND CALLER SUB PUSH2 0x2C4F JUMPI JUMP JUMPDEST PUSH1 0x40 MLOAD PUSH4 0x118CDAA7 PUSH1 0xE0 SHL DUP2 MSTORE CALLER PUSH1 0x4 DUP3 ADD MSTORE PUSH1 0x24 SWAP1 REVERT JUMPDEST SWAP2 PUSH1 0x1 PUSH1 0x1 PUSH1 0xA0 SHL SUB DUP1 DUP5 AND SWAP3 DUP4 ISZERO PUSH2 0x2E39 JUMPI AND SWAP3 DUP4 ISZERO PUSH2 0x2E20 JUMPI ADDRESS DUP5 EQ ISZERO DUP1 PUSH2 0x2E16 JUMPI JUMPDEST PUSH2 0x2D22 JUMPI JUMPDEST PUSH1 0x0 SWAP1 DUP4 DUP3 MSTORE DUP2 PUSH1 0x20 MSTORE PUSH1 0x40 DUP3 KECCAK256 SLOAD SWAP1 DUP4 DUP3 LT PUSH2 0x2CF0 JUMPI POP SWAP2 PUSH1 0x40 DUP3 DUP3 PUSH32 0xDDF252AD1BE2C89B69C2B068FC378DAA952BA7F163C4A11628F55A4DF523B3EF SWAP6 DUP8 PUSH1 0x20 SWAP7 MSTORE DUP3 DUP7 MSTORE SUB DUP3 DUP3 KECCAK256 SSTORE DUP7 DUP2 MSTORE KECCAK256 DUP2 DUP2 SLOAD ADD SWAP1 SSTORE PUSH1 0x40 MLOAD SWAP1 DUP2 MSTORE LOG3 JUMP JUMPDEST PUSH1 0x40 MLOAD PUSH4 0x391434E3 PUSH1 0xE2 SHL DUP2 MSTORE PUSH1 0x1 PUSH1 0x1 PUSH1 0xA0 SHL SUB SWAP2 SWAP1 SWAP2 AND PUSH1 0x4 DUP3 ADD MSTORE PUSH1 0x24 DUP2 ADD SWAP2 SWAP1 SWAP2 MSTORE PUSH1 0x44 DUP2 ADD DUP4 SWAP1 MSTORE PUSH1 0x64 SWAP1 REVERT JUMPDEST DUP3 PUSH1 0x0 MSTORE PUSH1 0x10 PUSH1 0x20 MSTORE PUSH1 0xFF PUSH1 0x40 PUSH1 0x0 KECCAK256 SLOAD AND ISZERO PUSH2 0x2DD8 JUMPI DUP4 PUSH1 0x0 MSTORE PUSH1 0x10 PUSH1 0x20 MSTORE PUSH1 0xFF PUSH1 0x40 PUSH1 0x0 KECCAK256 SLOAD AND ISZERO PUSH2 0x2D93 JUMPI PUSH1 0xFF PUSH1 0x1B SLOAD AND ISZERO PUSH2 0x2C91 JUMPI PUSH1 0x40 MLOAD PUSH3 0x461BCD PUSH1 0xE5 SHL DUP2 MSTORE PUSH1 0x20 PUSH1 0x4 DUP3 ADD MSTORE PUSH1 0x10 PUSH1 0x24 DUP3 ADD MSTORE PUSH16 0x151C985B9CD9995C9CC81C185D5CD959 PUSH1 0x82 SHL PUSH1 0x44 DUP3 ADD MSTORE PUSH1 0x64 SWAP1 REVERT JUMPDEST PUSH1 0x40 MLOAD PUSH3 0x461BCD PUSH1 0xE5 SHL DUP2 MSTORE PUSH1 0x20 PUSH1 0x4 DUP3 ADD MSTORE PUSH1 0x18 PUSH1 0x24 DUP3 ADD MSTORE PUSH32 0x5265636569766572206E6F742077686974656C69737465640000000000000000 PUSH1 0x44 DUP3 ADD MSTORE PUSH1 0x64 SWAP1 REVERT JUMPDEST PUSH1 0x40 MLOAD PUSH3 0x461BCD PUSH1 0xE5 SHL DUP2 MSTORE PUSH1 0x20 PUSH1 0x4 DUP3 ADD MSTORE PUSH1 0x16 PUSH1 0x24 DUP3 ADD MSTORE PUSH22 0x14D95B99195C881B9BDD081DDA1A5D195B1A5CDD1959 PUSH1 0x52 SHL PUSH1 0x44 DUP3 ADD MSTORE PUSH1 0x64 SWAP1 REVERT JUMPDEST POP ADDRESS DUP4 EQ ISZERO PUSH2 0x2C8C JUMP JUMPDEST PUSH1 0x40 MLOAD PUSH4 0xEC442F05 PUSH1 0xE0 SHL DUP2 MSTORE PUSH1 0x0 PUSH1 0x4 DUP3 ADD MSTORE PUSH1 0x24 SWAP1 REVERT JUMPDEST PUSH1 0x40 MLOAD PUSH4 0x4B637E8F PUSH1 0xE1 SHL DUP2 MSTORE PUSH1 0x0 PUSH1 0x4 DUP3 ADD MSTORE PUSH1 0x24 SWAP1 REVERT JUMPDEST SWAP2 PUSH1 0x1 DUP1 PUSH1 0xA0 SHL SUB DUP1 SWAP4 AND SWAP2 PUSH1 0x0 SWAP4 DUP4 DUP6 MSTORE PUSH1 0x1 PUSH1 0x20 MSTORE PUSH1 0x40 SWAP4 DUP5 DUP7 KECCAK256 SWAP2 DUP4 AND SWAP2 DUP3 DUP8 MSTORE PUSH1 0x20 MSTORE DUP5 DUP7 KECCAK256 SLOAD SWAP3 PUSH1 0x0 NOT DUP5 LT PUSH2 0x2E91 JUMPI JUMPDEST POP POP POP POP POP POP POP JUMP JUMPDEST DUP5 DUP5 LT PUSH2 0x2EF5 JUMPI POP DUP1 ISZERO PUSH2 0x2EDD JUMPI DUP2 ISZERO PUSH2 0x2EC5 JUMPI DUP6 MSTORE PUSH1 0x1 PUSH1 0x20 MSTORE DUP4 DUP6 KECCAK256 SWAP1 DUP6 MSTORE PUSH1 0x20 MSTORE SUB SWAP2 KECCAK256 SSTORE CODESIZE DUP1 DUP1 DUP1 DUP1 DUP1 DUP1 PUSH2 0x2E88 JUMP JUMPDEST DUP5 MLOAD PUSH4 0x4A1406B1 PUSH1 0xE1 SHL DUP2 MSTORE PUSH1 0x4 DUP2 ADD DUP8 SWAP1 MSTORE PUSH1 0x24 SWAP1 REVERT JUMPDEST DUP5 MLOAD PUSH4 0xE602DF05 PUSH1 0xE0 SHL DUP2 MSTORE PUSH1 0x4 DUP2 ADD DUP8 SWAP1 MSTORE PUSH1 0x24 SWAP1 REVERT JUMPDEST DUP6 MLOAD PUSH4 0x7DC7A0D9 PUSH1 0xE1 SHL DUP2 MSTORE PUSH1 0x1 PUSH1 0x1 PUSH1 0xA0 SHL SUB SWAP2 SWAP1 SWAP2 AND PUSH1 0x4 DUP3 ADD MSTORE PUSH1 0x24 DUP2 ADD DUP5 SWAP1 MSTORE PUSH1 0x44 DUP2 ADD DUP6 SWAP1 MSTORE PUSH1 0x64 SWAP1 REVERT JUMPDEST SWAP1 PUSH1 0x1 PUSH1 0x1 PUSH1 0xA0 SHL SUB DUP3 AND SWAP1 DUP2 ISZERO PUSH2 0x2E39 JUMPI PUSH1 0x0 SWAP3 DUP3 DUP5 MSTORE DUP4 PUSH1 0x20 MSTORE PUSH1 0x40 DUP5 KECCAK256 SLOAD SWAP1 DUP3 DUP3 LT PUSH2 0x2F92 JUMPI POP DUP2 PUSH32 0xDDF252AD1BE2C89B69C2B068FC378DAA952BA7F163C4A11628F55A4DF523B3EF SWAP3 PUSH1 0x20 SWAP3 DUP6 DUP8 MSTORE DUP7 DUP5 MSTORE SUB PUSH1 0x40 DUP7 KECCAK256 SSTORE DUP1 PUSH1 0x2 SLOAD SUB PUSH1 0x2 SSTORE PUSH1 0x40 MLOAD SWAP1 DUP2 MSTORE LOG3 JUMP JUMPDEST PUSH1 0x40 MLOAD PUSH4 0x391434E3 PUSH1 0xE2 SHL DUP2 MSTORE PUSH1 0x1 PUSH1 0x1 PUSH1 0xA0 SHL SUB SWAP2 SWAP1 SWAP2 AND PUSH1 0x4 DUP3 ADD MSTORE PUSH1 0x24 DUP2 ADD SWAP2 SWAP1 SWAP2 MSTORE PUSH1 0x44 DUP2 ADD DUP3 SWAP1 MSTORE PUSH1 0x64 SWAP1 REVERT JUMPDEST PUSH1 0x11 SLOAD PUSH1 0x1 PUSH1 0x40 SHL DUP2 LT ISZERO PUSH2 0x579 JUMPI PUSH1 0x1 DUP2 ADD DUP1 PUSH1 0x11 SSTORE DUP2 LT ISZERO PUSH2 0x2BF7 JUMPI PUSH1 0x11 PUSH1 0x0 MSTORE PUSH32 0x31ECC21A745E3968A04E9570E4425BC18FA8019C68028196B546D1669C200C68 ADD DUP1 SLOAD PUSH1 0x1 PUSH1 0x1 PUSH1 0xA0 SHL SUB NOT AND PUSH1 0x1 PUSH1 0x1 PUSH1 0xA0 SHL SUB SWAP1 SWAP3 AND SWAP2 SWAP1 SWAP2 OR SWAP1 SSTORE JUMP JUMPDEST PUSH1 0x0 NOT DUP2 EQ PUSH2 0xBDB JUMPI PUSH1 0x1 ADD SWAP1 JUMP JUMPDEST SWAP2 SWAP1 DUP2 LT ISZERO PUSH2 0x2BF7 JUMPI PUSH1 0x5 SHL ADD SWAP1 JUMP JUMPDEST CALLDATALOAD PUSH1 0x1 PUSH1 0x1 PUSH1 0xA0 SHL SUB DUP2 AND DUP2 SUB PUSH2 0x2BB JUMPI SWAP1 JUMP JUMPDEST ISZERO PUSH2 0x3062 JUMPI JUMP JUMPDEST PUSH1 0x40 MLOAD PUSH3 0x461BCD PUSH1 0xE5 SHL DUP2 MSTORE PUSH1 0x20 PUSH1 0x4 DUP3 ADD MSTORE PUSH1 0x12 PUSH1 0x24 DUP3 ADD MSTORE PUSH18 0x10DBDB9D1C9858DD081A5CC81C185D5CD959 PUSH1 0x72 SHL PUSH1 0x44 DUP3 ADD MSTORE PUSH1 0x64 SWAP1 REVERT JUMPDEST ISZERO PUSH2 0x30A3 JUMPI JUMP JUMPDEST PUSH1 0x40 MLOAD PUSH3 0x461BCD PUSH1 0xE5 SHL DUP2 MSTORE PUSH1 0x20 PUSH1 0x4 DUP3 ADD MSTORE PUSH1 0x1E PUSH1 0x24 DUP3 ADD MSTORE PUSH32 0x4E6F742077686974656C6973746564202D204B59432072657175697265640000 PUSH1 0x44 DUP3 ADD MSTORE PUSH1 0x64 SWAP1 REVERT JUMPDEST DUP2 DUP2 MUL SWAP3 SWAP2 DUP2 ISZERO SWAP2 DUP5 DIV EQ OR ISZERO PUSH2 0xBDB JUMPI JUMP JUMPDEST DUP2 ISZERO PUSH2 0x3105 JUMPI DIV SWAP1 JUMP JUMPDEST PUSH4 0x4E487B71 PUSH1 0xE0 SHL PUSH1 0x0 MSTORE PUSH1 0x12 PUSH1 0x4 MSTORE PUSH1 0x24 PUSH1 0x0 REVERT JUMPDEST SWAP2 SWAP1 DUP3 ADD DUP1 SWAP3 GT PUSH2 0xBDB JUMPI JUMP JUMPDEST SWAP2 SWAP1 DUP3 SUB SWAP2 DUP3 GT PUSH2 0xBDB JUMPI JUMP JUMPDEST RETURNDATASIZE ISZERO PUSH2 0x3170 JUMPI RETURNDATASIZE SWAP1 PUSH8 0xFFFFFFFFFFFFFFFF DUP3 GT PUSH2 0x579 JUMPI PUSH1 0x40 MLOAD SWAP2 PUSH2 0x3164 PUSH1 0x1F DUP3 ADD PUSH1 0x1F NOT AND PUSH1 0x20 ADD DUP5 PUSH2 0x276C JUMP JUMPDEST DUP3 MSTORE RETURNDATASIZE PUSH1 0x0 PUSH1 0x20 DUP5 ADD RETURNDATACOPY JUMP JUMPDEST PUSH1 0x60 SWAP1 JUMP JUMPDEST PUSH1 0x1 PUSH1 0x1 PUSH1 0xA0 SHL SUB AND SWAP1 DUP2 ISZERO PUSH2 0x2E20 JUMPI PUSH32 0xDDF252AD1BE2C89B69C2B068FC378DAA952BA7F163C4A11628F55A4DF523B3EF PUSH1 0x20 DUP3 PUSH2 0x31B7 PUSH1 0x0 SWAP5 PUSH1 0x2 SLOAD PUSH2 0x311B JUMP JUMPDEST PUSH1 0x2 SSTORE DUP5 DUP5 MSTORE DUP4 DUP3 MSTORE PUSH1 0x40 DUP5 KECCAK256 DUP2 DUP2 SLOAD ADD SWAP1 SSTORE PUSH1 0x40 MLOAD SWAP1 DUP2 MSTORE LOG3 JUMP JUMPDEST PUSH1 0x0 DUP1 MLOAD PUSH1 0x20 PUSH2 0x3271 DUP4 CODECOPY DUP2 MLOAD SWAP2 MSTORE PUSH1 0x2 DUP2 SLOAD EQ PUSH2 0x31F1 JUMPI PUSH1 0x2 SWAP1 SSTORE JUMP JUMPDEST PUSH1 0x40 MLOAD PUSH4 0x3EE5AEB5 PUSH1 0xE0 SHL DUP2 MSTORE PUSH1 0x4 SWAP1 REVERT JUMPDEST SWAP1 DUP1 PUSH1 0x20 SWAP4 SWAP3 DUP2 DUP5 MSTORE DUP5 DUP5 ADD CALLDATACOPY PUSH1 0x0 DUP3 DUP3 ADD DUP5 ADD MSTORE PUSH1 0x1F ADD PUSH1 0x1F NOT AND ADD ADD SWAP1 JUMP JUMPDEST ISZERO PUSH2 0x322B JUMPI JUMP JUMPDEST PUSH1 0x40 MLOAD PUSH3 0x461BCD PUSH1 0xE5 SHL DUP2 MSTORE PUSH1 0x20 PUSH1 0x4 DUP3 ADD MSTORE PUSH1 0x17 PUSH1 0x24 DUP3 ADD MSTORE PUSH32 0x50726F706F73616C20646F6573206E6F74206578697374000000000000000000 PUSH1 0x44 DUP3 ADD MSTORE PUSH1 0x64 SWAP1 REVERT INVALID SWAP12 PUSH24 0x9B17422D0DF92223018B32B4D1FA46E071723D6817E2486D STOP EXTCODESIZE 0xEC 0xC5 PUSH0 STOP LOG2 PUSH5 0x6970667358 0x22 SLT KECCAK256 DUP1 SWAP6 0xCE 0xBA 0x2A DUP2 SWAP7 0xC1 PUSH21 0x6C49F9648EA4561036AA489DF54ECF13F22B3CF876 DUP11 COINBASE PUSH5 0x736F6C6343 STOP ADDMOD EQ STOP CALLER 0xA6 PUSH13 0xC928B5EDB82AF9BD4992295415 GAS 0xB7 0xB0 SWAP5 0x26 SWAP5 0xBE LOG4 0xCE PREVRANDAO PUSH7 0x1D9A8736C6883C 0xD1 0xDC SWAP15 CALLER 0xEC 0xDC 0x4C CALLDATACOPY 0xBF SWAP12 EXTCODEHASH 0xCA KECCAK256 0xD6 0xC7 RETURN 0xD3 0xA8 SLT BYTE NUMBER 0x25 PUSH1 0x9B 0xEE ORIGIN LOG4 0xEC SWAP11 0xE5 0xD7 RETURN 0xF7 0xA9 INVALID CALLDATASIZE 0x4F 0xAA 0xB9 EXTCODESIZE 0x21 PUSH14 0xA50A3214154F22A0A2B415B23A84 0xC8 AND SWAP15 DUP12 PUSH4 0x6EE36E15 BLOCKHASH OR SHL PUSH13 0xC960B71A7020D9F60077F6AF9 BALANCE 0xA8 0xBB CREATE2 SWAP1 0xDA MUL 0x23 0xDA 0xCF PUSH22 0xC7AFF652222313E28459528D920B65115C16C04F3EFC DUP3 0xAA 0xED 0xC9 PUSH28 0xE59F3F377C0D3F000000000000000000000000000000000000000000 "},"methodIdentifiers":{"PLATFORM_FEE_PERCENT()":"560d52d4","VOTING_PERIOD()":"b1610d7e","addMultipleToWhitelist(address[])":"8401f8d1","addToWhitelist(address)":"e43252d7","allowance(address,address)":"dd62ed3e","approve(address,uint256)":"095ea7b3","balanceOf(address)":"70a08231","burn(uint256)":"42966c68","burnFrom(address,uint256)":"79cc6790","buyTokens()":"d0febe4c","createProposal(string,string)":"65e481e2","createVesting(address,uint256,uint256)":"e9754908","decimals()":"313ce567","distributeDividends()":"03c83302","dividendsReceived(address)":"3d4ac876","executeProposal(uint256)":"0d61b519","getAllInvestors()":"d0a2f2c4","getInvestorCount()":"960524e3","getMSMEInfo()":"1ddb6e87","getProposalVotes(uint256)":"47c66140","getVestingInfo(address)":"fb897ce4","getWhitelistedCount()":"681a06d7","investmentAmount(address)":"ed0ea003","investors(uint256)":"3feb5f2b","isWhitelisted(address)":"3af32abf","issueRefunds()":"4ae0b831","msmeInfo()":"6f9253ca","name()":"06fdde03","owner()":"8da5cb5b","pause()":"8456cb59","paused()":"5c975abb","platformWallet()":"fa2af9da","proposalCount()":"da35c664","proposals(uint256)":"013cf08b","releaseVestedTokens()":"54dd1da4","removeFromWhitelist(address)":"8ab1d681","renounceOwnership()":"715018a6","symbol()":"95d89b41","tokenPrice()":"7ff9b596","totalDividendsDistributed()":"85a6b3ae","totalSupply()":"18160ddd","transfer(address,uint256)":"a9059cbb","transferFrom(address,address,uint256)":"23b872dd","transferOwnership(address)":"f2fde38b","unpause()":"3f4ba83a","updateIPFSHash(string)":"f16c7bde","vestingSchedules(address)":"fdb20ccb","vote(uint256,bool)":"c9d27afe","whitelistedAddresses(uint256)":"ba4e5c49"}}}}}